:02000000ff00ff
:080002004c6174746963650030
:17000a00694345637562653220323031372e30382e32373934300069
:16002100506172743a2069434534304858384b2d435432353600ff
:1b003700446174653a2041756720313820323032302031343a35373a30340083
:0200520000ffad
:040054007eaa997e69
:02005800510055
:02005a0001059e
:03005c00920020ef
:03005f00620367d2
:0300620072011018
:0300650082000016
:02006800110085
:02006a00010192
:20006c00000000000000000000000000000000000000000000000000000000000000000074
:20008c00000000000000000000000000000000000000000000000000000000000000000054
:2000ac00000000000000000000000000000000000000000000000000000000000000000034
:0d00cc000000000000000000000000000027
:2000d900000000000000000000000000000000000000000000000000000000000000000007
:2000f9000000000000000000000000000000000000000000000000000000000000000000e7
:200119000000000000000000000000000000000000000000000000000000000000000000c6
:0d01390000000000000000000000000000b9
:20014600000000000000000000000000000000000000000000000000000000000000000099
:20016600000000000000000018000000000000000000000000000000000000000000000061
:20018600000400000000000000000000000000000000000000000000000000000000000055
:0d01a6000000000000000400000000000048
:2001b30000000000000000000000000000000000000000000000000000000000000000002c
:2001d30000000000000000000000000000000000000000000000000000000000000000000c
:2001f3000000000000000000000000000000000000000000000000000000000000000000ec
:0d02130000000000000000000000000000de
:200220000000000000000000000000000000000000000000000000000000000000000000be
:2002400000000000000000000000000000000000000000000000000000000000000000009e
:2002600000000000000000000000000000000000000000000000000000000000000000007e
:0d0280000000000000000000000000000071
:20028d00000000000000000000000000000000000000000000000000000000000000000051
:2002ad00000000000000000000000000000000000000000000000000000000000000000031
:2002cd00000000000000000000000000000000000000000000000000000000000000000011
:0d02ed000000000000000000000000000004
:2002fa000000000000000000000000000000000000000000000000000000000000000000e4
:20031a000000000000000000000000000000000000000000000000000000000000000000c3
:20033a000000000000000000000000000000000000000000000000000000000000000000a3
:0d035a000000000000000000000000000096
:20036700000000000000000000000000000000000000000000000000000000000000000076
:20038700000000000000000000000000000000000000000000000000000000000000000056
:2003a700000000000000000000000000000000000000000000000000000000000000000036
:0d03c7000000000000000000000000000029
:2003d400000000000000000000000000000000000000000000000000000000000000000009
:2003f4000000000000000000000000000000000000000000000000000000000000000000e9
:200414000000000000000000000000000000000000000000000000000000000000000000c8
:0d04340000000000000000000010000000ab
:2004410000000000000000000000000000000000000000000000000000000000000000009b
:2004610000000000000000000000000000000000000000000000000000000000000000007b
:2004810000000000000000000000000000000000000000000000000000000000000000005b
:0d04a1000000001800000000000000000036
:2004ae0000000000000000000000000000000000000000000000000000000000000000002e
:2004ce0000000000000000000000000000000000000000000000000000000000000000000e
:2004ee000000000000000000000000000000000000000000000000000000000000000000ee
:0d050e0000000000000000000000000000e0
:20051b000000000000000000000000000000000000000000000000000000000000000000c0
:20053b000000000000000000000000000000000000000000000000000000000000000000a0
:20055b00000000000000000000000000000000000000000000000000000000000000000080
:0d057b000000000000000000000000000073
:20058800000000000000000000000000000000000000000040000000000000000000000013
:2005a800000000000000000000000000000000000000000000000000000000000000000033
:2005c800000000000000000000000000000000000000000000000000000000000000000013
:0d05e8000000000000000000000000000006
:2005f500000000000000000000000000006000000000000000000000000000000000000086
:20061500000000000000000000000000000000000000000000018000000000000000000044
:20063500000000000000000000000000000000400000000000000000000000000000000065
:0d0655000000000000000000000000000098
:20066200000000000000000000000000000000000000000000000000000000000000000078
:200682000000000000000000000000000000000000000000000000000000018000000000d7
:2006a200000000000000000000000000000000000000000000000000000000000000000038
:0d06c200000000000000000000100000001b
:2006cf0000000000000000000000000000000000000000000000000000000000000000000b
:2006ef000000000000000000000000000000000000000000000000000000000000000000eb
:20070f000000000000000000000000000000000000000000000000000000000000000000ca
:0d072f0000000000000000000000000000bd
:20073c0000000000000000000000040000af0600006000b6cd000000a03c000000000080a5
:20075c00e9f4810080a2068f80040000080f00000000000000000000500897bd54200800a5
:20077c0001ccf560200000000000000000000000000000000000000000000000000000001b
:0d079c000000000000000000000000000050
:2007a900000000000000000000000000010f00000060003b7cc000001c3c000000000010e1
:2007c9000bf0d0400001402fa0418000051a00000000014000000003201038280000000041
:2007e90002c0a000400000000000000000000000000000000000000000000000000000004e
:0d08090000000000000000000000000000e2
:20081600000000000000000000e0000000000003800000bf10808e8000035bb0003800813b
:20083600e163d4c5e0020716aa01038000000000000001000000038000000000000e000006
:200856000000000038800000000000000000000000000000000000000000000000000000ca
:0d0876000000000000000000000000000075
:20088300000000000000000000000000000000000000003822c0004e00014df1000000109e
:2008a3000003d401000144000a00800000000000000000000000000020000000000002006c
:2008c30000000000000000000000000000000000000000000000000000a000000000000075
:0d08e3000000000000000000000000000008
:2008f000000000000000000000c0000040000000000801d69418a00016020e020230000063
:20091000887814020801c00f8014040000000000000000000000030180000000000c0a00a7
:200930000000000000000008750180000000000000000000000000000000000000000000a9
:0d095000000000000000000000000000009a
:20095d00000000000000000000c000030000000000070c78344a10003e014001001020d01e
:20097d00ef4028000400002fac20000807000000000000000000030000000000000c0000e6
:20099d0000000000000000032e0020000000000000000000000000000000000000000000e9
:0d09bd00000000000000000000000000002d
:2009ca000000000000000000000000000000000000080000000000000600ce00320400807b
:2009ea000d7201890003c04580800000001900000000000000000000400000000000600023
:200a0a0000000000000001c000000000080000000000000000000000000000000000000003
:0d0a2a0000000000000000000000000000bf
:200a370000000000000000000000000000000000000f00000000000004016002280400d02d
:200a570009c228840002e364c0000000000e0000000001000000000020000000000081c08f
:200a770000000000010001000000000010000000000000000000000000000000000000004d
:0d0a97000000000000000000000000000052
:200aa4000000000000000000000000000000000010800a3ff444000006005f1000080000a4
:200ac400096bd520000be076ea522001800000000000000000000000000000000000001c4f
:200ae4000400000000000000000000000000000000000000000000000000000000000000ee
:0d0b040000000000000000000000000000e4
:200b110000000000000000000000400000000000000010f354000000002e6d300000000062
:200b3100fb8280c40000621d058000000000000000000200000000080000000000000000d5
:200b51003c0000000000000000000000000000000000000000000000000000000000000048
:0d0b71000000000000000000000000000077
:200b7e0000000000000000000000000000000000000380000000000000675bb040000081a1
:200b9e0087fdd0000000061eca01180000003a4348000000000000000800000000002000ef
:200bbe00000000000000180df00100000000000000000000000000000020000000000000e1
:0d0bde00000000000000000000000000000a
:200beb0000000000000000000000000000000000010d89000000000000354df10000287048
:200c0b00f5bda00000e000020a02001000085ee940000800000000100f00000000000000c3
:200c2b00000000000020f003803c00000000000000001000000000000000000000000000ca
:0d0c4b00000000000000000000000000009c
:200c58000000000000000000000000070000000000000abad38000003403cc00000000005b
:200c78000d73880800000007a0800000000017d4584000000000000000080000000000207a
:200c980020000000000000000000000000000000000000000000000000000000000000001c
:0d0cb800000000000000000000000000002f
:200cc5000000000000000000000000000000000000001033b3c800003e0140a0080000002a
:200ce50007c060000200022fa002000000001ec4c260010000000000000000000000002cc2
:200d05000000000000000000000000000000000000000000000000000000000000000000ce
:0d0d250000000000000000000000000000c1
:200d320000000400000000000008040000000000000d01bfc300000020024b6240040010de
:200d5200e87828000001c6a1aa0000000001968594300000000000085000000000000000af
:200d7200000000000000000000000000000000000000000000000000002000000000000041
:0d0d92000000000000000000000000000054
:200d9f000000040000000000000408000000000000058f33d708000114014d812004000175
:200dbf008f40140000142034050000002008f645400000000000004023000000000040007e
:200ddf000000000000000000000000100800000000000000000000000000000000000000dc
:0d0dff0000000000000000000000000000e7
:200e0c001000200000000000000000068c98570000001a3aa0000000160400000000000007
:200e2c000f68810000b0002193600000218a9b5280000880000002000000568290080000d8
:200e4c0000000000201d801732800000000000000000000000780020000000000000000266
:0d0e6c0080000000000000000000000000f9
:200e79000000000000000000000000040deda00000100f76800e10001c2800000000000044
:200e9900bb76d4e30a01c03cc3900000501013a0400000000000000300000002840000001b
:200eb90000000000000210a0828000000000000000000000000000008000000000000001e4
:0d0ed900000000000000000000000000000c
:200ee600000038000000000000e0020046d5b003880d80063c10000000285e20303800d1be
:200f0600e13a8000e002e07fc10003800f807714508080800000038000003e81580e000019
:200f260020000000383000a9306108000000000000000000007703e0000000000000000087
:0d0f4600000000000000000000000000009e
:200f53000000000000000000000000432cc2700010050e043c00000d002b6800080000b81a
:200f7300fdc3d4000002e31de7a000000780383c465001000000000000003c00020400016c
:200f93004000000000000103c16000008800000000000000000403c000000000000000008a
:0d0fb3002000000000000000000000000011
:200fc00000003400000000000040000674e8b02500090107bc10000016024a2020000000e7
:200fe000b1e3440800020015ce602310418afba600000000000000100818f794c0000000b2
:20100000781d3a0000005001f2910000000000000000000000d23d480000000000000000d6
:0d10200000000000000000000000000000c3
:20102d00000010000000000000800403d707f001000f08003c0000000029d90028000000c0
:20104d00e08344400420402c0c1001205010dab940004000000000200100fbb9c0000000c7
:20106d0041df35000080d80be1440000000000000000000700b03c00000000000000000093
:0d108d000000000000000000000000000056
:20109a000000000000000000000000601eaf45000000187e0600000014005b4000c0003881
:2010ba000be3d40000036007ad102800051a56b88080a00000000008080e7a8d5080000043
:2010da0070000000000518a0000000000000000000000000000000000000000000000000c9
:0d10fa0000000000000000000000000000e9
:2011070000000000000000000000e00025ce00040000009a82001000002bc90001000208c6
:20112700a94280001821c0020d1000000080083888010800000000030b007c0c0401000039
:2011470040000000000a01000000000000000000000010000000000001000000000000012b
:0d116700000000000000100000000000006b
:2011740000000008001073c1000202462c8e561400001a92c38800a200015c803002a00059
:20119400183b880804056021c2e00000058f93550000000000000000070077d05800a01c4e
:2011b40001ec34000280181d3f600020000000000000000000000000000000000000000084
:0d11d400000000000000000000000000000e
:2011e1000000000000f043c04004006005f4a2000000001bc30000600001690000013100e2
:20120100e74344000018039de1d10041038ff62940000e00000000280080d3f000204000ea
:201221003f4d20000280008d6af00000000000000000000000000000000000000000000098
:0d12410000000000000000000000000000a0
:20124e000000000001800000000a806007af44100001007e070000014e01e90010800000bc
:20126e00156344080a42632fea5000000800730d0040200000000010101d0000000200005d
:20128e00396ed102000019857af10820000000000000000000000000000000000000000095
:0d12ae000000000000000000000000000033
:2012bb000000000000c000000004e00026ce01041000809a8f00400082005b01004038b077
:2012db00b0834400000342ed0f000000010012480000000000000008201a0000000040005e
:2012fb004030d1000000000042f000008000000000001000080000000000000000000000c8
:0d131b0002000000000000000000000000c3
:201328000000000000000000000000438ed160000181809b3400800000025c203804028115
:20134800dd7a80000015c39fa5048c01ab0eb6604000000000000000078000000000001655
:2013680079f80a4000000013b28000000000000000000001800000000000000000000000e4
:0d1388000000000000000000000000000058
:20139500000000000000000000001023dd8b7000008000d4200250000026490000040111e2
:2013b50085c00083000860060fa20c001780f20e0400000000000000090f00000000000072
:2013d50040300a00000400f002800000000000000000000000000000000000000000000008
:0d13f50000000000000002000000000000e9
:2014020000000000000073c1c00a00e0178d122000080e7e0f8000004e01e900100000109b
:2014220010000000003246bd85e00028058f9f8200100000000000a80818faa95000400018
:201442002c000000010001c5b1480800000000000000000000000000000000000000000096
:0d146200000000000000000000000000007d
:20146f0000000000000043c060042000340470000107109aa040000002005b80014030004e
:20148f00a0000000000a47d6c8900000009d170000004000000000002100bf8bcc000024cf
:2014af00200000000408010fc0000000800000000000000d00000000000000000000000193
:0d14cf00020000000000000000000000000e
:2014dc00000000000000000000002007948f55000300189b73c0000e2c656e50000100000a
:2014fc00e86e8c01004be7ad92e00412078ed236400000000000000388003f28080001406e
:20151c00077ed9002000d0012a8000000000000000000000000000000000000000000000b6
:0d153c0000000000000000000000000000a2
:201549000000020000000000000000041f0a0010000d10139b8000003c22e0a500021111f1
:2015690093754c040067c007f0a00008000abea900000000000000004f0008280c000081c7
:2015890022eaa400003810a740000000000000000000000000000000000000000000000063
:0d15a9000000000000000000000000000035
:2015b600000000000000000000e0000000000003800b80028d5480000c04e8e20202008066
:2015d60011020408001207bdcf500380018e52060080000000000003001a8286c080000c86
:2015f600784ef502380000016c20020210c000000000080000000000000000000000000077
:0d16160000000000000000000000000000c7
:2016230000000000000000000000000000000000000180340e880000243830e2010000b03d
:201643009b039c000015442d0a0000002010bc17c00080000000000000105009c00000024f
:2016630000f0810000000001b40060000000000000000000000000000002000000000000df
:0d168300000000000000000000000000005a
:20169000000000000000000000c00000000000000000181fcf800001160259000000000082
:2016b000097bd40010540704ea000002c519162f00800000000000120900d7844080040486
:2016d00004cf1c00000000077851080000002d8f5000005000000000008000000000000057
:0d16f00000000000000000000000000000ed
:2016fd00000000000000000000c40003c0000000000000f32240000000014908000001049a
:20171d00c98280800808043d0f500000200ef01900000000000000200f8e303f00100c0c26
:20173d003eda1800000000a0c050040000003e0a0000000000000000004000000000000020
:0d175d00000000000000000000000000007f
:20176a0000000200000000000000000000000000000d007ea808800014007b5800080000b3
:20178a00103b44080009c61f8e202002801fda94145000000000001000009297c000210c53
:2017aa0003fc5e00000450077a80000a020000000000004000000000000000000000000021
:0d17ca000000000000000000000000000012
:2017d700000000000000000000000000000000000007009006001000022c6824000000008b
:2017f7009b038800001020020e2000291f0e5c3d421000000000000881005001400000826f
:201817003cef89000028000b83d40000084000000000020000000000000000000000000029
:0d183700080000000000000000000000009c
:20184400000000000000000000000000000000000021807ed6c000000069fd4a000000001f
:20186400ed311c080000038ded1020030f1e5f9780000c0000000001038173044080417650
:20188400214ab90200000080000000000002b7c0f000000000000000000000000000000035
:0d18a4000000000000000000000000000037
:2018b10000000000000000000000000000000000034000f389c000000038699d0000050154
:2018d10007c10800000800020d1000002b903ea240000000000000000b0e183f0401810629
:2018f10069503400000001000000000000040c00f0000000000000000000000000000000e9
:0d19110000000000000000000000000000c9
:20191e000000000000000000000000000000000002d180bbd64000805c2278bc02000091c0
:20193e008962600000000715ae2020801701bfae44800080000000100b8e7b0f8000603e9a
:20195e00056ce20a00800180000000000060000000000000000000000000000000000000ab
:0d197e00000000000000000000000000005c
:20198b0000000000000000000000000000000000002d8076104000408262e0982000803855
:2019ab00dbb79404000006430e2200002b08900d00000040000000282b10ff898000e02cf2
:2019cb002000e200000000000000000043e0000000000000000000000000000000000000d7
:0d19eb0000000000000000000000000000ef
:2019f8000000000000000000000000e380000000007718ba2c04c0400070c8e002000a5877
:201a18000d7440000000e6de85000000801e3712800200000000000000019aaf0080000071
:201a38002ed84a00000270f1280000000000000000000000000000000000000000000000b3
:0d1a58000000000000000000000000000081
:201a6500000002000000000000080020000000000050105404000020044170d500000500d0
:201a85000fa40000000023bf00000000001032a74000a000000000020f0bfc1904000000ae
:201aa5007dfa9d000001098740280000000000000000000000000000000000000000000014
:0d1ac5000000000000000000000000000014
:201ad2000000000000000000000000000000000000098013954000000000ee8b02000050b8
:201af200ebf1280000020785ae2020000101000000000100000000000b8eb7bd4010001ed6
:201b120078cf3001030018196b150900000700000000000000000000000000000000000077
:0d1b320000000000000000000000000000a6
:201b3f0000000000000000000000a000000000000389c000154010000024308b01001078cd
:201b5f000db674000002c3c00e200000208d00000000400000000000a790b0280401002457
:201b7f0043f8b1000282089b03688000000400000000400000000000000000000000000004
:0d1b9f000000000000000000000000000039
:201bac0000002008101033c10004020076ad1404280380fbc24000420603595d00000000f3
:201bcc000572600010020656c5e00000a70033080000000000000001098ebfbd48100c1c99
:201bec006268f50000280001f94000000000000000000000000000000000000000000000b8
:0d1c0c0000000000000000000000000000cb
:201c190000000000088003c0040001420c8f0000100000bf3e4000214000d80d00001000db
:201c3900872b68000a0147ecb8900000000076ce0400014000000000018074280000000243
:201c59004250a000000000cdc29400000000000000000000000000000020000000000000f6
:0d1c7900000000000000000000000000005e
:201c860000003800000023c181e00203aeed14000000005bc5040000202758bc000100701d
:201ca60003fdb8000081e004f5e0002be780b6ed40000100000000102800361080800c2606
:201cc6007578e222400080c76b8808e00200000000000800000000000001000000000000a0
:0d1ce60000000000000000000000000000f1
:201cf30000000000000043c00400004654df02000000001e8d000000047dfc64000080083b
:201d13000de0700000082024d89000006080bfc800000a80000000284700b8140000001c57
:201d33007000e2000000700083880100204000000000000000000000000000000000000062
:0d1d53000000000000000020000000000063
:201d60000000340000010295004002061fa83500008000f05088004020797f1f000100f89b
:201d800005f178000400061ecf500000298a12a340000e0000000000050e1396c0900000cc
:201da0003bfca000000071f7709000400000000000000000000000000000000000000000a4
:0d1dc0000000000000000000000000000016
:201dcd000000100000000294828000403c9d3000000000bb39c000c01c01dd1500008058aa
:201ded00f9aa24000800042e0a000400450a72e380000000000000085080580040000540ee
:201e0d000260f50040000999e8506080000000000000000000000000000000000000000064
:0d1e2d0000000000000000000000000000a8
:201e3a000000000000000000000002002ebd150000481c00000000016c22debc02010050a6
:201e5a001d3af00800160694ed102000400a7eb88080a200000000002f1816bd400001a42b
:201e7a00015d7e0000389807b3440800000000000000000000000000004000000000000056
:0d1e9a00000000000000000000000000003b
:201ea7000000003000000000000001c015df000400251000000001001e65c064000200084b
:201ec700a70260000010c0020d10000000100c3880000000000000004f80b4280000416ed5
:201ee70001ea1d00000070d083440400000000000000400000000000008080000000000088
:0d1f070000000000000000000000000000cd
:201f1400000000001800000000000003ffbe560000078173014400403602faa510c0085000
:201f34000072c48000c1e00f8e202428878f3e388080400000000040039cbb11c080002056
:201f540000f888020800f8100000000000005ef8360000000000000000000000000000004f
:0d1f74000000000000000000000000000060
:201f81000000000000d00000000000074494a01400070e3817c000200c0150550002800065
:201fa100f725c800080662020e200040008b0838880001400000000b008f1c10800120243d
:201fc10000f03f000000f8800000000000036d8d320000000000000000000000000000002a
:0d1fe10000000000000000000000000000f3
:201fee0000000100019073c107000203c0000000000b80339a4000001e057cd112000071b6
:20200e00a93bd4001040026faf501001c0080000000000c000000000078e56828080803e76
:20202e00315cd102000000c7b4400000000000000000000000000000000000000000000077
:0d204e008500000000000000000000000000
:20205b0000000080008043c0000003c600000000028d8e33ea8000003c3820d100800000fa
:20207b00f78140000000066f0a00002820000000000003c00000000000107822c040001e3b
:20209b007c70810000000103e80000002000000000000000000000000000000000000000ac
:0d20bb000000000000000000000000000018
:2020c80008000000000073c1000000639f98358000011e070cc0a0001c605aa52100003807
:2020e800183a8c083000603de5800000010e7abe8000000000000001038016abc04206208c
:2021080000000000000000fda9600000000040000000000000000000000000000000000071
:0d21280000000000000000000000000000aa
:2021350000000001000043c0040000042ddd300010008b000cc000800203d0550002000829
:20215500d5414c000202625c9ae000000098f4140000a000000000000900d001400000244e
:2021750000000000000001e1fe600000000380000000000000000000000000000000000087
:0d219500000000000000000000000000003d
:2021a2000000000000080295000002002ede260000000133abc400001c040000000108007e
:2021c200e8328c000000400ccb902010281c02b8808000c00000000007097ba80000a000ef
:2021e20004000000003800e0000000000000000000000000000000000200000000000000bf
:0d22020000000000000000000000000000cf
:20220f0000000000008f0168840003c3e5fc308008000a381680000006340000000280112f
:20222f000b714c00000243be038004004f19f0344010014000000000208d383d400040007e
:20224f0028000000000000f0000000000040000000000320000000000008000000000000ec
:0d226f000000000000000000000000000062
:20227c000000000000896bd50000140026e8b70800071a13aa80100c20654f7e00002a00a2
:20229c000f70840014c1678e8f508000050072d78000060000000000038083c9c0000e4045
:2022bc00680cf040000019c93f944080e06634ef5400000000000000080000000000000024
:0d22dc0000000000000000000000000000f5
:2022e90000000000000382808000000037a4208c00008078168000003474d81d0000850019
:20230900effb44400860025f05000000098073e24000000000000001808037c6c800000094
:202329004000f020000000cb6f0000000003360a00040000000000000000000000000000c3
:0d2349000000000000000000000000000087
:20235600000038050000000000e000061dc60000285001f7b5003001e0006c88020002989b
:20237600e77a800000021015aa0000008f80b62e408000000000038000000332c00e20003c
:20239600040000003a000005389520e000002daa540000501cd728001e00800000000000e3
:0d23b600000000000000000000000000001a
:2023c3000000003a00000000000001402faa000000000fda85c000006c29f03f000104b0ff
:2023e3000d43d4410001400e0f500000858cbc0d00000200000000100000b3f1c0004e0029
:202403003c000000000800e1e9c8000080003f055000100010983d40000100000000000099
:0d24230000000000000000000000000000ac
:202430000000100000e0000000c00263a6e8b40c01880056e84000400e025f5e0004000110
:20245000cb79400104084681ed102008080007388080000000000151a00857eb880c0000d8
:20247000001af040000001c32814004012030000000000000c0000000c0000000000000095
:0d249000000000000000000000000000003f
:20249d0000003000010000000040006637a42114000f00f7b080102024016d89000018019e
:2024bd00efc16800000020150e2200139508103440000000000002284300f6ffc0142000f8
:2024dd000000f0200000900d800080c009c3c00000000000100000000c00000000000000ca
:0d24fd0000000000000000000000000000d2
:20250a000000040000000000000000e700b1000028070106a80000801c025eb902002c0054
:20252a00012bd40004e86025e5000028200803b88080a0000000000000187f0b808001608d
:20254a000018f0400004809000000004c2070faa54000800000000000001400000000000f2
:0d256a000000000000000000000000000064
:2025770000000400f00000000000740015c2008000008950140800a00003d03400020200e5
:2025970003c140000214002f000000024000d43440004000000000000000b834400100bc28
:2025b7000010f0200000f0e00000000a03401705500000000000000000000000000000005b
:0d25d70000000000000000000000000000f7
:2025e40000000000000000000000020734e00000000780837e000000a6014ce20201003921
:20260400c1e344080a004004ea0000418980860b80804000000000000f1c070cc880060ed9
:202624007408f050000070e5ec040000000025af540000000000000000000000000000006d
:0d2644000000000000000000000000000089
:202651000000000000000000000001c7c70f000000000f527d0010016c2c00e200048009d5
:20267100e0834400080020240f500000038fd00748008000000000000f00040cc0000002e5
:202691006810f00000000109700020000003f40a0200000000000000000000000000000024
:0d26b100000000000000000000000000001c
:2026be000000000080000000000000e056cb01a00800001f2bc000404005482e0200128039
:2026de00e373d400008406afef500000019dbe4c00002600000000002f89f7de80200480bb
:2026fe00000000000a0000000000000000060faa540000080000000000800004eea5600020
:0d271e0000000000000000000000000000ae
:20272b0000000000f000000000000003de010008000b00f8168020a04030102e200004b0d9
:20274b000d8280000002c42c0a000001801cfb6c40100400000000104f1f37ae8000000028
:20276b00000000000010f0c00000000003c3e505520000070000000000008037e055000099
:0d278b000000000000000000000000000041
:202798000000000800000000000400038eaff000000f1f07fe000000a000000000023cf8dc
:2027b8000b3f00000600400cee212000039c132340400000000000020f9f831a4080400c88
:2027d800000cf040000500e0203c200000002fef540028000000000000001c7c0000000012
:0d27f80000000000000000000000000000d4
:202805000000000000000000000a0247b405521000099eb27d0010006c200000000002f8d9
:2028250097219404040562810e2000000780321340000000000000200b18b02580108a02e9
:202845000010f02000020180403c000003c0360a0000100000000000000002380000000007
:0d2865000000000000000000000000000066
:2028720000000005000000000004040007a0a000282d003728044000203c0000000100118c
:20289200d86154400008e3558d102000401cf7140000a00000000020180f56b454000000b0
:2028b200000ef050010400e7e2940000120045a054000820000000000000000000000000e3
:0d28d2008000000000000000000000000079
:2028df000000000200000000000028003405a010004d00183d40000014700000000288597d
:2028ff00f702a800001406400d1000000019b4000000460000000000071e1fbc000000008e
:20291f000000f00000aa0003c154000001c20300500050c000000000000040000000000080
:0d293f00000000000000001000000000007b
:20294c0000000001700163fc800000e014e690005300003ba80000800601da6e00002c007f
:20296c00073940000802062cee3400000000d7bd40504000000000218901365618000000ba
:20298c00795ef5000000000db828000000e03780a000001700000000000000000000000024
:0d29ac00000000000000000000000000001e
:2029b90018000000080d7ae802000022e4f550004880090c280040400001ef1c000002008f
:2029d9000542940200004005843000201040f8280000a0000000001301883e7680000a1ce2
:2029f90040d0a000000000e1817c000001c39e05f0000020000000000000000000000000b9
:0d2a190000000000000000000000000000b0
:202a26000000380018e9bb450000000700c33023800018b6b040804000026abc02003800da
:202a46000beaa800e40203b7e5100040201c1ab8808001c0000003c8001cf73d400e0c1e9c
:202a660000fa2e023a0138a5734408e001e005e7e000104001000000002000000000000051
:0d2a8600040000000000000000000000003f
:202a93000000000001c7abc000000000000331000000007814801080003df064000300b0dc
:202ab3000b8168000200c416a0000000471b04388000014000000013001e30280000002c7f
:202ad30000202e000102d0000344810000201d82e00008000c000000000200000000000045
:0d2af30002000000000000000000000000d4
:202b00000000100081ff2e850200034380a27011000f983aabca0000007b4d1f0002001830
:202b20000f3138004002c015c7e12030000afbbd4000000000000101001c17bd400c00a12d
:202b4000327c0a00100210f1b8f1084002001de1102000000e00000000000000000000007b
:0d2b60000000000000000000000000000068
:202b6d0000002000b0d9b2d42000014664f1b002000d0fd0028040001c41cb2a00000000ab
:202b8d0005333c048000600c01d00000001ef428000000000000030010101014000c014c19
:202bad0000d05f001204098542e0404003c0060fc0000000000000000000000000000000fb
:0d2bcd0000000000000000000000000000fb
:202bda00000008018199bb450000000001ccb0000007817beb8000203c337cbc02000039cb
:202bfa00e071a40c0468022de0101000080ef6bd4800010000000000001fdb3d40004c0644
:202c1a0005eed1220002001b7d60000410079fad10204003000000000000000000000000e0
:0d2c3a00000000000000000000000000008d
:202c47000000000270c7efc0200001c01dac7000000008baffc22002b625d06400000001b6
:202c6700cf0258000211c016a00200005b005c280800010000000000001e3c280000a0048b
:202c87003020d101400500ffa6b800020006430d1000408000000000000000000000000041
:0d2ca70028000000000000000000000000f8
:202cb40000000000000f2e858000020025818020002f9f7a8800000004385ac50302b0f99d
:202cd400ebeaa801000b600eed100c039000d3a80800004000000030299bdb0280800a00af
:202cf4007b683c4a0000000bf2f0280003e01fc2e02000000093c80600000000000000001d
:0d2d140000000000000000000000000000b2
:202d210000000000000972d4040002c01d0b80100049089f28400000024010c5308000782e
:202d41000bc294000011e2dcaa000003d000f83d4000008000000010570ef81f8000011ca7
:202d610043d0b800000590df4190000000600202e000000000968d000000000000000000db
:0d2d81000000000000000000000000000045
:202d8e0000000000800be60d000a11e615e21000002108368d80c0a000000081020038f820
:202dae0099f200400c00e06fc210300800189f1080800140000000000f0097af00800000f8
:202dce007c6b5800000418a53294000001e01cce2128080000000000008000000000000083
:0d2dee008000000000000000000000000058
:202dfb0000000000b00f634c0100a863b7ed10000040007832400000003ec042000000d050
:202e1b00f33468801cc2e21d0d100028001854280000aa00000000028580f81904100014e8
:202e3b0033db98000002910d815400000020000e20141000000000000000000000000001e9
:0d2e5b00000000000000000000000000006a
:202e680000000000199dee85000008020fca5038000f1e5b2910000e842400000000051426
:202e88000f714000000340058f50004000191f344080000000000011078000000000000639
:202ea80078def500029980100000000002f014c3c4300000010000000000000000000000d6
:0d2ec80000000000000000000000000000fd
:202ed50000000080f08972d480001244160cc000000199fab9400001027800000000009846
:202ef500ed0294200003e3df0a009440071d0c34401001000000000800800000000000003a
:202f15003460a0000100b0e00000000003c39c0b8000000d0d0000000000000000000000d0
:0d2f3500000000000000000000000000008f
:202f4200000002008019ef45400a004225c2000000080e53e0d000001c0000000002820074
:202f62000bba00040085400000000010200e9e23c8008140000000004d0f000000004e216e
:202f8200240000000138109000000000e6420000000000500050694000008000000000023f
:0d2fa200040000000000000000000000001e
:202faf0000000300b0b7efc00000000416ab00000101193674c20000660000000000050032
:202fcf00033c00200402600000000000471076e28000a000000000002f0d00000000202cc6
:202fef0060000000028008e00000000000c7000000000000097bd980000340000000000011
:0d300f0002000000000000000000000000b2
:20301c000000000070037615000400069ea60004480b817f18000022263ff9200001000038
:20303c0013ba84000000001ee5f000000b803f480010000000000000601f7e194650201e24
:20305c0006db5e00000081cb6bd500000a07d6d0f4000000007f302000000000000000000f
:0d307c000000000000000000000000000047
:203089000600000008037b68000a0006549a000042018f96e8000000842169a100008000b6
:2030a900dd7880000000000c00a000000300d7284000000000000002b0189ad64050000674
:2030c900395da800800011c30280040000471cc4710000000e0f7000400000240000000046
:0d30e90000000000000000000000000000da
:2030f6000000388018c735880000100037a360201288003b18000e0c9c7cfda540390100c1
:2031160007fe2dc21001e014cdc02003a000b3b180800000000003c007003b3d400e003428
:20313600055a5860380d380febd480e00806c00000000040001265a02e2000000000000242
:0d31560080000000000000000000000000ec
:2031630000000100f0073000000082403e0c60000b8b00da1400000f56386a9a000282000f
:20318300036d08000000003e02a008034f00580e40402b00000001005900d428000000060d
:2031a30021d8da0000000007828000001403400000001003000ba580000400000000000092
:0d31c30000000000000000000000000000ff
:2031d00000001102001363142802e16025cf500813018f3b98c0c4010e03defb1010058100
:2031f0008db6a106101562c6ca009000150c3fd80000a00000000303001d83b14084001c1f
:20321000286dd1101100b8873c7c0040000017ca500000281e3a25a0040000000000000066
:0d3230000000000000000000000000000091
:20323d0000002085f0b3c30000000ae00f0a001428201e10270208440201cd771910007183
:20325d000fba9084000006c10a0010000010db280010000000000310091db43280042002ab
:20327d00000dd10030053801ac5400400003ff0550000013000b2580440000000000000047
:0d329d000000000000000000000000000024
:2032aa0000000005f801b6748100d5e60d8402206018009fbc00004826067e2402003018ba
:2032ca000b6ab806000206bdcc000820070086e8c2406bc0000000000180fe07c0008a1472
:2032ea007a4c5840001071c53ab0080803c64fa0a12010270d7a65a0000c010000000000dd
:0d330a0000000000000000000000000000b6
:2033170000000002180733fc000018023c0d00005221005403c000203d3b50a000003000a1
:2033370087bbfc0000c3400df650001009007314c000af40000000080000b3854000000211
:203357007cc8e510000839094270400402c79f07e00028008b0ae58010400000000000001c
:0d3377000000000000000000000000000049
:2033840000000000b89d789008042e4057e850280823883ba140000000047cc60205067801
:2033a4001db6890500c006b6aab00000000183dc84000000000000000801fa2b0280000638
:2033c400284e3c60002a19f86014800001c767e5e000205f9f7265a000000000000000001f
:0d33e40000000000000000000000000000dc
:2033f1000000020011c30280000002623f043000005f101290c00000002970360002813832
:203411008fb284430400440df07104010008f32c4000000000000002910f54270000801cb8
:203431006c5bb80000a000e3002820000023578a800010078e0a2580100000000000000049
:0d345100000000000000000000000000006e
:20345e0000000000b8d3f880000000038de2000000039e1fb840800a8076deae088000107d
:20347e0087b4410500046056aac020000f1cba81420000000000000008087b3d50004084e5
:20349e00226ca0000000100822c408040a03cdcac00000401c5a25a0400020001cf040004b
:0d34be000000000000000000000000000001
:2034cb000000003878d1ee84000003c43feb000000010f04384000015c39e8ff20c028f8f4
:2034eb0003bc0000000bc3420ac110000310b417c0000000000000100f18582800400d4233
:20350b006c50f5000200100341c8000216c36f99c0000020000b658000000c3800f00100e9
:0d352b000000000000000000000000000093
:2035380000000000f81f68cc8a0a03e3f5e85020000700ba88000100200368200001809853
:203558000bfbec401403c21ee5f000882f80bfd28000060000000010a81e000000008a6047
:2035780000ff5840001000e828b80c000be320ac50200020005225a0000000000000000057
:0d3598000000000000000000000000000026
:2035a50000000000f8c5825800000a479d043000000700b6e84001001c03f97000038170eb
:2035c50095b5dc4008a2e3cc00a000204f0052274000000000000008430e0000000100cc39
:2035e500387eda08003870e30074a10076e4250ca01000100902e5801000000000000000c3
:0d36050000000000000000000000000000b8
:203612000000000059cb6e14000003e38ce6000000001a3b80c00006367258a1020000f864
:203632008b6ab840008203adedc02003485e12a80000000000000001891f00000000060476
:20365200007aa50000008083b0f1880206002efb900000000d5a25a000a000001cf0400034
:0d3672000200000000000000000000000049
:20367f00000000381805a10c000201c39eca008001070033698000a09466c0c100003010fc
:20369f0097abfc600002c00d015080602b10103d48000140000000000d9d000000000002b0
:2036bf003ae055000000100b41d00000a843f7e3808000870f0325880000000010f008003d
:0d36df0005000000000000000000000000d9
:2036ec000000000800eb711c0000c00057f1b00000000a36554000003e61da330004a1015f
:20370c00c37318000002078695840000080083f90000000000000002d001dbd61020011658
:20372c00294f5400001c018fb280000200e3efb5e0000000005a65a80000140000000000ef
:0d374c000000000000000000000000000070
:2037590000000000f103f92000000243f594e00000ad0e928cc000060c3c6dcc000298518a
:20377900ed38e440000047adada10000030e77f60000000000000001800fdfb6840000007e
:203799000379f8000002b0eb43d4000002c3fce6e00000000d0ae5810000020000000000e2
:0d37b9000000000000000000000000000003
:2037c60000000000800839400000000005e4b02018050ef7480000003c7948f00001007859
:2037e600efb48000e009c7c5ef5003a07781138e80800c0000000380071f9756100ec2141a
:2038060007deb0223810d809686008e41000248110200003803a25a800000000000000009f
:0d3826000000000000000000000000000095
:2038330000000000100b0280000000024104b00038101ad2a84000001640700f000080046c
:2038530005654800021423f40a000010798f040e8000800000000102509f9b3682004202b9
:203873003ff050000000100f02bc000200027d0fc0000080800ae58000000000000000001a
:0d3893000000000000000000000000000028
:2038a0000000003050837910081020027de35020400980fa2940010020724a33020002d161
:2038c00083728488d0c00067cab02110281837dcc00001000000030150089fd61020088e9a
:2038e0007e1fd100300000096af048400007a1ad10200007007a25a4000000385fb5000024
:0d39000000000000000000000000000000ba
:20390d0000000000090d42ec20100006160ac000000b0fbc3c000100444160cc000015d097
:20392d000d030800d803c3a700b081298d09de514000a000000003038010bfb940002102ad
:20394d00614be20030280007c19020c0c0003d0e20000000080b6580000000035c2000009a
:0d396d00000000000000000000000000004d
:20397a000000000070b578cc022401401fc4400008018b130cc0800006061de100010280ba
:20399a00896e84000a0ce000eac020100000fe1f8000050000000003801f9b5612000086f5
:2039ba007adaa52000001819bbd4000800604ced102088010d1225a20000000000000000d4
:0d39da0000000000000000000000000000e0
:2039e7000000000008973f30000201e02cebb00018070f743300000c1424c8d2000085715f
:203a07009de480000400001405c210080000fac74000068000000028001b9f368000014047
:203a27004040aa00000000a102800004a0c3c30d100000001d0be58000000000000000005e
:0d3a47000000000000000a00000000000068
:203a54000000029578e3740c00000c06b5c9602400018156614000ac1c016d01000200100a
:203a7400117a8404000ce05cc2102023801cd70280000000000000001f019ff95800002499
:203a940038000000002290e731610000140005ce222000079d3225a00000000000000000eb
:0d3ab40000000000000000e0000000000025
:203ac100000000000101e964000060002f03300000008a5e50c000a0023fef5200001800a2
:203ae100a1ff4000006e638e02e0000181003017c0002100000000005b8dd3a90000001c7a
:203b0100400000000003b8e9336840000803010e211003808e02a580400000000000000022
:0d3b21000000000000000000000000000097
:203b2e000000024538fdf0cc080b00c2a5c330000600019a85c00010ae03d85502000018e4
:203b4e000d7388400100d22e833220038f0033b444800140000000170780d3561000800064
:203b6e00015af16001000003b3d4000920e686ec34201053813a65a040e0200000000000c8
:0d3b8e00000000000000000000000000002a
:203b9b0000000100718dc3300000c1428fb33010000b0e9af500000f4e0240330000030016
:203bbb00d16908e000e0600d0cc000400b000034480040800000002807889b3688004000d8
:203bdb0000cdb02002b800efc14000040800060e20040807ce02258000002c00000000008f
:0d3bfb0000000000000000000000000000bd
:203c0800000004003803a280000e020017fe4008038900b28cc080009e20000000000518e9
:203c2800806b0008080867800000000041891f8f10e0480000000000001cb3d610004140ac
:203c48003248f5000200d1e00000000009e764ea50000008007265a010000000000000001d
:0d3c6800000000000000000000000000004f
:203c75000000000050f04280000a05c3b59b1000200180d0330000014064000000010000b1
:203c95000003000000e02240000000010008302e0010a00000000002871ed3b6840085007a
:203cb5006950a000001d399000000000202797055000000f0802a58000000000000000003f
:0d3cd50000000000000000000000000000e2
:203ce200000000011819eb90080a03e3000000000000010725808002007000000000807886
:203d0200113b18081001c00000000000010800000000af40000000101f80000000008c0031
:203d2200237aa500000050100000002a184200000000001101fa11c000000004000000007a
:0d3d420084000000000000000000000000f0
:203d4f000000004200ed41c8800100c7800000000e8008941a40001000000000000045007b
:203d6f008940d80111000000000000040f0e000000000a800000000c5b8e000000001c24a1
:203d8f0061e0aa20004010c000000001a0238000000000000f337440001800300000000176
:0d3daf000200000000000000000000000005
:203dbc00060000000009aa000000014234c120000005807aa9400088806158550000017067
:203ddc001be97800020003a61a5800214180731b80000c0000000000211e3000200048c09b
:203dfc0073cc5840010001832294000001e040000000100919561f80000000007e7e000051
:0d3e1c000000000000000000000000000099
:203e290000000000500ff800000003e4348d1000000000dc3c0000810002eb690000001863
:203e4900e37d5000041407dca00220300008f6470000010000000000409c0ac00000008050
:203e6900036eda110280100dc2a800000343c000000028010d3f4740000004286b1d00001e
:0d3e8900000000000000000000000000002c
:203e960000000084f1eb638c080615c6ef8c500000138bbb880000032e0418331201000095
:203eb60007a9780004c8e00c99681000a000f6af0080014000000003a8005a65a01e201e8f
:203ed60003cc7a503a01001773d400e000e75c8a448000471d7fbd400e000c78de8802004f
:0d3ef60000000000000000e00000000000df
:203f030000000102110f030c000a08228fb5300040208a1b9c0000009c3c00330006bc0056
:203f2300016aa0000a042242c96000004000f02600000080000000204b000ae580004000e8
:203f4300005aa10000380099828000000007bd8fd00008001e18280000420041703f0001d4
:0d3f63000000000000000000000000000051
:203f7000000000070181a8140004c1c021a05000104019b3b0008040207c0a1b0040008148
:203f9000e3baf0080034078e896900129000f3128000000100000020100e7265a40c0200d2
:203fb000024c5840003880a3a860280a19c707e0010080038f0322c08c00003800000000f3
:0d3fd00000000000000000001000000000d4
:203fdd0000000005f0f103e801080362d500a000088008f4348000001c7adb270000093007
:203ffd000982600002600402b96000080900bbdb80000a000000001127100225800c0344c5
:20401d00037eda0800001193817c000a0c240eaff00003808d5411c00cac24400000000047
:0d403d000000000000000000000000000076
:20404a000000000000077e000000004385a2100000018ab73c0001006605cc600000000041
:20406a000932ac000211e00e99680402859e732f0080000000000000801b3265a40000002c
:20408a0027de7a4044829003ee9581000240000000001001801eb88080204001e8a0000068
:0d40aa000000000000000000000000000009
:2040b70000000028b0ed640000000007cda1d0000080107803c00103a63d4ea0000018f0d3
:2040d70095302c0000082202b96000100080502600000c0000000028001f0b65800000004a
:2040f70036caa10105281009ba686400006000000000280b0008388000020002d0f500001f
:0d411700000000000000000000000000009b
:20412400000000000001ae840000004004e3302010238057a58080000022dce1020080f8c9
:2041440007bb88880200e00c89680028091c17a8c4a00c0000000000081f1225a0400614d6
:204164002afee560001800a17280000a01e007bd1480000f9b3622000000003cf8e20300c5
:0d418400000000000000000000000000002e
:20419100000000187007ff4400080022570cc00008500c0c258000861c7d70c001008918e9
:2041b1000043886100000280e962000003000028c400200000000020030e0b2580000f02f4
:2041d1006f5ea4010000100183e800048043f4af0380028b1f320fc0000e007420e20000c2
:0d41f10000000000000000000000000000c1
:2041fe0000000040001b2bc48800a0603fc330202858017ea580800120627a6500407410b3
:20421e008000000000214784896800200f00df00c08020000000002200081225a400000ea2
:20423e0021dd3c40030251a7bbd40000046035be248004000013b44080000021dce2620093
:0d425e000000000000000000000000000053
:20426b000000000000cf43c080000022a50cc000108b0d0425800000ac034dc0000602f940
:20428b000000000010f40642e96200100b083816404000400000000020100a258000003636
:2042ab00014bb8010200909902800000080006cc33140000001c20400000002c10e2010085
:0d42cb0000000000000000000000000000e6
:2042d800000000009005ba580800c00045c8d02080038116258081417e025ae40200000019
:2042f800900000000010c75c9968002b271e000000000000000000100000523c2002081c8e
:204318003bee5860000070a3e860080000601cc2a00003001e5a3d4440005e2000000000a9
:0d4338000000000000000000000000000078
:204345000000000058000258000000020008d00001218e04258000a0bc00e0720001003193
:2043650080000000000be702996008004f49000000002140000000088f00003c040080343f
:20438500274eda0102850103817c000ae3426c81f010000000d42800500082000000000056
:0d43a500000000000000000000000000000b
:2043b20000000000809b778c000000623ecdc000480d0fde2940020200006ca1000801904b
:2043d200000000000410601c89688000700000000000a00000000012a7007a3c2002001415
:2043f200000000000080d0e1faf00800a000359d140000030800000000001c70000000006b
:0d441200000000000000000000000000009d
:20441f000000004011c76f0c0000002007a2a01054451a9403c0000100037e20000048b0cd
:20443f000000000001082002996000447309000000004d40000000244000003c02001046f4
:20445f002c0000000340f80dc1902001c04247ff029005a00000000001122600000000009f
:0d447f000000000000000000000000000030
:20448c0000000000381728e8040028e025caf1000300183aa000000140017e600000280088
:2044ac0001ea15000800e254896804125008b3940000008000000000001e3225a800015618
:2044cc006e5c59600002800be961000006c045f0d400000b803ea0d400000000000000006a
:0d44ec0000000000000000000000000000c3
:2044f9000000012008eb6cfc000a15e005005014000f0ef2400400000020dda0000000d0ff
:2045190003bb6800021027c0e96040090000382bc00001400000000000000be58b008480ee
:204539002b4ea501003c3007fb68240020e39dc8f0804001007e34c60000000000000000b8
:0d4559000000000000000000000000000055
:204566000000380000ed3e8520020202bdc1b003a008009bb180000074784e85023a383916
:20458600eb6c4400000206cc996808100d9ebe4a0000010000000060200c5225a40e0176ad
:2045a6007dc97a40780080c9716100f000078db5840382a380fe3d40102000000000000052
:0d45c60004000000000000000000000000e4
:2045d3000000000000052e9c050402c417c8d000200100374d800000ac43e0433002000111
:2045f300017c80000003c740996000080f8e12fac0000680000000405b000ba5864000148c
:20461300295ca110000011053368201003c00ebda08000408c142804400000000000000175
:0d4633000200000000000000000000000078
:20464000000014021985ea95011201728dbc008068180836f8902100002af920001280009c
:2046600007b8e808083c07848968040b8001020cc080600000000010530c1225aa0cc00071
:2046800062e85848310138bdf9612040620016d5848108200097bd40300000780000000099
:0d46a000000000000000000000000000000d
:2046ad0000002504f09bba68000000243cdf3000428710d330c8000000007ab00022a8f020
:2046cd000300fc200002c742b9600038000f040cc000a0000000002020800aa582240004ba
:2046ed0062feda00120018cf7b94004016c01dcda0020050085428000000004000000000b5
:0d470d00000000000000000000000000009f
:20471a0000000084b08320100000e20004c60200000001f7e84000066e021e9620013181cd
:20473a00c3681400040a001e8968001005817b1b800048000000000020000265aa000000de
:20475a0023d858400280000f3161000001c01df5840000c39c5fbd40202100014cf50000f4
:0d477a001000000000000000000000000022
:20478700060000001085f2200000f0401dd5001000030eb7b802400cbc2ddc69000098306f
:2047a700004014000215c002b9600808008cf70b0000a040000000004000025a4a20000028
:2047c70040ecda08010090c5b368000400620ebda000122189d41402504a0000f0a00800aa
:0d47e70000000000000000000000000000c5
:2047f4000000080c901878142200e9634f8e500008c91e568840004e0602dea50000188044
:20481400abe0000000e00016896800000b89bf2f08d00c0000000002870e3a65a000072ea1
:20483400075858404218f01d3961000008e7c7d5850000100e9ea80810001c0000000000c4
:0d4854000000000000000000000000000057
:2048610000000200f88d40280400140315bd300010898e1674400024243fc0f00000801172
:204881000db200010009c00099600800018eb4260200000000000000079003658a40008ccd
:2048a1003eeeda00002878f7fb6804000426dfcda010200110303e80000c0038000000000a
:0d48c10000000000000000000000000000ea
:2048ce000000000001c77bc5080000e31dc330300007087b98c88000003dfcc502020131f9
:2048ee00eb6c048000000006996800502f1dde2bc010000000000000278f3265a000014421
:20490e0022d8e540001881c9aa94020003e7859e560000001cdf3d44400080000000000029
:0d492e00000000000000006000000000001c
:20493b0000000000010101c0000000038f0cc000000b900418c000000061d0a301000200ed
:20495b000170000000a003c2f9620000518e90014000080000000040100d03e58a600182a1
:20497b0064dca4000000f00941540000c5c40cba40000209191c2800100140000000000062
:0d499b00000000000000000000000000000f
:2049a800000005017001aeb84400100680000000080f8832384080c01c047af000050738e1
:2049c8000d320408100be004996804101000d3a940800000000000000f9c32154000000ee4
:2049e80071f8f5200000f0bd7b95000800e395d584082803801b3d40000040000000000010
:0d4a080000000000000000e00000000000c1
:204a1500000000029009bbfc24002840000000001023900c384000e00623500f000488f870
:204a35009f42808018674000d9600020090f381d00000000000000005f0000154a400e40af
:204a55004350a0000000f9e73a90220400241ccda0801000003414025000800000000000e7
:0d4a75000000000000000000000000000034
:204a82000000002a181b6890081000000000000000090833314080a074380000000288108c
:204aa200e17b18480000070680f1000b87001b3880a00bc0000000038001f601400000002f
:204ac200000000000282b9d7a83d000011e04000000000130e000000020000000000000186
:0d4ae2000000000000000080000000000047
:204aef000000000100cb02800110000000000000000b807414c04000be2000000000289897
:204b0f00ff00d8000000025c0f00002300800838800000c000000000000fb017c20008146b
:204b2f0000000000001b79f3391c2000c8230000000000001e000000000000000000000061
:0d4b4f002000000000000000000000000039
:204b5c00000000000015a9c4000001e001b800000000009fd8c000011c065ea500010000bf
:204b7c00f5b280800e16001595b400810009763d400001000000006000011f1b800100bc9a
:204b9c0003cc5840000001fd228100000067bde3a000000101d3df80000000000000000016
:0d4bbc0000000000000000000000000000ec
:204bc90000000000d0ed30ac000000201d840000100f009e270400000239c0550000000139
:204be900c0c280000081c02cfa100410001f342800004000000000101d08d64700000b3ec9
:204c0900036ada180000f1e343e8040000079d93900000008c9a8b804000000000000000f1
:0d4c2900000000000000000000000000007e
:204c36000000020071e068cc0a000e000eae502000011d9e7800100086065af500003081c3
:204c5600e97ce800e407c7b6e7f00011001edb028080a200000003808981ff2f008e8080bb
:204c7600337de54038018001ebd50000c1c01eab9020005700000000000201380000000043
:0d4c96000000000000000000000000000011
:204ca3000000000009e000cc000001c3ff0f1000000f9bf6684000004339e0a0000080b0e6
:204cc30005f0e400080ae65ff250000845007c1f8000a140000000000788d41902000d6427
:204ce300025aa400420270050280800808002f03800000008f0000000004000000000000a1
:0d4d030000000000000000000000000000a3
:204d10000000000000e068e80000006605c85000400d809a98c080002465ea0a0200000012
:204d300019faf0084020026cf2700001500837280000000000000310000b06bc180c469c8a
:204d5000755c0a001000000533d50004000284d1f00000000936f0000000000000000000d1
:0d4d70000500000000000000000000000031
:204d7d000000000071fd30d4040006602cc47000400f803827000042062d607e0000000059
:204d9d00d3c19000c001c78492b00000090f343d40000000000003010018003c0a4c81404c
:204dbd003c705f001000b00f0140840a00000ed1500000000dd73280000400000000000064
:0d4ddd0000000000000000000000000000c9
:204dea0000000280580f2a04001001401f8f002040181e7b98c880003e034cbc020020181f
:204e0a00f1eb888d000067b6e4512011a11e9fc804004a40000000130800d60f8000002eb2
:204e2a003178d102010658013295400840002deac02000010082344080214c000000000062
:0d4e4a0080000000000000000000000000db
:204e5700000000001805f2800000e022550f201002a3103424c000017e3f5098100015106e
:204e7700f00388270002442408f08428119032a840002400000000080b0bfac9800000ae7d
:204e97000020d1090002000b0154000200000709c0000290cf14388000400200000000015d
:0d4eb70000000000000000000000000000ee
:204ec40000000080100be0cc0800e2623dc5001000151c7315401003400578a0020280003c
:204ee400cd24e8000a024015a2a000080701da8800000e00000000105f805baf0080aa0689
:204f0400037e3c420007f8877bd5800003e605ec50300001009391c880001e000000000053
:0d4f24000000000000000000000000000080
:204f310000000000780903300000c2c3ef0af000008010f02a800000003dc04201000001d3
:204f51000bece40000004346c2f00010878876dc005006000000000807003c2600004002b0
:204f71000340b82082873503c280000001e7c00c5088080000b43440400c02000000000078
:0d4f91000000000000000000000000000013
:204f9e00000000043813a0cc0c0001c616a9603000058016f008000020026ba1000228101b
:204fbe008f7af0080400022f83502018778e13a3400040000000002b000e3e3448a08a80ba
:204fde003feaf52102ba00000000000a000000ec00a0015000000000004020280000000049
:0d4ffe0000000000000000000000000000a6
:20500b0000000002088dc3304000202341096000000900b6bcc000061c007a200001029044
:20502b008b8190000883c02d039000203f905a638060204000000038071f04344a4044006e
:20504b002570a00003059000000000088002010c000000090e00000000000c40000000007e
:0d506b000000000000000000000000000038
:205078000000008011e06384000011470ccc000438070a1f384000001407ca9602013c01f1
:20509800e00000000a1066000000000081803eab0080000000000000011e36a28000800037
:2050b8003858a342003c01e0000000000003800000000000000000000000002af8a50000fc
:0d50d80000000000000000000000000000cb
:2050e5000000000008017b4800000826d6ff3000281f8072b00220020030f03308028000c2
:2051050000000000000fc780000000010900002b0e20400000000000008817b940000e00eb
:205125006010a300403a00900000000003440000000000070e000000000a004170550040a1
:0d514500000000000000000000000000005d
:2051520000000000000000000000004026ea000000590083a80041a62400000000000878de
:205172008000000000400200000000000181be8800800800000000002101000000000c20bd
:2051920070000000010200100000000021c7c000000000600000000000208001dca501004f
:0d51b20000000000000000000000000000f0
:2051bf000000000000000000000000203400000000538b70140001000e38000000000001d2
:2051df00f0000000000a440000000000070ff00008000c0000000003c08a00000000802467
:2051ff0040000000008100c00000000402638000000021000000000000060000e0550000ca
:0d521f000000000000000000000000000082
:20522c00000000025009628400001207a5f4700000470077c8000000006a688d000402d044
:20524c001dfa6000001002eea3e000000781ffce80004000000000000f9e530f8000404024
:20526c0039c8f550000071cb79610000014044af5400000800b7bd5800000e3a6af5400083
:0d528c000000000000000000000000000015
:2052990000000005088d7b04000080441ff8400000200077684800000042db8e0005207832
:2052b900893794000420c39e92600000000c578e40000000000000000900db86400020000f
:2052d90024f0a00000000805eb68020203e3540a0100000b0ed0280200000020e0a00100a4
:0d52f90000000000000000000000000000a8
:2053060000000000f9abff94000000e3bfc200002200013718c880802c027fa1000038012b
:20532600e8234429000a000eabc223c120017aaf0080080000000383458102bc1c0e261c3e
:2053460002fef5403808f81b356120e0d2000d8f540393811f0000000e000e70fef5400072
:0d536600000000000000000000000000003a
:2053730000000000b909a3000000e02037da100010090a181b0000400c03cec100108001cf
:20539300fd4388610091c01f064000005f0b78190000004000000000208b003c0a004502a8
:2053b30000d0a0000005b0edab6800000242f70a000008059e0000000000004040500800ed
:0d53d30000000000000000000000000000cd
:2053e000000000040189e600000000023f8c002000071e7fc80200010032eca500022e18d2
:20540000e7f26000000347afa18003080f0052ce80004000000003280398171b84044c3e35
:20542000016af54030007889bb952044c0e057cf5403030380f63d5004003e025cf54000ec
:0d544000000000000000000000000000005f
:20544d00000000001007740002042000350d200008009077684000000003ffc00100190594
:20546d0001f794000003603ce5f0031a0f8c964e40008000000003100f0bdb8700040a3ee8
:20548d0000c0a0007000d9856a90044801e3970a0011000080d0280404002e00e0a01000b7
:0d54ad0000000000000000000000000000f2
:2054ba0000000000008bf8cc001006c364cc0020205b80daa14090000000ee01020100f131
:2054da00f7ad28000a480054cbc0200b079e9b2e40802000000000300000002956004aae95
:2054fa0002caa0404000b8183f900000000015ca040001091fdabd5800008e02eaa050089a
:0d551a00080000000000000000000000007c
:2055270000000000300571a400000863140f3080208d80b010c010000002c0c1000200f0aa
:20554700c7a674000413c3dc064004100080b00e0000c6000000003b000050168240201eae
:205567000040fa010004f8db3b60800010424d0fa10000531dd814000000020040fa080008
:0d5587000000000000000000000000000017
:2055940000000002580fab0009040006afc2000080038000000000000628ce80030080005d
:2055b4000162b04802166020cd12ac20098003344880000000000010758096128040000044
:2055d40000eea04800008193aa940000004035ea04040005010000000000003adef54000d5
:0d55f40000000000000000000000000000aa
:2056010000000014000183cc0002034415ba100000008e00000000000000108000000000df
:20562100fd41b0000009c0040e211400890070388640080000000028700892e74000041cf3
:205641003bc0fa01000071d781540400c0420f0fa00000008f00000000000040e0a0100013
:0d566100000000000000000000000000003c
:20566e0000000000001ba19400006a4244c330200009181a80c00080a0600000000380004b
:20568e0085eb8828000163c007e024000008073c141080c00000001027008331400180a4ae
:2056ae0002daf540010200b3e3d4000411c714cf560000000092281000820404faf54000c6
:0d56ce0000000000000000000000000000cf
:2056db000000000090f9ff00000005c2bc0cc00000038e1b964001045c740000000300512d
:2056fb000083880004a003e40bd000080f00003c00000a400000000a408036728041ce2c54
:20571b0000e0a020828400d5c2800402a2663c050000000000943d4050c03c37e0a001004d
:0d573b000000000000000000000000000061
:20574800000000001018618c08000000778aa014000788db234060201e240000000100805f
:20576800000000000801c017c3a00008474897d78000000000000003818e02bc1a404000ef
:20578800200000000000589922942004e00017cf54001000009ea810400000040000000052
:0d57a80000000000000000000000000000f4
:2057b5000000008000f7024c000022422e0a508000071013e3880002006400000000203058
:2057d500000000000402600793900003278076ea00110000000000000310003c0600803cf8
:2057f50060000000001801e74154000a0002140a0180080b00583e82000000380000000091
:0d5815000000000000000000000000000086
:2058220000000280789560cc080002e257c21030005801ba814080a00e280000000000013b
:20584200c0703c000a28438000000000298800000000424000000002a000132940400dc087
:205862007000000000005801abd422000400058f54002000009e3d5400002e000000000053
:0d5882000000000000000000000000000019
:20588f0000000300088583300100f2e61e01d100032b0d3c1088004014200000000000f179
:2058af00f0003c2004800000000000039d1e00000000808000000000c0007415400001c001
:2058cf000000000002b890fd414002021003f40a01000101009828000006260000000000ed
:0d58ef0000000000000000000000000000ac
:2058fc0002000000800b2f50000000405def0000280000da88400000007808a0000080008a
:20591c00efee34000003e02fae2000002000ffaac00082000000000007801f3d5000001428
:20593c0007dfa44040008019f38940000002000000000000000000000000000000000000ea
:0d595c00000000000000000000000000003e
:205969000000000830e36c5c000001c2a700f000130f0a73074400000027d0501001010599
:205989009d62380000c1c00ee4230001010b5741c0000c00000000000f0030280410001431
:2059a9002b5ae52800059099f30c24000004000000000000000000000000000000000000f7
:0d59c90000000000000000000000000000d1
:2059d600000000007017ec8000000146bdae40303a900b7e8c000000a0015ca00000000020
:2059f6000133882ae403c00eee242010601f72b440a0014000000382858e1ebd501e004cc1
:205a16002b6ff1587b0000a0000000e00003bf87d3001100000000000000800000000000e5
:0d5a36000000000000000000000000000063
:205a43000000000008dba2840000e0041707200008000e57a5420000440010a0010000903f
:205a6300008388640a01e3030e2000000f1e0c34444000c00000000000997c2802004e80d7
:205a830043e87001000000c00000000000c40c98200000000000000000000000000000001f
:0d5aa30000000000000000000000000000f6
:205ab00000000500008d6a840800100681c332201008009f154000a006056aa000000000e1
:205ad000f12900084003c205918000000f99d2c6c00001c000000128591e73bd5200400056
:205af00064f9a54800008000000000c0140000ed14200008000000000000002000000000af
:0d5b10000000000000000000000000000088
:205b1d00000006800083c3042000c00401033000280f003e4cc000403e3c00a00000810024
:205b3d00efc30840c003e0049af000018d8e1a45c0000080000003102f80541400008000b8
:205b5d0022cb9a1800001000000000c008002c0e201003890000000000000040000000007b
:0d5b7d00000000000000000000000000001b
:205b8a000000000031fbbb840020a3c760ea0200004d0e9758c000014000f8e102829281ff
:205baa00f7b140a2084a66b7abc020004581d6ab0080a00000000001800c000000004c8c8b
:205bca006040a500000570000000000000000000000000204000000000001e000000000083
:0d5bea0000000000000000000000000000ae
:205bf7000000000000fd2f00000000436c050000000310571b0010008401e0c00100109152
:205c17009743e8440000441d06400010298f9027000044000000000000000000000081007c
:205c3700406b6600028000e0000000080800000000000001000000000006020000000000c1
:0d5c57000000000000000000000000000040
:205c64000000000019c3bd10000a100007bc500000250a33078080803638c8a0000000800b
:205c8400076980400000602eaa333800010e331802000a0000000010270013a95020a020a4
:205ca400074ea000000080072a94200080002f9a000000200000000000000000000000001d
:0d5cc40000000000000000000000000000d3
:205cd10000000000000d25dc0000000005ca300000470004078000062c0010a00040009022
:205cf100adbe80000000001c0031902920987a1400400080000000084f00f0154041415c22
:205d110020f0fa000020100181540000e00385da00080040000000000000010000000000d7
:0d5d310000000000000000c00000000000a5
:205d3e0000000000301170cc8c0002079fa2100000090906e58010a000295c8000028480aa
:205d5e0000000000205143c6aa500053d81e13c800104000000000000780b3bd5000800e68
:205d7e006cea0a02020500900000000009c72f9210000100000000000044007800000000ae
:0d5d9e0000000000000000000000000000f8
:205dab0000000000708fc3300000024006e2e008281909331a400040002a5b0000000050e8
:205dcb0000000000004863cc055000202f00baa84000800000000040000090140060415e98
:205deb0029f0bd000030018000000008000226ce20000000000000000000000000000000f3
:0d5e0b00000000000000000000000000008a
:205e1800000000049997fb9000020066c7e3302800000086a80001002020eae30200000003
:205e3800e00000000201678000000000019ebed28000008000000002a78837bd582000268e
:205e5800007cbc0200000019ef89000016079fcd10a000001856a94000a02001dddc000055
:0d5e7800000000000000000000000000001d
:205e85000000000070efa2c400000246b60cc00000970090140401008c4260c3080084357c
:205ea500f0000000040024000000000100503e5b80000040000000031f1834280000000481
:205ec50028f06408000000a9f70c820009c4030d1098000010f0154800402c035a2a08002e
:0d5ee50000000000000000000000000000b0
:205ef2000000000000900000000a020245a330200083807e280000000e01ec850300003856
:205f1200e7f280040a01e000000000201001000000004800000000000000132952400c1eb6
:205f3200005ef508011600016bd40000c1e20dee242010000000000000008000000000002b
:0d5f52000000000000000000000000000042
:205f5f000000003891a00000000400c63f0cc00030000004280010010202c04300000091df
:205f7f000082800004006000000000282f0800000000868000000000000950154200a102e4
:205f9f002740a000000200058280000a0826030e2000090000000000000000000000000060
:0d5fbf0000000000000000000000000000d5
:205fcc0000000000000be594200410663e1660080057185a48000020000079ca0000000067
:205fec001f75f8000001e044ad10000007985aa9400000000000000005185b0f800000340a
:20600c0004f8f500003018e97bd50000e40040000000000b18de1f8000000000000000003e
:0d602c000000000000000000000000000067
:2060390000000000b003230000020022ae8c3000008700fe684000001c005ca3010000009a
:20605900dba4b804004003c0ad100000098f9c2a8000010000000000500fb2c640400024d2
:206079003c40a00000000907428004000803c0000000400180da87400000000000000000e8
:0d60990000000000000000000000000000fa
:2060a6000000000090086a802004020294e200000008001aa9400000142b4bc6000600b8a1
:2060c600df75940000b0006d80a02001871e13eac00001000000038020001e3d500e04941d
:2060e60001eaa00039027017e3d540e4000000000000010b80363d40000000000000000032
:0d610600000000000000000000000000008c
:2061130000000000f80501400008e04037da100800070e702a800000fe01dc3600032c70fe
:20613300f53f0004000943dd0bd000081000f681c000048000000000030978280201016627
:206153003f50f5000004089941404000000280000000000309742800000000000000000018
:0d617300000000000000000000000000001f
:206180000000000078e56484000000e7a4e33020000f01328600800014674da500000070d7
:2061a000affd94001a0563f5cbc0a000000b063146a0400000000100570b1228020c0000ea
:2061c000605e5802300000ebf3d50060a000000000000007883eb440800000000000000083
:0d61e00000000000000000000000000000b2
:2061ed0000000000f99d3b44000014038c0cc00001038e7c17c000003c605de50000000447
:20620d0001ab00001409e7be06400000201ed4328640208000000100009ed43d40040a1cf9
:20622d0028c05d101000000b41402040000000000000000180083440000000000000000003
:0d624d000000000000000000000000000044
:20625a0000000000180b0198080a000735ac5020001f8fdb2f02800e1505eee10201019039
:20627a0000298c0820600044aa020001d5093ee34620014000000000070176bd5000a800fd
:20629a0001cef540001a008f7bd5400000000000000000018e06b880800200000000000058
:0d62ba0000000000000000000000000000d7
:2062c70000000000d007830c00040142f5053000000d1ffc19003000023410e100000098b0
:2062e7000b424c00000002870f5000008f8b1b638000008000000020058e782804000040e7
:206307000150a0080030f003c280200000000000000000110e103440000000000000000253
:0d6327000100000000000000000000000068
:206334000000000000a33a580800120697833020000808d6e7c000a10639cce102000078f6
:2063540087fa800000420656d80200000781832b08a0008000000003819d02b90000002056
:20637400034ea00100000009ebd50000000000000000001100d7a2000000000000000000c4
:0d63940000000000000000000000000000fc
:2063a100000000000090c25804000b46cd0cc00000210f5257c00040800020e100000008e2
:2063c100004280040001c6afe00000000008d0170840014000000000500f76f60200000457
:2063e1002460fa000000708702804400000240000000002300d20fc000000000000000005b
:0d640100000000000000000000000000008e
:20640e000000000078012b840800140004ce4020000000133300c00034025a330200801895
:20642e000d2014020021e01f8a02002281085b5800000000000000015001bb178000001647
:20644e002258f5000088388db3d5000000070000000010000ebab440800080000000000017
:0d646e00020000000000000000000000001f
:20647b000000000090000384000002c2e70d8080000000101a400000272640cc00810410da
:20649b0091400001000000000a00081040199f140440a14000000000190fdf6a0200000049
:2064bb0003d05020078008f382808000000000000000000100d41080000000000000000015
:0d64db0000000000000000000000000000b4
:2064e8000000000005c5a99808000206d6f3300008290c0000000000006c0b9600010070c5
:2065080009b3440e0a000016da120010010e9a080000200000000030050900000000003efc
:20652800221ee420000001e000000000000000000000200000b23d4a400000000000000095
:0d6548000000000000000000000000000046
:2065550000000000009f4198400002c217bcc00000478000000000004033de690080800096
:206575009f82806000a0002fed100008001bd7a84200000000000000010f00000000001431
:206595004259d8000000900000000000000000000000100100142802200000000000000074
:0d65b50000000000000000000000000000d9
:2065c2000000000078000000000000004000000000000000000000c00403ee440080050182
:2065e200b1aa8408000847800000000180015b5a40000000000000000000575b800048a64c
:20660200725ef500000a38c7abd5000028002d8f56000020000000000000000000000000d0
:0d662200000000000000000000000000006b
