:02000000ff00ff
:080002004c6174746963650030
:17000a00694345637562653220323031372e30382e32373934300069
:16002100506172743a2069434534304858384b2d435432353600ff
:1b003700446174653a2041756720313520323032302031323a35323a3032008f
:0200520000ffad
:040054007eaa997e69
:02005800510055
:02005a0001059e
:03005c00920020ef
:03005f00620367d2
:0300620072011018
:0300650082000016
:02006800110085
:02006a00010192
:20006c00000000000000000000000000000000000000000000000000000000000000000074
:20008c00000000000000000000000000000000000000000000000000000000000000000054
:2000ac00000000000000000000000000000000000000000000000000000000000000000034
:0d00cc000000000000000000000000000027
:2000d900000000000000000000000000000000000000000000000000000000000000000007
:2000f9000000000000000000000000000000000000000000000000000000000000000000e7
:200119000000000000000000000000000000000000000000000000000000000000000000c6
:0d01390000000000000000000000000000b9
:20014600000000000000000000000000000000000000000000000000000000000000000099
:20016600000000000000000000000000000000000000000000000000000000000000000079
:20018600000000000000000000000000000000000000000000000000000000000000000059
:0d01a6000000000000000400000000000048
:2001b30000000000000000000000000000000000000000000000000000000000000000002c
:2001d30000000000000000000000000000000000000000000000000000000000000000000c
:2001f3000000000000000000000000000000000000000000000000000000000000000000ec
:0d02130000000000000000000000000000de
:200220000000000000000000000000000000000000000000000000000000000000000000be
:2002400000000000000000000000000000000000000000000000000000000000000000009e
:2002600000000000000000000000000000000000000000000000000000000000000000007e
:0d0280000000000000000000000000000071
:20028d00000000000000000000000000000000000000000000000000000000000000000051
:2002ad00000000000000000000000000000000000000000000000000000000000000000031
:2002cd00000000000000000000000000000000000000000000000000000000000000000011
:0d02ed000000000000000000000000000004
:2002fa000000000000000000000000000000000000000000000000000000000000000000e4
:20031a000000000000000000000000000000000000000000000000000000000000000000c3
:20033a000000000000000000000000000000000000000000000000000000000000000000a3
:0d035a000000000000000000000000000096
:20036700000000000000000000000000000000000000000000000000000000000000000076
:20038700000000000000000000000000000000000000000000000000000000000000000056
:2003a700000000000000000000000000000000000000000000000000000000000000000036
:0d03c7000000000000000000000000000029
:2003d400000000000000000000000000000000000000000000000000000000000000000009
:2003f4000000000000000000000000000000000000000000000000000000000000000000e9
:200414000000000000000000000000000000000000000000000000000000000000000000c8
:0d04340000000000000000000010000000ab
:2004410000000000000000000000000000000000000000000000000000000000000000009b
:2004610000000000000000000000000000000000000000000000000000000000000000007b
:2004810000000000000000000000000000000000000000000000000000000000000000005b
:0d04a100000000000000000000000000004e
:2004ae0000000000000000000000000000000000000000000000000000000000000000002e
:2004ce0000000000000000000000000000000000000000000000000000000000000000000e
:2004ee000000000000000000000000000000000000000000000000000000000000000000ee
:0d050e0000000000000000000000000000e0
:20051b000000000000000000000000000000000000000000000000000000000000000000c0
:20053b000000000000000000000000000000000000000000000000000000000000000000a0
:20055b00000000000000000000000000000000000000000000000000000000000000000080
:0d057b000000000000000000000000000073
:20058800000000000000000000000000000000000000000000000000000000000000000053
:2005a800000000000000000000000000000000000000000000000000000000000000000033
:2005c800000000000000000000000000000000000000000000000000000000000000000013
:0d05e8000000000000000000000000000006
:2005f5000000000000000000000000000000000000000000000000000000000000000000e6
:200615000000000000000000000000000000000000000000000000000000000000000000c5
:2006350000000000000000001800000000000000000000000000000000000000000000008d
:0d0655000000000000000000000000000098
:20066200000000000000000000000000000000000000000000000000000000000000000078
:20068200000000000000000000000000000000000000000000000000000000000000000058
:2006a200000000000000000000000000000000000000000000000000000000000000000038
:0d06c200000000000000000000100000001b
:2006cf0000000000000000000000000000000000000000000000000000000000000000000b
:2006ef000000000000000000000000000000000000000000000000000000000000000000eb
:20070f000000000000000000000000000000000000000000000000000000000000000000ca
:0d072f0000000000000000000000000000bd
:20073c000000000078e7f17c000001c01dee400000550097a844000000385ba100000001b8
:20075c00e00000000040039ff8b20000071a5eccc00000800000000000001ea800000000c0
:20077c00017eaa000018701584020000000017e7100000000000000000001e00e100800084
:0d079c000000000000000000000000000050
:2007a90000000000d100017c4000034014f7200000208012f04000002403ea100000000031
:2007c900000000000803400ed84000000000b6ccc0100000000000000000bbe4000001406d
:2007e9003800aa00000008a020000000004227cf0000000000000000000000000e00000000
:0d08090018000000000000000000000000ca
:200816000000000080076b8c0000006056cc0020038f88fe3500000020784cf500000290ea
:200836001bb01400000006ced7100003238036280020008000000002000e3b284080010030
:20085600705afa000200b1e500020000100040000003820000b31004000006706000800032
:0d0876000000000000000000000000000075
:2008830000000000d001f30c00000002870f3000000b9b3f0ac000001427d0a00000043827
:2008a300cf83e8000001c3bfff0100005b80082800000100000000000000d0308004081cc4
:2008c3000160050041003100ac000000080300000000000000fa8000000034400b0000018c
:0d08e30000000000000000600000000000a8
:2008f00000000000008f2f84000000c296a9602000000b1ea584800000026cf1020000787a
:20091000193680800009639ca012000028009a2940000100000000000809b3280000003e68
:2009300020dcaa00000080a10002000060039fc2b00180001800000000008401c10080000b
:0d095000008007abd4800014000000000000
:20095d000000000071b7a30020000006dd0cc00000001c00258000000000e070000228d0d5
:20097d008df98000000003b58c1000000f00743c000001c000000000411877d80000011cbb
:20099d004030aa00001c51b024000002200006ce8002000d000000000000402c0b000000e3
:0d09bd0000f00003d400000800000000005e
:2009ca000000000051e76b8c00000007afec6128000008b7e84000003e02d8c002003000c2
:2009ea0089b2844800016035af302000010c060cc880000000000000001e3b3180a0003c04
:200a0a00000000000000f1d784020000000000000000400000d3495820e00028e000800042
:0d0a2a0000000000000000000000000000bf
:200a3700000000007901f30c0000034007039000000f09de744000001e3f40f310000001fe
:200a5700074308200000002400c000000b0c000cc0400000000000000900500e4000003e21
:200a770000000000000031e0a0000000480240000000422000ffb94060a000402800000062
:0d0a97000000000000000000000000000052
:200aa4000000000070052390080000001de3300000238a733c4080043e03fc8000029299c8
:200ac400f53814000400032eda000000039db2ba04000000000000000b1e77a2c020000090
:200ae40070000000000000018402000201e7000000000008097f815c40000001e000800003
:0d0b040000000000000000000000000000e4
:200b110000000000980dc2c400000002d4fcc200000009f43c0000060435ff00000000315d
:200b3100ff43d4010000c2cf8600000007983b8ac000a000000000000f9d72e100000e00a5
:200b51000000000000110000b000000401c00000000000071cb43d40100014380a00000044
:0d0b71000000000000000000000000000077
:200b7e0000000000100168cc0800014064bc0000000500dbb9008000003ef8e30200000174
:200b9e0089fa800804e003c6cf510000080cb7a840100000000000000f80b36800200004ce
:200bbe0079f82b00000000070002000001c06580f0000000000000000000b405cd0f8000c7
:0d0bde00000000000000000000000000000a
:200beb000000000008070330000000020dff3000000500581c800000146270c300000000c8
:200c0b0081c200000a01c7430f5000000300b608080000000000000007009b18000000028d
:200c2b0041edd42000009000bc000000c023df05500000000000000000016e34380f00003a
:0d0c4b00000000000000000000000000009c
:200c5800000000000085f8d8080001c21fc33100000188d3e34000000073fca100000000ba
:200c780083b3948800000000000000000700b2ba0010000000000000291cf30ac000000085
:200c980000f95e00000001f58402000000000cc4a00000000033aa8000002039c000800003
:0d0cb800000000000000000000000000002f
:200cc50000000000918340cc00000140368cc00000071a9f06c000000065ffe20000000060
:200ce5008583c400080343c00000000000803b8ac0000000000000001b89defa0800202448
:200d05003f5f8900000001c0ac00000008002689d000000900082a8000003c682c00000028
:0d0d250000000000000000000000000000c1
:200d3200000000009000000000000366ff8a102000001c83f844000c040000000001009073
:200d5200e9b318000406004cc6520000050e3e894001000000000000290056894000002ece
:200d720071eabc02000000a580020000020075cb9020000801b3440040001400e10080007a
:0d0d92000000000000000000000000000054
:200d9f0000000000d8a0000000000142850d000c000f105234800000023c000000008050a8
:200dbf00876ce4000a0ac32e9c0000400090b33680410000000000004700ffb68800023468
:200ddf0043c06408002001002800000003c33703408028010cfb800000003e000900000085
:0d0dff00089000000000000000000000004f
:200e0c000000000080a3b294000001c021d96000000018f7a80000022024ef810004007061
:200e2c0093a1940000004286ea0000280580f308480048000000000000007f4cc000450024
:200e4c0000000000003c00078402000000e01610080000000a16828c00004001c1008000ff
:0d0e6c000000832bc000000000000000000b
:200e790000000000710783c00000014245b6900001800dd658040004147f7b500000011994
:200e990087e70000000260000a0080100000bbb4400080000000000040003ff30000808c22
:200eb900000000000000009028001000c1c282f0002000000d080282000000000e00040091
:0d0ed900000000403c000000000000000090
:200ee60000000000500d7014000400003e8a500000059b7aa80000000071dca5080502002c
:200f060005ba8000100146bddd400028281d37318020a00000000003050052a0408000008c
:200f2600024ea100000010f023c0000000068e0008000000000000000000000008f0000043
:0d0f4600000000000000000000000000009e
:200f530000000000780383e8000a035017de500028000f04280000000041e0f000408500bd
:200f7300033d800000002007c1720010411ef6cd8000400000000100000e78300200000099
:200f930003cc2010000008d003c00400000002b000000005000000000040000000f01100a8
:0d0fb3000000d00000000000000000000061
:200fc0000000000401f3b25808000006ccb3300000011e1331848000a02e0b1e0000047080
:200fe0000f7bd4c01a01601eca1000308d1d7b6800000000000000000d0ad7d28000401c07
:20100000040000000100701b28800000a0004400080000000a5f2a8000000001ec5000005c
:0d1020000070eb283c000000000000000004
:20102d000000000000e082580000a342b4ccc00000001dbc0d8000003c695d2d000002b875
:20104d000f42806002000005ac2000020188d2580000000000000000011b9aa740102040bd
:20106d0030000000000000f778d021002143c0e00000000009082a8000003403c00000001d
:0d108d000000df43c0000000000000000074
:20109a0000000000f0cfe3c00000000704e3300000081ebe280000a01432cc80000100383f
:2010ba00053a84080e00403dda100003200037284880000100000000038052a940000004c9
:2010da0034eaa000000019e03b30080000004410080001c000173d480001400000000000d2
:0d10fa0000101d2dc480000000000000004b
:2011070000000000f001803c000003c4348cc0000001107ed800004000425c00000280000d
:20112700094388000e002007ce0000004000f43040000000000000000080783c00000002f7
:20114700776c60010400090043300000800242d0000000050e083d400000803800000000e0
:0d1167000078d56fc00000280000000000d7
:20117400000000005803b294010000e221ca000020018e33384080800c204b6500000011a5
:201194008ff394000050038eee102000038192b140800000000000000f1b53198880011ee2
:2011b40000cba001011151c37154810a000014100800000700fb178000000c016d4a0000b0
:0d11d4000079c17954040000000000000003
:2011e10000000000000783c0000081c404050000100d1fb83000000014276fc000000008c0
:2012010003230000046000030e100000078ef028c0000040000000000f0f001980000c8230
:20122100005d4200001809f08154000e140380c000000009801ae24000000003ec7a000095
:0d12410000090081540000000000000000c2
:20124e0000000000f98fe0cc00000167cdcf302000000072b84080000034fa660201001067
:20126e00c13a00001cc1c65fea50002a0700d730c0a0000000000000001e52bc00404000e5
:20128e00065a21000000780d6494040200069e00080000010053af00800c200000000000e1
:0d12ae000078a86cac0000000000000000fb
:2012bb0000000000f0e1a7300000e1c60d00c00028000ff030000000342b60330000809896
:2012db0009e000000e0032860f000010010bf00f000000000000000000007803c000a80037
:2012fb0031dfe210000000036368000ea34200b00000000980dc26000000240000000001b0
:0d131b0000080b2c5c00000000000000002a
:2013280000000000180d3e80000000602fd640000007005bb00001002038c8a1200010f029
:2013480083738c08081002c689603000070a776800000000000000000009f2dc4000863c39
:2013680000000000000010d76364040000405c00080000000e5faa80000024616aaa0000df
:0d13880000100370ac000000000000000029
:2013950000000000f005b5800000002006b62010000708578fc000002c26dce2000000d16c
:2013b50097c30c000a08420309600020099fb2580000000000000003091d9ebc0040402cf1
:2013d5002c000000000008e9fa900000000282800000000010082a8000000c4020aa08006d
:0d13f500000897aba02000000000000000e1
:201402000000000000a96a84080e000204ea50000283808378404080002048f001000a99e1
:20142200d07a588800cb42a1aa000001881c9be80000000000000000080f33f18c00002019
:20144200057b8b000000b805b154001000420c10080003881f7b154000003621deaa0001ed
:0d1462000000e9a8e44000100000000000b8
:20146f000000000000054304000c00003483300001838812748000660042d00f000005b8c8
:20148f00d501a4000012c00405000000031ef67000004000000000038f0fbe0e4000403cf8
:2014af0039db48000000b800c154001000000290000000071e0815402002244010aa000090
:0d14cf00807105bf24000020000000000017
:2014dc000000040030e5bb8400000163cff9300000000033a84000000024cba00000009101
:2014fc00a7f3d4e00023c024bc500008000a373c08000000000000280100972a8001002057
:20151c007978f50003b881d70002000041e3008f00002a901e584020000000226a40200085
:0d153c0000001578d08000000000000000c5
:20154900000004000103fb0001000803def9c08000800eba408000008067dc600000001819
:201569000742806000204005d53000000010bc03c0000400000000101080d403c800022ccf
:201589004010f501030231f02c00000403e4000f0040106010020000000000787c000800f2
:0d15a900000083a88000000000000000008a
:2015b6000000000080957e84000001c00c96501070080a77b18080004003eda000000018a9
:2015d60001ea00080001e614cc61200000013f3182000000000000002b803295480000000d
:2015f60072ced900000430030402000000039de2b008004801704020000020780c0f000079
:0d1616000000c0000000e000000000000027
:20162300000000009191b840000000e00fac0000700d0bfc0e4000018002ce90000004d06b
:20164300090000400001468f03910000090af70d80004e00000000204b80001540000400ab
:201663000149582000080000b00000000000268d400000070803400000003c00d00f01018b
:0d1683000001000000000000000000000059
:2016900000000000f9e92a800000000016c65080010981d3a8401040007148a10200001000
:2016b00005f22c8000004675c6500080500016b840804a00000000288500b7bd4c21000070
:2016d0007f5ad910828001e78402000a100026d5e00030070010002000000020000000024a
:0d16f000801087e0d00040000000000000e6
:2016fd0000000000d003bd800200000024dc001000010ff7f8004000147ed0c11800000031
:20171d0001b6100000006214fc000003200008384000214000000000500f1c2800704e000e
:20173d00696ba4000298110030000004001037c890803300890b400000000074000000009b
:0d175d001009d3e8800480000000000000a7
:20176a0000000000001f3284080014e304d6500040000edb154000400006fef539810050a0
:20178a00117600000020620f833020100380fe680000214000000000001e5f280000802ea7
:2017aa00781c5520002080b10402000000020000000000599a38402000000004000000002e
:0d17ca0032b01802640802000600000000a2
:2017d7000000000050ed030400000a47e7bc0010400000982a880020003b70a00802800c1f
:2017f700f97c0000000000060cc0002805887ad800000000000000008d10082800004e3e2b
:201817000340aa00000810a0ac00000008040000000040a71a0300000020043c00000004ec
:0d1837000430fd01980000000000000000da
:20184400000000000183f3140c000043a4dc600000001eff78401000bc2bfcc102008010af
:20186400a3638c880000e75d866220128519fbd94000000000000000180c5e154000012042
:20188400040e9c2000200005e03e000e01e3dec5500420470070402000002e044af0200285
:0d18a40080f80000000000000000000000bf
:2018b10000000002f005814c04000027c5a36080000d0ebb300000021425d040000200315c
:2018d100cf830c40044026ac0990000ac0991e7000000000000000080f00001540100e0c23
:2018f10036d86c00000000e0203c00080003c00550001000880340000000243df00f0101c4
:0d1911000030000000000000000000000099
:20191e000000000099a57e8400000002befa50000289807e280000000073eba0308032715d
:20193e008176840000c1438fb8d3140007988698c080000000000000080e32a8000040802f
:20195e00017e34000000f8030002000002000000000002ed8a5a83e8000280700000000087
:0d197e00040005acac0000000000000000fb
:20198b0000000038b005a440000000442eef3000000509d3980000003c3ade900100040078
:2019ab00a97f88000a0062bdf8e008100f9b3024c000000000000000070000280010897c51
:2019cb0003e9100040007000a400000000c00000000000339f0303c0008240400000000250
:0d19eb000000036ba00000000000000000e1
:2019f8000000000019d3b0cc090000407f83302000081cffa58080012670cea102010630c5
:201a18008b2484001022038fea5080080500bfe908000a8000000000401e92a68000080e8a
:201a3800044e2b0001008005040200008207a4e5e00010078002c3e0000004017caa00002c
:0d1a58008000000000000000000000000001
:201a6500000001000185c33000000003ce0cc000020b09b80cc00002ec0260c1100082010c
:201a850005e34401040146570aa39008408bf3a000000140000000682010d7f00800a00087
:201aa5003af8d400008870003c00000003c43ef8900020a7000643c00004820030aa080121
:0d1ac5000000000000000000000000000014
:201ad200000000001009e3940800000717821000001b8f562580c0001e79ccc6000002001c
:201af2001532ac00000800258a500000070877284080000000000000000000000000400428
:201b1200004cfa00000501b58402000002e784caa00000400058402000a000024b8b0000e5
:0d1b320000001822a80400000001a0f40c1f
:201b3f00000000009805834c020001467edd100000251e04258000000e025a36010004b025
:201b5f00a1301c0000140365df000400030bf4304000020000000000000e00000000200078
:201b7f0003d00a200000f0f0bc00000483e0010aa0004000000ac000004000027a48080481
:0d1b9f0000d0cd4154000000000100f1080d
:201bac00000000000007aa84000201c795af000000080000000000001e0000000001088027
:201bcc000f6850400a000787aa000020071e3ee800000000000000a9cb1fb3a94000804056
:201bec00305a550042008005a3d4420001c007b8b2000000007040200020407c18aa0004d6
:0d1c0c000000058402000001c03ca5e000be
:201c19000000000000f9f040000000003f00f00001290f0000000000423c0000000000702c
:201c3900fbbf5c00080743800a000418c090ff908200a00000000013870c70154400e0002d
:201c590040205500010490010140510200003ef480002800000300010040807d50550000cc
:0d1c79000000c0a400000000002ca46000ca
:201c86000000000100033b18080001c077a6400020291e5797c000001e795d4a0001021853
:201ca6000971540000154005aa1000000d0a1ea800000001000003802008102954000e20f8
:201cc60076fe07003830000033c1000001c7ade58003801000523d4020001e795ea00080b6
:0d1ce60004d1e500020000000297eb902001
:201cf3000000000200bfc0e4010000024ef91000101f800c17c000200240499d00008508ab
:201d13000b36580000000025d2000000070f103e8000400000000000501000294800003cef
:201d33007beb01200000000003c00400000384818010282000f0140000000003f0f5000076
:0d1d530000b0c0ac00000000038703420098
:201d600000000000001dac840004006061ee100801471e57a94280021c266abc020000783f
:201d80001070cc880800c03fef501c1057007a0280800a0000000311879e17294402000061
:201da00002013c00b805000000000000a84214e55007000780033c1020000c30ec2b0000a4
:0d1dc0000280a78002000a07c001eaa2000d
:201dcd0000000000f0e5bf880000002325ad2000000f1e1804000000007bd06400000008c5
:201ded00f000cc000804002d05020002a000b41f8000a000000001200090541540000c409f
:201e0d003a4c3c00100200000000000002e000055001000080003c0c0000007bd9e80000a5
:0d1e2d000150a0b00000040bc01d055000c6
:201e3a0000000000781ff594000001463deb2000285b80b257c0004000615ad12a403200a5
:201e5a0007a284000003c71e899020402f9f9bb180000000000000102001d3bd4402001c1d
:201e7a0000f8a010000400000000001000e02f99800c202000000000000e0000ef580002c1
:0d1e9a008000a5840200000003000000008d
:201ea7000000000090f533000200e006ad98e010102b80bea7c00080010030d1010004904f
:201ec7000ff040000014441f09600440458fff8d8200000000000021100bbc2800000c0e7c
:201ee7000010a000000070000000001000e2b78e50000000000000000004003bfbae00014b
:0d1f07000a91c0a8000010000400000000b6
:201f14000000000081ed6a000000154386ce10200001001b8e0080020000003c220030102f
:201f3400effbd4c10a00021de8a31001801cb6b800400000000000000981df97c00021ce50
:201f54003c6c6501000580100000002022000f8f50009001810000000000406ceabc030033
:0d1f74000080018402000000000000000059
:201f81000000000071f53c0000040004000e101002008cfc0c000000542bc03c000000084f
:201fa1000782802004000796fda09800001eda9000008040000000000f0efc014020487e99
:201fc10064fdc000000210f00000000003c03f0a000020000d000000000c8077f06400004d
:0d1fe10000d0002000000000000000000003
:201fee0000000001101f6a840000024280fe100003f51cfea84040a12000cc5f20002c98d9
:20200e00c97a94840600538dcc10200ba00e9ba84080000000000000200f173d4400468428
:20202e0003fb1f00010000000000000aa003f4c0a03000000000000000000471df7100403e
:0d204e0038000780020000000055871000d8
:20205b000000000298a5ab88000242e435bd200400301013388000403c00205f0000265138
:20207b00eb0154600e0063ae080008104000fc304200000000000003d01c9c140040212494
:20209b0021491500028800000000000400038600b0000209000000000008027bfef0000061
:0d20bb00080000bc00000400035dff0004ed
:2020c8000000000001b83200080001e2e4c0500000000abaa94000003e70595e0004900088
:2020e800f5628408180003eeef511410000a1e2580800000000000000f8e0628000100006f
:2021080007ccb902003100000000000000020000000001800100000000000020682b1000b1
:0d2128000138118002000800404000000056
:20213500000000000183410000000403cd0f500010200a12b94000003e01de54000100904b
:20215500a58344400014c6960a0180204710082580000a00000000020b9074140000000070
:2021750025e03400000600000000000083c40000000000030e00000000000067d9e800008b
:0d2195000208f0b800000401e3c0000000e3
:2021a20000000001f089f2c80800000757aa0000000108fea00001409c39e8bc0203af11b3
:2021c200d93a94800060e3a5e80020038901fbaa88000c00000000002389833d40408004b0
:2021e2002a7e1802001800000000000000e795aaa00011e00000000000000079cd71200075
:0d2202000000a100020000a807a005a00038
:20220f000000000210e7c23800000006820a000000050013000041000201f09800010275ce
:20222f00eb7954000002624c000080000b09d75a4000400000000000109e903e8000a00244
:20224f0064d0af0081020000000000002024000aa00028000000000000041c03fef00000e2
:0d226f000001e0a80000001406e40a500081
:20227c000000040058853a8400000046258a500800059cdad540000a00385da408000080fb
:20229c000dfa80c00012078dca019480000813a35010428000000081800886b840000014db
:2022bc00024a240100020081e9780000a8005faa0008000000300020000100280e5000809d
:0d22dc000080e380020020000016100800c2
:2022e9000000060009f534400000002017af3000110110336a8010000040e940100010105f
:202309000f83d420000043f40fa11009a019fa6380000100000000080b00b6b48400a000f6
:2023290003ce2800001401933624000002432cc90000000000038000010e006240a000008b
:0d2349003c3080a400100000030080000064
:20235600000000009005e78c000015428cea000000280037a94000001c016ca0000032f8f7
:2023760009b29428040a07cf865123c0000800000000004000000000001ef3a84000409e13
:2023960001db4700020039e322e40c00036015a5520000050038002000010020cad10384c5
:0d23b60000100023c0000003630c1008009d
:2023c30000000000d8093b0c00000a62c20a0000004b001bf0000000022430a01000051425
:2023e300f1c39400021547740c0000400010000000000880000000000700f7f08000a102cb
:2024030036f8b8000000090bc0e0040020400105500002008c0b40000000004020d1080053
:0d24230000b80003c00400014382c00000a7
:2024300000000000f1f86b840800014024e96028200d0013a80000800001efa1000280005b
:202450000bfbd46000c2021482100100080a00000000010000000040018086a58090400078
:2024700032da0a000ab878036a80000209c02ee25000000b815040200000343148300002c9
:0d2490000010000000000a00000610080007
:20249d000000000078eb4348800020001d033000012588082808000a0002dfe2000080000e
:2024bd000b4140230001c687ee21020a8710000000000200000000431000b41a40008e045b
:2024dd0002c05f008085008383d400141000348da000000f0902c00000200442dfb1000189
:0d24fd000008f000000004e0000090000066
:20250a00000000005017a994001a014347d93000028d00d6ccc000004676ef5e00000080e5
:20252a00116084080000005e8f5180402000bb600400400000000080001e37bd40214140a3
:20254a0073d81700000678037388080000e345fb908028439a58402000000e000c0302007c
:0d256a0001000bae2c020403428410080097
:2025770000000000009fef000414e0235ff9c00008058873f30000008279db1d0000009005
:20259700eb0344000001434f0a0380404000f2400000200000000000000a083d4000008ce5
:2025b70076feb200441530008388200242c3fd83820040000b030000000026240003000086
:0d25d700020001392000022166c2900000c0
:2025e4000000010000e36394000014404789302000581e16ccc00040206d7fa10000008102
:20260400bbbbd4c200444067aa1220008800babc080003c000000010281b17aa8040808442
:202624007e6caa00010200dd73d409005e000fae7020c0a51b5000200004207dec5e01004b
:0d2644008181ed3e6000000003dc10080005
:202651000000028001ffbb00000080235509c00000a91e3b4cc400a0ac33ece20080153047
:202671008f82802000a263c60e20000007007803c0000040000000200b1f0c2a8000cb0250
:202691003f5f6900028091ffc10820001fc3270a00046ac00c0a8000000a1c3a5d89000109
:0d26b10002b10bfb680000e007c0e0000074
:2026be0000000000001162000a0400402de21004000001103fc400000e72db8000000279ae
:2026de00df7a00880041c02794a0100b000e02a58480000000000011001cfbe8080000a40f
:2026fe003c0c33028004019169780002016700ecc0300007807b03e000200003db8b100084
:0d271e000001e80664000000c00fe0f810a4
:20272b00000000000080820001020022ce8e2000000d0cd0000000801642ef000000050135
:20274b00d58000000003403ee9d000001b10041a4000400100000020000c7f580200010c03
:20276b003c1033000002d0c9be2400000030010cc00010008a0783c0004000024a4800009d
:0d278b0000b0ff39980000026001f0f0007e
:202798000000000439e13814000001e021aaa100080801db3c00400000380d710001080142
:2027b800b36b94000020e05caab100102008baa94800008000000001479f33d28000441e67
:2027d800224a24200c000017e2a80000be022009900000051e5840200000647deef50082ea
:0d27f80080001134d0040004001610080009
:2028050000000002918543d40000a3627505500010090d1c03c00002002bdcb208800090dd
:20282500d1b300000004032ec0b010280910783c00000040000000082f1b3ae74000a03c96
:2028450043ce2800000100f0c2a801000ec244f660040001100a40000040be7270a0100184
:0d2865000000f1f88000000b4382b000007d
:202872000000000081cf3a000204004067e4a00000070087280010002073dd80200013b9e9
:20289200f1319400001603c5921000080300000000000000000000002f1f962e40c0604033
:2028b2006b5d800000000093aa80000213639faaa000000180704020008160064b710000ac
:0d28d20080f80b662c000001e316000800e2
:2028df0000000000f10174000008c0228cc6e200000f0f5414000000147b6800000007b819
:2028ff00ab7f0040080ac374bd1008000008000000000e0000000000539e900d0000a0806d
:20291f00036c0020010000ef83d4201c23e0000aa0000100000a000000440c337af00000e1
:0d293f0000388139200000802400d0000005
:20294c0000000000f98de2100000120625ce4000008000db29400001203ccf212000050171
:20296c008d76804000094605cc6200000b8010002000000000000000200006bc18200054dd
:20298c0000eaf500020000002bc1800a4147ce10080000000058002000004003eaa0000021
:0d29ac000000cf20ac000400001610080051
:2029b90000000028d0a5f04800000142ffdb1200001f00703c000000a426dbd10000005168
:2029d9000f6204200001e22fe36000080380038000000000000000404000003c000004c066
:2029f9000010f5100185000003c004041407c2e0000002070003800100009c28f0f5000065
:0d2a190000010feba00008000002a000402b
:202a26000000000000f07dc40008020075ef000030080a92a94400008e705b8b000020002c
:202a460009fa04000040003caa1000000781123c2000000000000382800006bc1020af3661
:202a6600046d5800380000002bc10002000794000800000380023c0400000068fae20202b1
:0d2a86008501c0000000000000408f01002d
:202a930000000000f1f76ac80000f142b400f000380110d6f68000012e425848200000f478
:202ab3009b3904001004001e81000001858c003c0020008000000000000c003c0010003cf6
:202ad30037deae000028000003c0040003c380900000000080003c064000000020e2000156
:0d2af3000001a0000000000002400f0010d4
:202b0000000000000003a38408000862bdea500003c00c86878080006001d8a5000000f870
:202b2000f02314081001c285ca102008001e1a3c20004a0000000100000f02bc10200254da
:202b400000febc02b00058000000000001e006100800000001df3d4200080006cb58000022
:0d2b6000007009f03c0000000000000000c3
:202b6d000000000050f0438401008426840f000000001e700b40000a1c027c0020001091c5
:202b8d00f0432800106423ef0c1200100010003c0400a00000000300001b043c0010008239
:202bad003ad064003000780000000000002282800000000008b8140000001428ed240000ad
:0d2bcd0028000b8154040003c0000000002c
:202bda0000000000b8d16294000000007ca93020004b01b6e8400000007c00000000300011
:202bfa00857a1400002000640a50000000001a3c28000000000000130700000000002040d2
:202c1a00781c3300003c00000000000000675610080000281cf3108080002e23fad9000255
:0d2c3a000c78173bd40000e5c040000000fe
:202c470000000000b0b143c0000220037d09c00000010c9bc400208004240000000000f07a
:202c670005f100400000037400000003800a003c0000010000000008098000000000408085
:202c8700400833004000000000000000000202e0000020171ebc140800001e427da40000e0
:0d2ca7000000d083d48000000280000000f7
:202cb400000000009803b25808000043edc330280001813f680000a43c04598b000282385b
:202cd4000bebd4a600a000400ff0080010005a65a0000800000000203000000000000a2098
:202cf4003fdea000000d1000000000044000040008000800003a8d0020000072ca42020027
:0d2d14000000db70ac000000078000000034
:202d2100000000007000025800040827bf0cc00000800ef7240800006e327d8408000000b0
:202d410007828024000002400ff0002b80000a658010a00000000000700000000000001436
:202d610071f0fa200028000000000002040000e0000000000abfc40000000040e0d101004a
:0d2d81000001ffeba00000000000000000ba
:202d8e00000000011801ef18000a000621896000028348078cc880001c01e9a50000027124
:202dae00c9607c080068432cb210002801003a25a0100140000000500000063c1040409e86
:202dce00016cea000200000000000000000797e0f80020078c17aa80010020000000000001
:0d2dee000079e5e2a8000a00004fcaa0002d
:202dfb000000003a00057ce40004e4001ce6900000478f000cc000003c217be510008109a6
:202e1b000f40a8800010241fdd100000010803e580000a00000000280000043c0000001ce1
:202e3b0001fd4a004000000000000000080001b0f010100988002a8000000c3800000002a5
:0d2e5b0000089042a8000003c3420aa00036
:202e6800000000100005ae140000086054e0f000008009f3684000032002efa4000000000b
:202e88000ba814000e026295cf50000047813a25a00000000000002210000000000007c479
:202ea80001cf8b00000001e033c1000008c03605a80000051df383c0000000781b2b000613
:0d2ec8008011d9e83c0000000034c0f0008b
:202ed500000000001009e948000006c2a70f00000000197a200000008c204e4010023110d5
:202ef5000d43d4400a61c4260a001800208b02e58010a0000000001820000000000000e404
:202f150021e984200000000003c004021022a60a500000870f343c00000100024d17000086
:0d2f35000009cbc15400000000250f000072
:202f42000000000000f1ee84040008e2c58e502000059eff684000043c6a5d2120000011b8
:202f6200e12a00000a02000cb210000800003a3c2000000000000000000000000000001eae
:202f820002caa500041000000000000203e38400080000011cdfd780000021724ef500000d
:0d2fa20000008bb03c00000000000c30006f
:202faf000000000001e57f08020001668d0d300000050e7fc40400001601ead1000000082e
:202fcf00a72400000002c01fbd1100038000083c0020020000000001000000000000003c42
:202fef0038405501003000000000000001e002f000000050801ee24000080c3dd0a0000020
:0d300f00000109c2a8020000002ca3c000af
:20301c001000001090872294020003422fd8000000500056e84000880639fc3e000085986d
:20303c00113d78040854000ea5570c10200e1225a00000000000003800007306c000006052
:20305c00077b0a00043078097a60000a08000e10080028000100000000007c03ce3408004f
:0d307c000101a100020000000000000000a2
:203089000000000810c37b6800042242aef000000000003a8400004104406e26000138f063
:2030a900e97d50000424001c0f00082010000be585010140000000300b0e5b8ac000811c84
:2030c9003c5cbd010484f80b23940004000002a0004010500b000000000cbc266a20000086
:0d30e90006000080000800e000000000006c
:2030f6000000000000c9ee84000006063fde500000130b3ba8408e002001f8ac0238020036
:2031160000016900f0600020e555080020005a65a0000000000003800d88f7ab028e002094
:2031360000180f40000501cb786008e20007ae8f530400038083aa80202016025e0f0000ef
:0d315600007805840200e014c300000000b2
:2031630000000000f00b24400000cac00fdc0000002d0efc308200007426e06c00000400a5
:20318300e10294440004000c0aa00400100903e582000000000000288b909c270000002cfe
:2031a3002c000f18013a9105017c0006000426050000000000541540000c0238c0aa0001dc
:0d31c3002258002800000008200000000035
:2031d00000000400000dbb1808204147a1c63000012800b668400c021e076b1f00100079e7
:2031f000e13978005202060ee55500000100027c20000e00000001000700063c10040a0670
:20321000216c1f00013d000b32f00c40080780cf04000020191f2a8000201c03cef50002d3
:0d3230000000030402004004000000000044
:20323d0000000000000b40d8040002e43ca9300028830d92880004007e3ad91500200008ab
:20325d000f7950008403c01d0f030012c08003bc00100000000001000f80003c0808000204
:20327d00424d150000007001819000c80400000f0180404019002a80000c000260a02081bd
:0d329d001000003c00008008000000000050
:2032aa00000000007009030c08000043c4cc1020100d8187e58000003e036ebc0204320044
:2032ca00e32af00900166020a554002001013a65a020000000000083c801fadb8000001419
:2032ea002d5ab902000400a87a8c60001160000000001028183aad4000009e29da300000b7
:0d330a0000500304020000020680000000d5
:203317000000000090ef00f000000026400c1000000f89d25a4000001e03d0640004000147
:2033370007c190400008400d0aa00810000c02e580002000000000000b0d53470000002e54
:2033570067f03410001291b7614c0002200000000000080d10d7d880400d2e005db10000b5
:0d337700387000a0000000004400000000bd
:203384000000000198e16b000c00000205aa5030000f803ab840800c003c4aa33344840096
:2033a400093978000008000fa556000173983225a0400100000000909580fe2f04800ca6f1
:2033c400076c1f00000590e1a9540014b46000000000202b9d06b30080201e70daf52002fc
:0d33e4008031e704020000140001a0f40095
:2033f10000000000519943cc00000ac0250f300000070e0038400040003400a32806027051
:20341100e77150000040000005501800009002a580000e8000000023870014190000002406
:2034310025cc150000083800815400100c0000000000104f0a0033001040004000f5200102
:0d3451000808d0a000000008000000f200f4
:20345e00000000000083b384000a0046958a100010019c3bb180000144040a3c12010280d8
:20347e0003eaf00904c8c63600050c00e1817a25a040000000000042c81c1f4f800040003a
:20349e00005ab9130000700fe83c00301002c000000000078073140040011c2208aa000004
:0d34be0080f8070002000000000000000080
:2034cb000000001001fff300040400022ea101042b00097fce4000000220003c000084b0ad
:2034eb0097c190020210000c0ff00000578c0be580000000000000400f10f3498000a02488
:20350b0003c03409000008c3c1540010280700000000028f00f4000000008240505508008d
:0d352b0000b800b400000000030000000024
:20353800000000045c037bc000100000258960300008099e8cc08000163008f0410085f90f
:20355800d93978000000604fe5548010800f023c0400808000000028079f5eae4080a086c0
:20357800056c1f000202008be83c00041c0000000000038118733e8040004c04fe0f000066
:0d3598000180938402000000002798d410e9
:2035a50000000000509bc03c0000a0002f0330001001087c33020006000010f00102a8584a
:2035c500a96150000860120305518022200f003c00000040000000100098f40e0000004280
:2035e5003d4e15000101000f42a88002000000000000001b0c90014000008e385055000046
:0d36050002b0e03000000000002eb8e00030
:2036120000000000001120cc08000002b7aa1010001700b63d4030000078000000010531e7
:20363200e3aaf0a800c0006005a60040031f3e4cc2008800000000220f0e13060480a21cb8
:2036520039f8b902000019e83bd4001200000000000093a000368c00000004021aa001088c
:0d3672001070c78002000000000000000082
:20367f000000000000a14330000000002ea10000002080b828006006003c00000000aa0973
:20369f00070190200800022c0a538042000bbf3300004600000000105790502bc000014048
:2036bf0003f034100000980743e8801000000000000022d000b7ec40000a003ec05000002d
:0d36df0000000038000000000000000000a6
:2036ec000000080000917978000003e02ecf538441a59f5f928000402005dcab0800143946
:20370c00f13928000000079e8ab110105f0116a94000000000000000078d56528000af0081
:20372c00001af060000070037e82200000c00600080000000103bc1800000000e100800079
:0d374c0080000780020000000017f08100df
:20375900000000000089f150000023400e0a000440008896a74000803c39fc0b00800299ab
:20377900db7a74000a03c31fa0b09840010f7015400004000000004380089b67400049c061
:203799000010f00000287000a280000000200200002040000d043c00000000382f00000020
:0d37b9001000c0a400100000001dd00094fe
:2037c60000003800f9c9eab04a00020036a21023800f1e3eaf00ce4e00600cf0403808382e
:2037e600096ae448f4c803800a5400000000babd40008a0000000390511ebbaf0acea02042
:20380600000af040008201c5a65a8010600616100803b8301e03bc1000c00675e000800287
:0d38260000000023c000e0000020e5560077
:203833000000000070c1c270060001c0370e2000000b101c26000080000010f000000408fd
:203853000f00d0241010003c05a01028000050280000014000000020208054190020020c05
:203873000010f00801057100be580010040782b00000080010003c0040a6807c0d00000010
:0d38930001000003c020000010140aa00076
:2038a0000000301500106bc10000a0022daa100900078100169224840022cc580010008146
:2038c000f00295224401e25ea3a0002047803796008041400000010b00000016900c000004
:2038e000780af050000001c5a65a8000020784100803000040073c14000020206100800060
:0d390000000000000000401000000000006a
:20390d000000300000d003c020000a403e80200200000e90294044000064e8ae00100270c6
:20392d00fd016800c00827fd83600010000010174040a08000000210000e9029440c003c09
:20394d004000f001000001002a58020002c400900003000000043c0200003c402900000064
:0d396d0000000000000088080000000000bd
:20397a000000028100e9b5b8000001667eda000010281f5247c000001e05fabc020400f016
:20399a000f307c00040007ceebc0206baf9a0000000000400000001198003a47c00001408f
:2039ba007c1cf05042b839c7a25a001aa067cc100800100000033c140000042160008001b1
:0d39da0038000000000000000000000000a8
:2039e7000000010211093070000201e74ca9008008070fd6c54000000020e0640004327899
:203a0700f178540002b5c636064000401710000000010080000000286b007e45400000006b
:203a27007810f00000085000a2580510100380e00000080000043c00400400000c00000095
:0d3a47000800000000000201400000000027
:203a5400000008000009e2f0282003621caa10200100009baf0090023e7b5a180a071a8019
:203a74008d7ab02c041c0057a181200017003bcf8000a000000000000588bb2e4080001c03
:203a9400001ef060038870c1a25a010001e01c000800000000063c1250001e75c00080006f
:0d3ab4000170000000000000000000000094
:203ac100000000287007826000000047ec0c2000000000bc190000800e7af0af0004007015
:203ae100bfc27002001403e50af0000000805a8980004800000000000000f00d064000026c
:203b01000000f00801007100b258800001e002e00000000008043c00000002742e00000001
:0d3b21000200000000000000000000000095
:203b2e0000000085f8efa5b8000a0842979a020007870192d780000000695f3e00017a002e
:203b4e000f307c001308e04db6e00004280e7a2e4880a0000000002c59093a47c0001c0089
:203b6e000418f04000011007265a4100000057e0f8001d201c023c10000000295b0f800029
:0d3b8e0000380f78ac010108004000000075
:203b9b0000000102b809f0700004b44004a6000000090d7a150000003c30ee190002140016
:203bbb000d7454001407c33791c0002b43101c0e00004e0000000010259e1fc540000000c2
:203bdb003400f010000008003258010a000340c0f004110010043c0040080040380f0000d2
:0d3bfb00100803b3a00000100340000000fc
:203c08000000042070e9f2e4080002061cac6020000001ba2f0081204604d8bc020010d0a6
:203c280015fab06a001067aeaac020000700bfcf80020000000000002009ba2e408000803c
:203c4800780cf04000001007a25a200000c03e05a80000018800000000805405c000800028
:0d3c68000100e0000000000060000000000e
:203c7500000000280109c0e0000003c03c03908000000db419000141c03dd098000030306a
:203c950083427040000807cd09c000000f003e898000020000000000571efc0d04400c00cf
:203cb5000000f020000408002e58220000026e0a500000409c0000000041843c0d00000077
:0d3cd50002000000000000000000000000e0
:203ce2000000028838f3b978080801c6800000002380001f388290001e6a00a54802000101
:203d0200c7307c0000ca07c1ef040083800edbaf00a0cd000000001010093a07c000000077
:203d2200001af040001000f1225a010400e05400080011100000000000001428400080005c
:0d3d420000381000000000400040000000ac
:203d4f000000014009ed01508004a0300000000017830f00388601163e63c05a20054001d9
:203d6f00956454000115c3410f0110240d1eb8190000ee0000000027501bff454400102451
:203d8f000010f001024031e032580203166202a000000c0000000000000000402a000000a1
:0d3daf0000009000000001000280000000f4
:203dbc00000000000181703c0000220054a0a1000847097b8f80010000056b5e0000808051
:203ddc00b1a07c000020004ee5500000578b16af000066000000000800003287c0000200c7
:203dfc0038dba08040000005225a410000000e100800080100000000000000006000800063
:0d3e1c00000003fcac00800000000000006e
:203e290000000000700383c0000001c32d05f00000808897c9800106002ad8a800010571cd
:203e490089ec5400085403c305500453809f9b990001800000000003890ebfc5400002008e
:203e6900401ea002000000902658100a03c000800040000000000000000700000d00040076
:0d3e8900000003b3a001000003c000000012
:203e960008000002f0017b30080a000781a3312381710a5f2f008e000c035eac237802788f
:203eb600ed72b028f000060087160383c81edf1280004000000003820998b62b08e0000e08
:203ed60075c99680008001d5225a80e017e0248f5200000000bb9b020001460008f0208013
:0d3ef600100003395400e00400000000003b
:203f030000000000b00740cc00040147810330002839909c260220002e34709c0000040193
:203f23000102700010000035ab21800bc710fedb80002000000000202790102700600602a9
:203f4300742c9620010500f03258040009c0040500140000005a0f000000000000f00842fb
:0d3f630000b000c154000009c000000000c3
:203f70000000050001cb6390003002000000000300418e1029500400207c005a4073387883
:203f9000e06bc10040401654a5548d80480f13db80000c00000001000018073c101200a026
:203fb00000689680020210c3265a02c0000000cf050000039f3b98c0000000016aaa0042fa
:0d3fd000800000000000c0000000000000a4
:203fdd00000002800107bdc8000001c24000000100009a00294048001c7ac0a50011010158
:203ffd000043c0208003c20105500601011f92c70000400000000100201a003c00410774f3
:20401d00240c960800047100be5804c00000000f010000004ddab0c0000e003030aa0001a6
:0d403d00000000000000c0000000000000b6
:20404a00000000000009f198080006020784400020418a1ed280000896004c1f0000000184
:20406a008fa8600010420000a7140010a01e53af00800a000000000001807e928000000423
:20408a0001e896880400b005a65a000210000000000000090100000000a140040000000055
:0d40aa000001c378000002080006805400e9
:2040b70000000000000700cc00000ac7ede77000005010d3a74000041c037f2a000000f02b
:2040d700f5febc0010104035ab2210084d10dc1900002000000000030000db674000004069
:2040f700242a9608020378003258810040000000000000138c00000000c00038000000005e
:0d411700020107014040004000010050106f
:20412400000000008083be940000000355aa00000050011e2e40902d1c76cabc02048101ea
:20414400d1b2b00a08000015a55400000100b2b6d080000000000000279f1b2f08800004b3
:2041640001c99680000071a7265a00000060000000000000003b98c0000040000000000888
:0d41840005800000000000000000000000a9
:204191000000001af00df7cc40046007c7d6000003a00f780e0000410020e064008400018a
:2041b100f541b00004e0000005508002808070280010000000000000191818190200001c25
:2041d100002d9620001001003a58010040000000000000090edab0c00002803800000000ec
:0d41f1000230e000000000000000000000af
:2041fe000000004011d00000002882006fec602025d00107bc1040108e016d1f0006c0f110
:20421e00c5bd780011a0039e00050814001d1fdb8000a00000000000210e80295040002450
:20423e0004689690002211c1a65a0404086000000000000809bb260000000003ec0f00007a
:0d425e004181e1ebe8000a000000000000d3
:20426b000000003030b00000000400433e03900000290f043c00002164035e2a000600b9c4
:20428b0009f6a000000417140ff00428101fd64700002000000000281780b0168040022e39
:2042ab003c2b960840000000b658000a043000000000000f1bd7b940000800037055000098
:0d42cb0002310740280000a40000000000a0
:2042d8000000002800f00000000241c617f4400008510cd7d60000400002ecbc020000015b
:2042f800bbfaf02a0888c015e555840001883baf0090060000000000078cb287c0004a00d5
:2043180034699680810081e5a25a8420800700000000000780da860080000000000000005d
:0d43380000008000000000e0078000000091
:204345000000000110b000000008004025c770000020993b9740000e4038c064000004007a
:204365008341900604d002c1055180001f1e9c19000000000000000140803f85400020405a
:204385006c2c9608800270003e580000000400000000000900b417c00000000000000000c2
:0d43a50000110000000000000400000000f6
:2043b2000000000059a00000000001c03ce3302028039cd2af00800094787ed13344000127
:2043d200a10295020000607dc0540400210800000002004000000000000c92ae4080005ec7
:2043f20079689680810079ed23c0020a1410000000003b0001db2f00802000700000000064
:0d441200007000000000000000000000002d
:20441f00000000401000000000010023e60cc00004079098190040105c0020d10804400022
:20443f00d0029420010002250fa0180440890000000000800000000c2900740e0a001002c8
:20445f004009960082800109803c03011c000000000054200bf0190000420040000000006c
:0d447f00409000000000010000000000005f
:20448c0000000000000063c101001400000000001108015f294000a00004ed1f00020d0135
:2044ac008b21780000014005f180002b000e07bc1000000000000001d01e7800200006007c
:2044cc00304896800000000f7a2c0000000056000800000780000020000c0030000000004c
:0d44ec000000000000008000000dca540018
:2044f90000000000000043c0200000000000000000010efc1540004000227815000292019c
:2045190091f1500000000255caf000180000043c00400000000000002f0000000080000058
:20453900002c96250404000bfa10010002424200002000000f0300008000004000000000e5
:0d4559003800e00000000000022d055000b9
:204566000000380000806bc1400a00402dec6003800818f7bd400e00167edcac0a780018f3
:204586000fe2b048e00000758ac0a3c02008033c1400400000000000478038002000a000b0
:2045a60030e89680000080a000000000a0605c10080000058150402000000e0000000001ee
:0d45c600000000000000e01c0000000000ec
:2045d30000000000010043c0810403e035c39200000b00b428000000362c709c004000b885
:2045f300b34270001000037706c180018010043c000000000000000000800bc00000e00076
:20461300742c9601412070a00000000000c340c0000028550e0b0000000026000000000060
:0d46330002b00000000000140000000000b4
:20464000000010000080000000000200201660010101c157294004001e780cf040140201c1
:2046600081fb886d4af0c3800a540b22800f023c1040000000000000401b10002000000019
:2046800030689680c000f9e7603c020002000c00080000001c30002000000002fa2b100075
:0d46a0000000e0000000400002d5ca5400f8
:2046ad000000300001000000000403c01cd99006000908b415400c00260000f00024030106
:2046cd00d00388204400272c05a00310501f043c0010000000000000201d0a000000001ce1
:2046ed00402e96000000510dc154000002c0008000000000000a400000000003ced4000005
:0d470d000000e0000000400007b70550006c
:20471a000000000001c00000002a03c057ca5000000001162940000e0003c90a00003a00c2
:20473a0000016940104be2d7f1f000102000002950000040000000000181304020000020a5
:20475a0000c89690080084006534000029c31600080000078058402000074000000000009c
:0d477a000000000000000408000000000026
:204787000000003800000000000400e31c05500000000ff82a800000343e7a7e000004f073
:2047a7008b0294400011c3bff15000285000f0168440008000000028070802000000001da5
:2047c700002a9601420050cf6e388000440200a0000020008003c0000000a400000000009d
:0d47e7002800000000000074000000000029
:2047f40000000002000000000000026040000000001001d617408020046c7eac0200000186
:204814009321780000000316cac02002800002bc10500c80000000080f8070002000001c26
:204834000169968100200005aaa8000088401e10080000081c784020000000060855080007
:0d4854003800000000000000e040000000ff
:204861000000000000000000000003634000000000170f3c038000c0023ed06c08000d500b
:20488100d9f950000000023709c01000010d043c0000014000000010870002c00000000eed
:2048a100380996004000000082a8801013c000800000000d1002400000000030d0aa0000ca
:0d48c10000000000000000000200000000e8
:2048ce0000000200000000000000000327e2100000010e12ae40c0ed4039585d0002287820
:2048ee000fe2b0080048001fc2e020000000033c18100000000000200001d856a8004840f2
:20490e0071c89680800000000000000001e005b0f80020830018402000048e227e8b004014
:0d492e0005000563e88000000700000000a0
:20493b000000010000000000000000426cad1000000780700d0020c080695f0e000100b8fd
:20495b000dc1b0000236c20102e004010000003c0000000000000038000cf2a94000008001
:20497b00782e9601000500900000000000200380f00019100002000000004402df4800011e
:0d499b0000000d801400100004000000005a
:2049a80000000400000000000000001016e3302010479c070f04820000255ab90200085071
:2049c8000329780004e00756b5d00000001c063c180000000000008005815a83e000003eee
:2049e80038e8968000007805eaa8000001e03e05a80000080010402000000400688b000827
:0d4a0800000007bbe8800060000000000017
:204a1500000000000000000000000042ed0cc010008799000f0000080062d0381000800045
:204a35000bed18000200063dc0e000280018043c0800000000000000070c0c03c0000e3eb6
:204a5500242b96004280088082a801000002660a500000070003c00000000022de48000013
:0d4a750000009940140000a00000000000a7
:204a82000000000000000000000000e6a005a1004010088358d0400000000000000210f59e
:204aa200ebe2b0880ae8c23dab90a003800002bc1000008000000000000070002000001ea4
:204ac20001e80f000000001563d4020000004c00080000af8f78002000000038000000002c
:0d4ae2000080000000000000000000000047
:204aef0000000000000000000000c02404aa5000402010b264c220000020000000000099a4
:204b0f00054270220e1003b603800000000f043c080001400000000251090300000040001c
:204b2f0003c0f011400200f003d4000060c200f0000000451a038000008000000000000025
:0d4b4f000030000000000000000000000029
:204b5c00000000000097b684000000400000000020010f580020010000040ef0480009002c
:204b7c000df07c0002080000cf040029bb8c58002000000000000002038070402000000086
:204b9c000000a5480100f9e17aa8800000000c10080000058810002000000e044f9f10009e
:0d4bbc0000000d3004018002002dca5400dd
:204bc9000800012871e13c40000003e00000000000000f0800008100003810f0088000d0c2
:204be90095f45400045403800f00900057980800008000000000000000000a0001000000d3
:204c090001405a000000318082a8000a000240c000400000000ac0010000002258900000f4
:0d4c2900000005b800200000403d055000cf
:204c36000000000000153b180800e2e00eef500010000e1040200e0360381cf0403f001805
:204c56000b22f008e0d400008f0500100000500020004a000000038008007a3d480f000e60
:204c7600001af0480000800172a880000007008f0003802780f230c610402002dad90038ac
:0d4c9600000007681500e00000400000006d
:204ca3000000000000e940d8000001e3860a00000b0b000a4000000cbc4010f00807800085
:204cc30091419000000800010f000428000002400000200000000028470010280021ae82d1
:204ce3000000f0080038f00082a800001000000f0000000040123c04408004014da4000000
:0d4d030000000d03d4020004034000000076
:204d10000000000010e068cc080001c2bfc8f22800000030002004a35e000cf048100078d2
:204d300001f07c004a0203800c3410000581380020000e0000000310000102bc100c0144b8
:204d5000001cf05000028017283c000a00000000000340001a033c1200a11c040ae2021073
:0d4d700000000d300085c0000000000000b4
:204d7d0000000018018000cc00000022550450040020000300000400020000f01820000889
:204d9d0001785400c475c400fc310001008f0bc00000000000000300000f043c020c0080c4
:204dbd000010f008000130d941544004000000000003000000003c020000803550d10020b4
:0d4ddd00000085b808004000000000000044
:204dea00000000008001a5940000084600c9a22030001e584020000e000001c3600407785b
:204e0a001d7af008000c0781cf060002519e104020000080000000000000000000000c168d
:204e2a007800a54843a0000739780400000705a5f000008000000000000e240068f51000a4
:0d4e4a00083807680001000006a5af5400fd
:204e570000000000100fff00000014240c06500030201f0b8000008000000dc300048f00a6
:204e770081419000001400000f01000003090b80000000400000002180000000000020020b
:204e970040c05a00030090076a24000014000f0a000000800000000000262e03d0a01000f5
:0d4eb7001208032c04200000042d0a000046
:204ec400000000007003ab18080003c026e5d000000380704020000014001ef06000009885
:204ee40013b3440d00014001ef040000080010002000000100000000200000000000000405
:204f04000018f0600100000072a8040001c006c0f00080018000000000a0067adc3400005e
:0d4f240000780d3008240000e000000000bf
:204f310000000002f00340d8000066e02d80d10000270d0b00000008020000f0000000f066
:204f5100a00344a6000000010f0110100f00030000000800000000404000000000000000e8
:204f71000000f00802b800094154000000002605500000000000000000401c40ea100000bf
:0d4f9100100005b800000000024000000004
:204f9e000000000019c7ae84000014066786e0100008003000200000002018f06040023197
:204fbe0088658d0010620001af048010200e5e83e00008000000000b0000000000000c0095
:204fde00381af0414007b9886440040002000000000000000000000000003605c88b02006e
:0d4ffe0000000769002000e203c000000071
:20500b00000000000007744000000803c5f1c00001830d0a00000000006000f00000040852
:20502b000b624c871002c0010f008820431006c3c020a1400000000020000000000000405e
:20504b004010f00002809103288000004040000000001020000000000080362c50741000e1
:0d506b002800032c00000002c60000000019
:2050780000000000809000000000004045ef50000100017840200001000018f040000030f1
:205098000df0150004080200af040000001ef816a000000000000000200f000000000140e9
:2050b800380000000080f1f03aa8200000000000000028030e00000000000e04de4a0000ca
:0d50d80000180d3000020000003fca540017
:2050e50000000008f0a0000000000023550500000000090a00000000802010f008000008d3
:2051050009c3d460020404000f009000001038294000000000000000100e0000000004808e
:20512500400000000000789941540000080000000000100000000000000002314e9d00004e
:0d514500000005b8202100000025055000e5
:205152000000040031d000000000000055a1f020001000380020000000000af04008100078
:20517200e801690510200040000000100001104020000040000000000780000000000140cd
:20519200000000000290000139c4800874000000000001000000000000a00001dcb9030037
:0d51b2000000076808060002062fcf540019
:2051bf000000040010c00000000003c3b702a00000690e0a40000000040000f0098130006e
:2051df000b029400100003400000002001080280000000000000000000400000000042800f
:2051ff00000000000100b00763c0000600000000000000200000000000803403503801420d
:0d521f000000032c00c20003402e0a000016
:20522c000000000070000000000c0c03fe82b00400200118402001011c781af040028000a8
:20524c00003bc100041000018f040400471c10402000060000000020001e82154800069e00
:20526c007cce5e0000007803e2a8000060102ca0f000118040872a80000020206000800027
:0d528c000000000000000000000000000015
:20529900000000040800000000000003ad9d400010000b03c0010140820010f018010000a1
:2052b9000003c0240a0002410f000000208902c001000000000000100100342a82000140f4
:2052d9007a4b890000000800c2a880000000350550100800401015400000144020000202b6
:0d52f90080000000000000c0100000000058
:205306000000380001efedb8000001e00000000380070012784a0ea180054c5d003c000062
:2053260010029500e8000340ef0503a088001a3d4000010000000000081c372a80000e804b
:2053460001eebc02001081d53cac2000020021ca02000003801faa8000401e69c100800069
:0d536600008007603c000000030000000014
:205373000000000100fd70700000036000000000280000dade001041c02efa0e00040000ae
:20539300eb016801040003800f0004500700902806400000000000000b10042a84004000a9
:2053b3003a5064010601f1e5ffa00000014015050004000780042a8200002400280000008d
:0d53d300003000003c010a00040000000052
:2053e0000000100091ade2f00800000300000003003000033c1a4c002061dabc02b480005d
:20540000e073c10040c80001af0501000000033c122000000000000000003bd28000008438
:205420007cfe3400001281cbe83c000400004000000000001e000000000ac021e00080008f
:0d54400000f8e77aa80400c002178fa00052
:20544d0000002028b9094190000404040000000110000f003c000c0a0400e0640034000169
:20546d000003c020400000010f0081004000003c0400000000000000000077e7400001400c
:20548d007e5b20004005f08182a8010211c34000000000070000000000019c240d0000003a
:0d54ad0000f800c2a80000000037005010f9
:2054ba000000000001ed2af00000000001c0f000000000000000010060781af06040100086
:2054da00002bc12004401000cf040413000e000000000a80000000002800766e00002100a3
:2054fa0004dcf51003b879a1ea800000400700e550003800003b280000041601400080007c
:0d551a000001c528ac000001e04da5001007
:205527000000003031fda19000000003e500f01028000900000001009c6410f00002b80001
:205547000043c0040e4002410f001028001000000000ac00000000080708ba5200408c803a
:205567003400f50042001005c3d4000001c6140aa010100000bc3d440004000029000000fe
:0d558700000005bfa0000000036e00000042
:20559400000000008013f8600800000007aaa004000180000000000000785e6e00000001e9
:2055b400c073c18004040040ef0600000180000000004c0000000080001eb762c20000be22
:2055d400015aaa01000000017388080001e01cafa000900d9e07344080000004e1008000c6
:0d55f4000178073aa802080007c000000077
:2056010000000220b083c17c00000000010aa00010000f00000000403c7ccd1c000000004c
:205621000043c02002c803410f000000000000000000a0000000000009107a210000207e37
:205641000030aa00000400000388000203c01c00a000080f9d3438800000003c0a00000079
:0d5661000200e082a8001400078000000095
:20566e000000000030e3baf1280000001ca5a00400000000000000a000007ebc02000038bd
:20568e008063c10204140000ef050413f000000000020a0000000001270880604040a014f3
:2056ae00000a4d00000030876b880c0000004000000010870ed38ac000001c01e000800050
:0d56ce00000185bbd40000000000000000ba
:2056db000000000008e78190000000020305a000000000000000004c0002f0641000140936
:2056fb000043c020088840010f000420700000000000000000000021811ab2908010401e0c
:20571b003c4b8e100280000003880000b403c000000000098e7eba00000002000b000002e7
:0d573b00180100c3d4200000000000000091
:2057480000000000f0f72db8001000023e8fa004000000000000000c003c5e6e100002804c
:20576800e000000008f573a00a5500004000000000000e0000000000071adf3e8000414045
:205788006a005a00810011e00000000000403fafa00001010cb383c0000e203941008000d1
:0d57a8000011e372a80008000000000000de
:2057b50000000000b1e3bc70001000126d00a00000200000000001000074fd1c00000571c1
:2057d500000000000448024c05a00812000000000000000000000000401814014011800c11
:2057f50042c0a500008001000000000000601e0052000040881c154000003c4008000000df
:0d5815000071e042a8000400000000000047
:205822000000000510f33af1480003e007ef510813800a0000000002207400000001050080
:205842000000000000e000018f060823000000000000008000000000071e903fc002600e01
:2058620071f8a000038500f7e17c0000024066d9c00040081ebb8d00000824004000800066
:0d58820008001032a8010000000000000026
:20588f000000000008c7c1900000e3c03c0a0000280010000000000e3c78000000020200f2
:2058af0000000000000000010f0000100000000000002140000000010090d00002000002f3
:2058cf006c70f500020001dd8280400003c3f4ec900008070013080000021c000e00000535
:0d58ef000000b74154000000000000000060
:2058fc0000000000000b747c000003e781aa000013818fb21280000000040ef0400000795a
:20591c00e5000200200203a581f0000028013000200001000000000001805baa8010014078
:20593c00236d9c00000200c00000000000001c000800100bc0f65c4800000079e1008000ea
:0d595c000078b30002000000000000000011
:2059690000000000000378a8000001e43505000c28001e56e7400046043c10f00100000086
:20598900e08000080000c017d1500000070f080000800000000000020b8a082a8000008037
:2059a900425ac9100285010000000000000002000020080300f6bc0000002c402b00040067
:0d59c9000000a00000081000000000000019
:2059d60000003800500f7ae4080803e200000003804380daab008e00000008f0480100002d
:2059f60007800200e000071f8bc020002dc1584020000140000000010800be03c000001e08
:205a16000400000000a00087ebd4800002079610080002c00c7f9c480000000408f0000022
:0d5a36000000e184020000000767c00000ce
:205a430000000000080740d0000400470000000021a000dc27002000000010f000400400b1
:205a630000380000140542e60641000105880ac000000080000000085300d0154200015eaa
:205a8300380000000000010003d4000003c642c000004000007abc000002003c00f001057e
:0d5aa3000000a0a400000000072605000080
:205ab000000010000001fa3d0a0001e22592520100081c3bdb800500006800a540003881d2
:205ad000e3840200c001e78581f000118f0018402002000000000000a00032bd48000014aa
:205af0000000000000008001a1c4000002029610080000081c564ac4000080020a55000095
:0d5b100002f1f78402000000000000000018
:205b1d0000002000000341140000a02005fda002000f10d687000c000041c05a0100007137
:205b3d00d0300000c000261fa15000200d800340000000000000000050090c3d4400000478
:205b5d00000000000000b083ffc0000002c000f00000002b10d7f50000012c0240aa100054
:0d5b7d0001f1f0bc0000000000000000007d
:205b8a000000000010c0000000000007f598b00008099fbaab00c00000001ef040401a006a
:205baa00e580020004086795abc02038099f10402000000000000000000c00000000a03ca9
:205bca00027c4a0000007800000000000002861008000013801314040000007000000000ad
:0d5bea000070150002000000000000000027
:205bf7000600000000000000000000030c984100100f0e7c27000004000010f001000501c5
:205c170000b4000002b00427064000380d0b0a800000a00000000000000f000000004024a9
:205c370000c99d000000080000000000014000d00000282000100000000000000000000076
:0d5c57000008a0ac000000000000000000ec
:205c640000000280b9e00000000001402eca010000039c163140e00014001cf060410501fe
:205c8400e100020000034014ed133800000850002000000000000000000e903fc80280608f
:205ca4003b5ebc02000080052aa8800001e70c00080003c0007662c200480000000000020f
:0d5cc40080d8010002000000000000000078
:205cd10000000100b900000000000040260fa0900000000031406002000010f00000000081
:205cf10000a400001802c2830d120400030002800000000000000000001e7000000041b465
:205d110002d06401c2b0b00082a80000e02400b00000002900d6a10000000000000000019a
:0d5d310000f000a4000000000000000000d1
:205d3e0000000000908dedb800040047a5e580200017000683d2000140381cf04001009046
:205d5e000500020000c000000a56000100005e43e0000000000000038f80be940000280ee2
:205d7e0007eca0000382000000000004806286100800000001872a820040007858a028005d
:0d5d9e0000000300020000000000000000f3
:205dab0000000000b107b47000080004250ae0000000890003c20000806010f018428030a9
:205dcb00f0a000000410020c05a00008500803c3c8012000000000039389740002000006b7
:205deb003460f500008000000000000200200290000009d00df415400000800010a000007c
:0d5e0b000000002000000002400000000028
:205e180000000004700b72f008000000258b9020000001b69280000006000cf0400018807e
:205e380087800200001067c581f0000000000056a00000000000000000003fe600000080f9
:205e5800027e4202002801c00000000000078c100800002800000000000000005caa0001a3
:0d5e78000000050002000000000000000016
:205e850000000002000381900400a8003e03400400500e5ae7400000022400f008008071c8
:205ea500003c00000008238f815000000f003269400000000000000009009779480001408a
:205ec5000240d1010000000000000000000202e00000004b000000000000000030aa00029e
:0d5ee5000000002800000000000000000088
:205ef20000000000b080000000000003b6c0f00002880012ab008040002040a56102081070
:205f12000380020014080707cbc0a00100011000200000000000000021011334408000201a
:205f3200696aaa00000070000000000008471c00080000078857be80004000040000000186
:0d5f52000001f584020000000000000000c6
:205f5f0000000000b8e0000000000000260aa000000f005c270000a0004000a5080000b0eb
:205f7f0000a800001204042706400002000e03800000010000000000d90c043442000004dc
:205f9f006400aa000200080000000000600402a00000000098580148000000240000000067
:0d5fbf008000e02c00000000000000000049
:205fcc000000000050a000000000000000af040000001e1347c00000007018f0500280018f
:205fec00f104020002000000af040400000070402000020000000000070f523d400000200e
:20600c0022c82500003000058002000080000610080000010000000000000000000000000f
:0d602c0000000580020000000000000000e0
:2060390000000000d9b00000000083c0010f018000071fbe45400000004010f001800001bf
:20605900f0a4001000a002010f000000000003c00100000000000000000d0c3d4200000c69
:20607900437cda00000000a080000800000000f00040000080000000000000000000000096
:0d609900000000b8001000c0000000000072
:2060a6000000380001a1220140e0006636d4a0039007803aaf008e00402018f040790000fb
:2060c6001da38421e0740000cf048380281c9a3d400000000000000280017f22c8000600de
:2060e60001da7100000038050402000000e0008f01000007005b9c4000000000000000005d
:0d61060000000023c0800000000000000029
:2061130000000000010164000000002404d9d00000008e9819000002a44000f0080298007e
:20613300f3b5e042400000010f001403c7009028064000000000000050091fd2000000000c
:2061530031d9f0080000b000340000000020000f000000000013bc00400000000000000008
:0d61730000000003c000000000000000005c
:20618000000000080080000000c000064fcac02300090102bc120c001e0008f050108000d9
:2061a0000033c10140416201cf048580001e033c120020000000000000087b8e40000e0040
:2061c000680eaa00000079c504020000000000000000000700000000000000000000000054
:0d61e00002000000000000000000000000b0
:2061ed000000000000000000004000038509c00300090e043c000400020010f00810000089
:20620d000003c002c00006010f0003000000003c02000000000000000019d67242000000f2
:20622d00405055000000f9c020000000000000000000000000000000000000000000000093
:0d624d000400000000000000000000000040
:20625a000000000080800000000015e3a1cc50ac00151ad6a940100000000af0400000008b
:20627a008000000000e000008f040003a000000000000000000000000300d68ac00000004b
:20629a00705caa00002804130002000080000000000000070000000000000000000000089e
:0d62ba000000100000000040000000000087
:2062c7000000000090b0000000000800240ca080002010f015400000000000f009000000b1
:2062e70000000000000000010f0090029000000000000000000000000000bbf5000088002d
:206307004000aa00000000a0bc00000800000000000000190000000000000000000000000f
:0d6327000000c000000000000000000000a9
:20633400000000040005ba8040000a006003c02012001fd32940000016041ef0600000186c
:20635400c000000000100000ef0410280180000000000000000000000100805980400c20e7
:206374007000000001008015000200000000000000000010003fbe8800000000000000006c
:0d63940000000000000000000000000000fc
:2063a100000000020000028000000043b403c008280108d415420002003400f000400800cc
:2063c10000000000000002010f0000080000000000000000000000000180b3e64800000c34
:2063e10000000000028070f0b000000000000000000000070e3c0140000000000000000078
:0d640100000000000000100000000000007e
:20640e0000000000000d6eac000000e215aa0100000001f75b80000004001ef04000001070
:20642e000000000004000700ef0600000000000000004600000000010008362a88000144d2
:20644e00047a8b00001019817c3e000008000000000010031cb722c000000403defa2000f2
:0d646e00020000000000000000000000001f
:20647b0000000000000de41c00000264030a010000090a13870000a0000010f008403800b3
:20649b0000000000000240000f001002000000000000800000000000000f042a8000000e33
:2064bb0025f9480000000100b03c01000000000000002809901b920010000200c00a000023
:0d64db0001000000000000000000000000b3
:2064e8000000000000000000000000000000000040079e1aaf00802000000cf0400000000a
:2065080000000000000160000c34000808000000000020000000000000007baa8000002ecf
:2065280005dc400000000017f83e0000000000000000000700be800000000400000000009c
:0d654800003800000000000000000000000e
:2065550000000000f000000000000000000000004000109026004140000000f000000000bf
:206575000000000000400380ac3080000b0000000001000000000000000e9403c200000e66
:206595002dcb0000000000c0803c00000000000000000007807002820000000000000000f7
:0d65b50000080000000000000000000000d1
:2065c20000000000000000000008000015a550000000019366020008007a00a54001230020
:2065e200000000000cc80001cf041840000e00000000028000000008000e7f0ac40006267a
:2066020007fd34000000381504020000a00700000000000100daa2c000061c0000000000e7
:0d6622000200000000000000000000000069
