:02000000ff00ff
:080002004c6174746963650030
:17000a00694345637562653220323031372e30382e32373934300069
:16002100506172743a2069434534304858384b2d435432353600ff
:1b003700446174653a2053657020323720323032302030333a30363a30340080
:0200520000ffad
:040054007eaa997e69
:02005800510055
:02005a0001059e
:03005c00920020ef
:03005f00620367d2
:0300620072011018
:0300650082000016
:02006800110085
:02006a00010192
:20006c00000000000000000000000000000000000000000000000000000000000000000074
:20008c00000000000000000000000000000000000000000000000000000000000000000054
:2000ac00000000000000000000000000000000000000000000000000000000000000000034
:0d00cc000000000000000000000000000027
:2000d900000000000000000000000000000000000000000000000000000000000000000007
:2000f9000000000000000000000000000000000000000000000000000000000000000000e7
:200119000000000000000000000000000000000000000000000000000000000000000000c6
:0d01390000000000000000000000000000b9
:20014600000000000000000000000000000000000000000000000000000000000000000099
:20016600000000000000000000000000000000000000000000000000000000000000000079
:20018600000000000000000000000000000000000000000000000000000000000000000059
:0d01a6000000000000000400000000000048
:2001b30000000000000000000000000000000000000000000000000000000000000000002c
:2001d30000000000000000000000000000000000000000000000000000000000000000000c
:2001f3000000000000000000000000000000000000000000000000000000000000000000ec
:0d02130000000000000000000000000000de
:200220000000000000000000000000000000000000000000000000000000000000000000be
:2002400000000000000000000000000000000000000000000000000000000000000000009e
:2002600000000000000000000000000000000000000000000000000000000000000000007e
:0d0280000000000000000000000000000071
:20028d00000000000000000000000000000000000000000000000000000000000000000051
:2002ad00000000000000000000000000000000000000000000000000000000000000000031
:2002cd00000000000000000000000000000000000000000000000000000000000000000011
:0d02ed000000000000000000000000000004
:2002fa000000000000000000000000000000000000000000000000000000000000000000e4
:20031a000000000000000000000000000000000000000000000000000000000000000000c3
:20033a000000000000000000000000000000000000000000000000000000000000000000a3
:0d035a000000000000000000000000000096
:20036700000000000000000000000000000000000000000000000000000000000000000076
:20038700000000000000000000000000000000000000000000000000000000000000000056
:2003a700000000000000000000000000000000000000000000000000000000000000000036
:0d03c7000000000000000000000000000029
:2003d400000000000000000000000000000000000000000000000000000000000000000009
:2003f4000000000000000000000000000000000000000000000000000000000000000000e9
:200414000000000000000000000000000000000000000000000000000000000000000000c8
:0d04340000000000000000000010000000ab
:2004410000000000000000000000000000000000000000000000000000000000000000009b
:2004610000000000000000000000000000000000000000000000000000000000000000007b
:2004810000000000000000000000000000000000000000000000000000000000000000005b
:0d04a100000000000000000000000000004e
:2004ae0000000000000000000000000000000000000000000000000000000000000000002e
:2004ce0000000000000000000000000000000000000000000000000000000000000000000e
:2004ee000000000000000000000000000000000000000000000000000000000000000000ee
:0d050e0000000000000000000000000000e0
:20051b000000000000000000000000000000000000000000000000000000000000000000c0
:20053b000000000000000000000000000000000000000000000000000000000000000000a0
:20055b00000000000000000000000000000000000000000000000000000000000000000080
:0d057b000000000000000000000000000073
:20058800000000000000000000000000000000000000000000000000000000000000000053
:2005a800000000000000000000000000000000000000000000000000000000000000000033
:2005c800000000000000000000000000000000000000000000000000000000000000000013
:0d05e8000000000000000000000000000006
:2005f5000000000000000000000000000000000000000000000000000000000000000000e6
:200615000000000000000000000000000000000000000000000000000000000000000000c5
:200635000000000000000000000000000000000000000000000000000000000000000000a5
:0d0655000000000000000000000000000098
:20066200000000000000000000000000000000000000000000000000000000000000000078
:20068200000000000000000000000000000000000000000000000000000000000000000058
:2006a200000000000000000000000000000000000000000000000000000000000000000038
:0d06c200000000000000000000100000001b
:2006cf0000000000000000000000000000000000000000000000000000000000000000000b
:2006ef000000000000000000000000000000000000000000000000000000000000000000eb
:20070f000000000000000000000000000000000000000000000000000000000000000000ca
:0d072f0000000000000000000000000000bd
:200d5200000000000000000000000000000000000000000000000040000000000000000041
:200d7200000000000000000000000000000000000000000000000000000000000000000061
:0d0d92000000000000000000000000000054
:200d9f00000000000000000000000000000000000000000000000000000000000000000034
:200dbf000000000000000000000000000000000000000000000000400000000000000000d4
:200ddf000000000000000000000000000000000000000000000000000000000000000000f4
:0d0dff0000000000000000000000000000e7
:200e0c000000000000000000000000000000000000000000000000000000000000000000c6
:200e2c000000000000000000000000000000000000000000000000000000000000000000a6
:2014dc00406800000000000000000000000000000000000000000000000000000000000048
:2014fc000000000000000000000000000000000000000000000000000000000000000000d0
:20151c000000000000000000000000000000000000000000000000000000000000000000af
:0d153c0000000000000000000000000000a2
:20154900000200000000000000000000000000000000000000000000000000000000000080
:20156900000000000000000000000000000000000000000000000000000000000000000062
:20158900000000000000000000000000000000000000000000000000000000000000000042
:0d15a9000000000000000000000000000035
:2015b600000000000000000000000000000000000000000000000000000000000000000015
:2015d6000000000000000000000000000000000000000000000000000000000000000000f5
:2015f6000000000000000000000000000000000000000000000000000000000000000000d5
:0d16160000000000000000000000000000c7
:20162300800000000000000000000000000000000000000000000000000000000000000027
:20164300000000000000000000000000000000000000000000000000000000000000000087
:20166300000000000000000000000000000000000000000000000000000000000000000067
:0d168300000000000000000000000000005a
:201690004800000000000000000000000000000000000000000000000000000000000000f2
:2016b00000000000000000000000000000000000000000000000000000000000000000001a
:2016d0000000000000000000000000000000000000000000000000000000000000000000fa
:0d16f00000000000000000000000000000ed
:2016fd00082c00000000000000000000000000000000000000000000000000000000000099
:20171d000000000000000000000000000000000000000000000000000000000000000000ac
:20173d0000000000000000000000000000000000000000000000000000000000000000008c
:0d175d00000000000000000000000000007f
:20176a0000010000000000000000000000000000000000000000000000000000000000005e
:20178a0000000000000000000000000000000000000000000000000000000000000000003f
:2017aa0000000000000000000000000000000000000000000000000000000000000000001f
:0d17ca000000000000000000000000000012
:2017d7000000000000000000000000000000000000000000000000000000000000000000f2
:2017f7000000000000000000000000000000000000000000000000000000000000000000d2
:201817000000000000000000000000000000000000000000000000000000000000000000b1
:0d18370000000000000000000000000000a4
:20184400000000000000000000000000000000000000000000000000000000000000000084
:20186400000000000000000000000000000000000000000000000000000000000000000064
:20188400000000000000000000000000000000000000000000000000000000000000000044
:0d18a4000000000000000000000000000037
:2018b100000000000000000000000000000000000000000000000000000000000000000017
:2018d1000000000000000000000000000000000000000000000000000000000000000000f7
:2018f1000000000000000000000000000000000000000000000000000000000000000000d7
:0d19110000000000000000000000000000c9
:20191e00400000000000000000000000000000000000000000000000000000000000000069
:20193e00000000000000000000000000000000000000000000000000000000000000000089
:20195e00000000000000000000000000000000000000000000000000000000000000000069
:0d197e00000000000000000000000000005c
:20198b00080000000000000000000000000000000000000000000000000000000000000034
:2019ab0000000000000000000000000000000000000000000000000000000000000000001c
:2019cb000000000000000000000000000000000000000000000000000000000000000000fc
:0d19eb0000000000000000000000000000ef
:2019f8000000000000000000000000000000000000000000000000000000000000000000cf
:201a18000000000000000000000000000000000000000000000000000000000000000000ae
:201a380000000000000000000000000000000000000000000000000001000000000000008d
:0d1a58000000000000000000000000000081
:201a65008000000000000000000000000000000000000000000000000000000000000000e1
:201a8500000000000000000000000000000000000000000000000000000000000000000041
:201aa500000000000000000000000000000000000000000000000000000000000000000021
:0d1ac5000000000000000000000000000014
:201ad2004000000000000000000000000000000000000000000000000000000000000000b4
:201af200000000000000000000000000000000000000000000000040000000000000000094
:201b12000000000000000000000000000000000000000000000000000000000000000000b3
:0d1b320000000000000000000000000000a6
:201b3f00000000000000000000000000000000000000000000000000000000000000000086
:201b5f00000000000000000000000000000000000000000000000040000000000000000026
:201b7f00000000000000000000000000000000000000000000000000000000000000000046
:0d1b9f000000000000000000000000000039
:201bac004000000000000000000000000000000000000000000000000000000000000000d9
:201bcc000000000000000000000000000000000000000000000000000000000000000000f9
:201bec000000000000000000000000000000000000000000000000000000000000000000d9
:0d1c0c0000000000000000000000000000cb
:201c1900180000000000000000000000000000000000000000000000000000000000000093
:201c390000000000000000000000000000000000000000000000000000000000000000008b
:201c590000000000000000000000000000000000000000000000000000000000000000006b
:0d1c7900000000000000000000000000005e
:201c860000000000000000000000000000000000000000000000000000000000000000003e
:201ca60000000000000000000000000000000000000000000000000000000000000000001e
:201cc6000000000000000000000000000000000000004000000000000000000000000000be
:0d1ce60000000000000000000000000000f1
:201cf300800000000000000000000000000000000000000000000000000000000000000051
:201d13000000000000000000000000000000000000000000000000000000000000000000b0
:201d3300000000000000000000000000000000000000000000000000000000000000000090
:0d1d53000000000000000000000000000083
:201d600044000000000000000000000000000000000000000000000000000000000000001f
:201d8000000000000000000000000000000000000000000000000000000000000000000043
:201da0000000000000000000000000000000000000004000000000000000000000000000e3
:0d1dc0000000000000000000000000000016
:201dcd000800000000000000000000000000000000000000000000000000000000000000ee
:201ded000000000000000000000000000000000000000000000000000000000000000000d6
:201e0d000000000000000000000000000000000000000000000000000000000000000000b5
:0d1e2d0000000000000000000000000000a8
:201e3a00000100000000000000000000000000000300000000000000000000000000000084
:201e5a00000000000000000000000000000000000000000000000000000000000000000068
:201e7a00000000000000000000000000000000000000000000000000000000000000000048
:0d1e9a00000000000000000000000000003b
:201ea70000000000000000000000000000000000000000000000000000000000000000001b
:201ec7000000000000000000000000000000000000000000000000000000000000000000fb
:201ee7000000000000000000000000000000000000000000000000000000000000000000db
:0d1f070000000000000000000000000000cd
:201f1400003800000000000000000000000000000000000000000000000000000000000075
:201f340000000000000000000000000000000000000000000000000000000000000000008d
:201f540000000000000000000000000000000000000000000000000000000000000000006d
:0d1f74000000000000000000000000000060
:201f8100000000000000000000000000000000000000000000000000000000000000000040
:201fa100000000000000000000000000000000000000000000000000000000000000000020
:201fc100000000000000000000000000000000000000000000000000000000000000000000
:0d1fe10000000000000000000000000000f3
:201fee000000000000000000000000000000000000000000000000000000000000000000d3
:20200e000000000000000000000000000000000000000000000000000000000000000000b2
:20202e00000000000000000000000000000000000000000000000000000000000000000092
:0d204e000000000000000000000000000085
:20205b00000000000000000000000000000000000000000000000000000000000000000065
:20207b00000000000000000000000000000000000000000000000000000000000000000045
:20209b000000000000380000000000000000000000000000000000000000000000000000ed
:0d20bb000000000000000000000000000018
:2020c8000000000000000000000000000000000000000000000000000000000000000000f8
:2020e8000000000000000000000000000000000000000000000000000000000000000000d8
:202108000000000000000000000000000000000000000000000000000000000000000000b7
:0d21280000000000000000000000000000aa
:20213500000000000400000000000000000000000000000000000000000000000000000086
:2021550000000000000000000000000000000000000000000000000000000000000000006a
:2021750000000000000000000000000000100000000000000000000000000000000000003a
:0d219500000000000000000000000000003d
:2021a20000000000000000000000000000000000000000000000000000000000000000001d
:2021c2000000000000000000000000000000000000000000000000000000000000000000fd
:2021e2000000000000000000000000000000000000000000000000000000000000000000dd
:0d22020000000000000000000000000000cf
:20220f000000000000000000000000000000000000000000000000000000000000000000af
:20222f0000000000000000000000000000000000000000000000000000000000000000008f
:20224f0000000000000000000000000000000000000000000000000000000000000000006f
:0d226f000000000000000000000000000062
:20227c004004000000000000000000000000000000000000000000000000000000000000fe
:20229c00000000000000000000000000000000000000000000000000000000000000000022
:2022bc00000000000000000000000000000000000000000000000000000000000000000002
:0d22dc0000000000000000000000000000f5
:2022e9000032000000000000000000000000000000000000000000000000000000000000a3
:202309000000000000000000000000000000000000000000000000000000000000000000b4
:20232900000000000000000000000000000000000000000000000000000000000000000094
:0d2349000000000000000000000000000087
:20235600000000000000000000000000000000000000000000000000000000000000000067
:20237600000000000000000000000000000000000000000000000000000000000000000047
:20239600000000000000000000000010000000000000000000000000000000000000000017
:0d23b600000000000000000000000000001a
:2023c3009800000000000000000000000000000000000000000000a00000000000000000c2
:2023e3000000000000000000000000000000000000000000000000000000000000000000da
:202403000000000000000000000000000000000000010000000000000000000000000000b8
:0d24230000000000000000000000000000ac
:202430004068000000000000000000000000000000000000000000000000000000000000e4
:2024500000000000000000000000000000000000000000000000000000000000000000006c
:2024700000000000000000000000000000000000000000000000000000000000000000004c
:0d249000000000000000000000000000003f
:20249d00080000000000000000000000000000000000000000000000000000000000000017
:2024bd000000000000000000000000000000000000000000000000000000000000000000ff
:2024dd000000000000000000000000000000000000000000000000000000000000000000df
:0d24fd0000000000000000000000000000d2
:20250a000001000000000000000000000000000000000000000000000000000000000000b0
:20252a000000000000000000000000000000000000000e0000000000000000000000000083
:20254a000000000000000000000000008000000000000000000000000000000000000000f1
:0d256a000000000000000000000000000064
:20257700000000000000000000000000000000000000000000000000000000000000000044
:20259700000000000000000000000000000000000000000000000000000000000000000024
:2025b700000000000000000000000000000000000000000000000000000000000000000004
:0d25d70000000000000000000000000000f7
:2025e4000000000000000000000000000000000000000000000000000000000000000000d7
:202604000000000000000000000000000000000000000000000000000000000000000000b6
:20262400000000000000000000000000000000000000000000000000000000000000000096
:0d2644000000000000000000000000000089
:20265100000000000000000000000000000000000000000000000000000000000000000069
:20267100000000000000000000000000000000000000000000000000000000000000000049
:20269100000000000000000000000000000000000000000000000000000000000000000029
:0d26b100000000000000000000000000001c
:2026be004800010000000000000000000000000000000000000000080000000000000000ab
:2026de000000000000000000000000000000000000000600000000000000000000000000d6
:2026fe000000000000000000000000000000000000000000000000000000000000000000bc
:0d271e0000000000000000000000000000ae
:20272b00080002000000000000000000000000000000000000000000000000000000000084
:20274b0000000000000000000000000000000000000000000000000000000000000000006e
:20276b0000000000000000000000000000000000000000000000000000000000000000004e
:0d278b000000000000000000000000000041
:2027980004000000000000000000000000000000000000000000000000000000000000001d
:2027b800000000000000000000000000000000000000000000000000000000000000000001
:2027d8000000000000000000000000000000000000000000000000000000000000000000e1
:0d27f80000000000000000000000000000d4
:20280500800000000000000000000000000000000000000000000000000000000000000033
:20282500000000000000000000000000000000000000000000000000000000000000000093
:20284500000000000000000000000000000000000000000000000000000000000000000073
:0d2865000000000000000000000000000066
:20287200400000000000000000000000000000000000000000000000000000000000000006
:20289200000000000000000000000000000000000000000000000000000000000000000026
:2028b200000000000000000000000000000000000000000000000000000000000000000006
:0d28d20000000000000000000000000000f9
:2028df000000000000000000000000100000000000000000000000000000000000000000c9
:2028ff000000000000000000000000000000000000000000000000000000000000000000b9
:20291f00000000000000000000000000000000000000000000000000000000000000000098
:0d293f00000000000000000000000000008b
:20294c0040000000000000000000000000000000000000000000000000000000000000002b
:20296c0000000000000000000000000000000000000000000000000000000000000000004b
:20298c0000000000000000000000000000000000000000000000000000000000000000002b
:0d29ac00000000000000000000000000001e
:2029b9000002000000000000000000000000000000000000000000000000000000000000fc
:2029d9000000000000000000000000000000000000000000000000000000000000000000de
:2029f9000000000000000000000000000000000000000000000000000000000000000000be
:0d2a190000000000000000000000000000b0
:202a2600000000000000000000000000000000000000000000000000000000000000000090
:202a4600000000000000000000000000000000000000000000000000000000000000000070
:202a6600000000000000000000000000000000000000000000000000000000000000000050
:0d2a86000000000000000000000000000043
:202a93008000000000000000000000000000000000000000000000000000000000000000a3
:202ab300000000000000000000000000000000000000000000000000000000000000000003
:202ad3000000000000000000000000000000000000000000000000000000000000000000e3
:0d2af30000000000000000000000000000d6
:202b00004c0000000000000000000000000000000000000000000000000000000000000069
:202b2000000000000000000000000000000000000000000000000000000000000000000095
:202b4000000000000000000000000000000000000000000000000000000000000000000471
:0d2b60000000000000000000000000000068
:202b6d000c000000000000000000000000000000000000000000000000000000000000003c
:202b8d00000000000000000000000000000000000000000000000000000000000000000028
:202bad00000000000000000000000000000000000000000000000000000000000000000008
:0d2bcd0000000000000000000000000000fb
:202bda000001000000000000000000000000000000000000000000000000000000000000da
:202bfa000000000000000000000000000000000000000000000000000000000000000000bb
:202c1a0000000000000000000000000000000000000000000000000000000000000000009a
:0d2c3a000000000000000800000000000085
:202c470000000000000000000000000000000000000000000000000000000000000000006d
:202c670000000000000000000000000000000000000000000000000000000000000000004d
:202c870000000000000000000000000000000000000000000000000000000000000000002d
:0d2ca700000000000000040000000000001c
:202cb400000000000000000000000000000000000000000000000000000000000000000000
:202cd4000000000000000000000000000000000000000000000000000000000000000000e0
:202cf4000000000000000000000000000000000000000000000000000000000000000000c0
:0d2d140000000000000000000000000000b2
:202d2100000000000000000000000000000000000000000000000000000000000000000092
:202d4100000000000000000000000000000000000000000000000000000000000000000072
:202d6100000000000000000000000000000000000000000000000000000000000000000052
:0d2d81000000000000000000000000000045
:202d8e004404002800000000000000000000000000000000000000000000000000000000b5
:202dae00000000000000000000000000000000000000000000000000000000000000000005
:202dce000000000000000000000000000000000000000000000000000000000000000000e5
:0d2dee0000000000000000001000000000c8
:202dfb000c3c00000000000000000000000000000000000000000000000000000000000070
:202e1b00000000000000000000000000000000000000000000000000000000000000000097
:202e3b00000000000000000000000000000000000000000000000000000000000000000077
:0d2e5b00000000000000000000000000006a
:202e680000000000000000000000000000000000000000000000000000000000000000004a
:202e88000000000000000000000000000000000000000000000000400000000000000000ea
:202ea80000000000000000000000000000000000000000000000000000000000000000000a
:0d2ec80000000000000000000000000000fd
:202ed50080000000000000000000000000000000000000000000000000000000000000005d
:202ef5000000000000000000000000000000000000000000000000000000000000000000bd
:202f150000000000000000000000000000000000000000000000000000000000000000009c
:0d2f3500000000000000000000000000008f
:202f42004068000000000000000000000000000000000000000000000000000000000200c5
:202f620000000000000000000000000000000000000000000000000000000000000000004f
:202f820000000000000000000000000000000000000000000000000000000000000000002f
:0d2fa2000000000000000000000000000022
:202faf000000000000000000000000000000000000000000000000000000000000000400fe
:202fcf000000000000000000000000000000000000000000000000000000000000000000e2
:202fef000000000000000000000000000000000000000000000000000000000000000000c2
:0d300f0000000000000000000000000000b4
:20301c00400000000000000000000000000000000000000000000000000000000000000054
:20303c00000000000000000000000000000000000000000000000000000000000000000074
:20305c00000000000000000000000080000015e5541c000000bbbd50100000000000000092
:0d307c000000000000000000000000000047
:203089000036000000000000000000000000000000000000000000000000000000000000f1
:2030a900000000000000000000000000000000000000000000000000000000000000000007
:2030c90000000000000000000000000000000105510000000058280400000000000000000c
:0d30e90000000000000000000000000000da
:2030f6000000000000000000000000000000000000000000000001000000000000000000b9
:20311600000000000000000000000000000000000000000000000000000000000000000099
:203136000000000000000000000000e0000000000003800000000000000000000000000115
:0d315600000000000000000000000000006c
:203163008000000000000000000000000000000000000000000000000000000000000000cc
:2031830000000000000000000000000000000000000000000000000000000000000000002c
:2031a300000000000000000000000000000000000000000000000000000100000000000209
:0d31c300800000000000000000000000007f
:2031d00040000000000000000000000000000000000040000000000000000000000000005f
:2031f0000000000000000000000000000000000000000000000000000000000000010000be
:20321000000000000000000000000010020000000003000000000000010000000000000088
:0d3230000000000000000000000000000091
:20323d00080000000000000000000000000000000000000000000000000000000000000069
:20325d00000000000000000000000000000000000000000000000000000000000000000051
:20327d000000000000000000000000100040000000010000000000000000000000000000e0
:0d329d000000000000000000000000000024
:2032aa00000100000000000000000000000000000000000000000000000000000000000003
:2032ca000000000000000000000000000000000000000000000000000000000000000000e4
:2032ea000000000000000000000000000000000000000001000000000000000000000000c3
:0d330a0000000000000000000000000000b6
:20331700000000000000000000000000000000000000000000000000000000000000000096
:20333700000000000000000000000000000000000000000000000000000000000000000076
:203357000000000000000000000000000000000000000000800000000000000000000000d6
:0d3377000000000000000800000000000041
:20338400000000000000000000000000000000000000000000000000000000000000000029
:2033a400000000000000000000000000000000000000000000000000000000000000000009
:2033c4000000000000000000000000000000000000000000010000000000000000000000e8
:0d33e40000000000000000000000000000dc
:2033f1000000000000000000000000000000000000000000000000000000000000000000bc
:2034110000000000000000000000000000000000000000000000000000000000000000009b
:2034310000000000000000000000000000000000000000000d00000000000000000000006e
:0d345100000000000000000000000000006e
:20345e004400000000000000000000000000000040000000000000000000000000000000ca
:20347e000000000000000000000000000000000000000000000000000000000000000040ee
:20349e0000000000000100000000000000000000000000001e0000000000000000000004eb
:0d34be000000000000000000000000000001
:2034cb000c3400000000000000000000000000004000000000000000000000000000000061
:2034eb00000000000000000000000000000000000000000000000000000000000000008041
:20350b0000000000000200000000000000000000000000000000000000000000000000009e
:0d352b000000000000000000000000000093
:20353800000000000000000000000000000000000000000000000000000000000000000073
:20355800000000000000000000000000000000000000000000000000000000000001020050
:2035780000000000000000000000000000000000000000000000000000080000000000002b
:0d3598000000000000000000000000000026
:2035a500800000000000000000000000000000000000000000000000000000000000000086
:2035c5000000000000000000000000000000000000000000000000000000000000000000e6
:2035e500000000000000000000000000000000000000000f000000000000000000000000b7
:0d36050000000000000000000000000000b8
:20361200400000000000000000000000000000000000000000000000000000000000000058
:20363200000000000000000000000000000000000000000000000000000000000000000078
:2036520000000000000000000000000a00000000000000000000000000000000000000004e
:0d367200000000000000000000000000004b
:20367f0000000000000000000000000000000000000000000000000000000000000000002b
:20369f0000000000000000000000000000000000000000000000000000000000000000000b
:2036bf00000000000000000000000004000380000000000000000000000000000000000064
:0d36df0000000000000000000000000000de
:2036ec0040000000000000000000000000000000000000000000000000000000000000007e
:20370c0000000000000000000000000000000000000000000000000000000000000042005b
:20372c0000000000000000000000000000003eaa518000000000000000469c05e10080007c
:0d374c00000000783c40000000000000007c
:2037590000020000000000000000000000000000000000000000000000000000000000004e
:20377900000000000000000000000000000000000000000000000000000000000000000030
:203799000000000000000000000000000240070aa000000109000000000042282a0000007f
:0d37b900000000003c000000024000000085
:2037c6000030000000000000000000000000000000000000000000000000000000000000b3
:2037e600000000000000000000000040000000000000000000000000000000000000000083
:2038060000000000000078000000000004000ca5e000000000b3294000000000e89680007b
:0d3826003001e00000000008000fe250003b
:2038330098000080000000000000000000000000000000000000000000000000001000004d
:20385300000000000000000000000000000000000000000000000000000000000000000055
:2038730000000000000000000000000008c01efa8000000000382a88000000000a9600004b
:0d3893000000000000000005c00fa20000b2
:2038a0004c00000000000000000000000000000000000000000000000000000000000000bc
:2038c0000000000000000000000000000000000000000000000000000000000000000000e8
:2038e00000000000000200000000000009e04eca0200030800832800000c0000c99680041e
:0d3900000801e76300000000000000000067
:20390d000c000000000000000000000000000000000000000000000000000000000000008e
:20392d000000000000000000000000000000000000000000000000000000000000008000fa
:20394d000000000000000000000000000022ccfa0000000f0074140000003d002e960000da
:0d396d0000010d7b00000003c00000000001
:20397a00040100000000000000000000000000000000000000000000000000000000000028
:20399a000000000000000000000000000000000000010000000000001000000000000000fc
:2039ba000000000006800000000000000000000000000000003b294000003600499680002e
:0d39da003870000000000000000de25000f9
:2039e7000000000000000000000000000000000000000000000000000000000000000000c0
:203a070000000000000000000000000000000000000100000000000020000000000000007e
:203a2700000000000400f00000000000000000000000000000502a82000014002a960000bb
:0d3a47000008000000000000000fa20004b5
:203a5400000000000000000000000000000000000000000000000000000000000000000052
:203a7400000000000000000000000000000000000000000000000000000000000000000032
:203a940000000000000000000000000401c7cce3300000038eb7a8000040203dc8968000fc
:0d3ab4000801e0000000000963c0000000f0
:203ac1000000000000000000000000000000000000000000000000000000000000000000e5
:203ae1000000000000000000000000000000000000000000000000000000000000000000c5
:203b010000000000000000000000000a07e7d68ff1000007ce77e80000807c280d9600005b
:0d3b21000001000000000805c300000000c6
:203b2e00400000000000000000000000000000000000000000000006000000000000000031
:203b4e00000000000000000000000000000000000000000100000000000000000000000056
:203b6e0000000000000000000000001000e000000000538f007b280000002000c9968000c3
:0d3b8e00003805f0940000000045eca01088
:203b9b000c00000000000000000000000000000000000000000000000000000000000000fe
:203bbb000000000000000000000000000000000000000000000000000000000000000000ea
:203bdb00000000000000b00000000000000000000000080b0800280000001c000e96000017
:0d3bfb0000980b3ca8800000034fac500068
:203c080000000000000000000000001000000000000000000000000000000000000000008c
:203c28000000000000000000000000000000000000000000000000010000000000000280f9
:203c48000000000004005809eab080004807c000000042000e57e3c00100207c4896800485
:0d3c680000b8077604000000000cf5d01035
:203c75008000000000000000000000000000000000000000000000000000000000000000af
:203c950000000000000000000000000000000000000000000000000000000000000000000f
:203cb500000000000000000339b00000024300000000000000337bc000001c380f960080d7
:0d3cd50000b0e73908000000024f80d00069
:203ce20040680000000000000000000000000000000000000000000000000000000000001a
:203d02000000000000000000000000000000000000000000000000000000000000000000a1
:203d2200000000000000000000000000000040000000080781123140c0002475e8968000d7
:0d3d42000038c7aa800100040380000000c3
:203d4f00000000000000000000000000000000000000000000000000000000000000000054
:203d6f00000000000000000000000000000000000000000000000000000000000000000034
:203d8f00000000000000000000000001000340000000040f0e0431400000be282f9600008f
:0d3daf0000f100c2800000080000000000cc
:203dbc004000000000000000000000000000000000000000000000000000000000000000a7
:203ddc00000000000000000000000000000000000000000000000000010070002000000036
:203dfc000000000001001000000000000247a4ec000400000a78402000040e71c896800076
:0d3e1c00029809019a00002806f5c74a0027
:203e2900000200000000000000000000000000000000000000000000000000000000000077
:203e4900000000000000000000000000000000000000000000000000008000000080000059
:203e6900000000000000f8000000000001c41ccc000020001b0b0000008042002b960400c7
:0d3e890000580d399800000002a6ee200040
:203e9600000400000000000000000000000000000000000000000000000000000000000008
:203eb600000000000000000000000000000000000000000000000000051c18402000010052
:203ed60000000000000078fd72944000000001aa30000000007a25a0000000016996800077
:0d3ef600000015a25a0000e167de99680087
:203f03008030000000000000000000000000000000000000000000010000000000000000ed
:203f2300000000000000000000000000000000000000008000000000009c0a8000000000d8
:203f430000000000000099e9c1540100000024b530000009000a6584000024300c960000cb
:0d3f63000000b03e580040e00342996000ad
:203f70004000000000000000000000000000000000000000000000000000000000000000f1
:203f90000000000000000000000000000000000000000000000000000000104020010000a0
:203fb00000000000040a71e761dc0010014060ce202000001a5a25a800220031e9330001de
:0d3fd000008005a25a0010436014896804a7
:203fdd000c00000000000000000000000000000000000000000000000000000000000000b8
:203ffd000000000000000000000000000000000000000000000000000000024000008040a2
:20401d000000000000000107ab7440000023dd0d10100000000a658000c00000e8cc01008b
:0d403d00003000be580000014240d9600074
:20404a00000100000000000000000000000000000000000000000000000000000000000055
:20406a000000000000000000000000000000000000000000000000000800184020000000b6
:20408a000000000000007009e0840100004000aa00000008015225a800000c787b8d00009a
:0d40aa0000b1e3a65a00000200148968006e
:2040b7000000000000000000000000000000000000000000000000000000000000000000e9
:2040d700000000000000000000000000000000000000000000000000070c0b80000000012a
:2040f700000000000000080b6388000000202405000000070a0be580000000787b0c0100e1
:0d41170000f1f03a580000114000e960107e
:2041240000000000000000000000000000000000000000000000000000000000000000007b
:204144000000000000000000000000000000000000000000000000000000184020000000e3
:204164000000000000007007f280040400c200000000000f1c7265a0000280380ca0000080
:0d4184001a8007a65a000002005c8968003e
:2041910000000000000000000000000000000000000000000000000000000000000000000e
:2041b1000000000000000000000000000000000000000000000000000000024000000000ac
:2041d10000000000000000004280000001e00000000000070e02258800a03422d05000024f
:0d41f100807000ba58000001c3829960047c
:2041fe00440400000000000000000000000000000000000000000000000000000000000059
:20421e00000000000000000000000000000000000000000000000000000018002000000048
:20423e0000000000000000f000000000000005e021000008007225a401408e000000000058
:0d425e00388183225a000009e00e896800b3
:20426b000c30000000000000000000000000000000000000000000000000000000000004f3
:20428b0000000000000000000000000000000000000000000000000000000bc00000000048
:2042ab0000000000000000c00000000000001cca10000005000b258000a1400000000002a5
:0d42cb0085f1002a58000017c0009960001e
:2042d8000000000000000000000000000000000000000000000000000000000000000000c6
:2042f8000000000000000000000000000000000000000000000000008100184020000200ab
:2043180000000000000050c37a944000420004ea00000228083225a00022203e4ea000015c
:0d433800001993a65a000001c39689690080
:204345008000000000000000000000000000000000000000000000000000000000000000d8
:2043650000000000000000000000000000000000000000000000000007880a40000000005f
:2043850000000000000001ef2000000001c0020a000000cf090b258400616c3bef50000068
:0d43a500200990a658000403e7c0c960007d
:2043b2004000000000000000000000000000000000000000000000000000000000000004a7
:2043d200000000000000000000000000000000000000000000000020080070402001400092
:2043f200000000000000000f6a80400000e01fa211001000093265a0000000200000000050
:0d441200059811265a000000069c996800cc
:20441f0000000000000000000000000000000000000000000000000000000000000000007d
:20443f000000000000000000000000000000000000000000000000140b0002c000018000fb
:20445f00000000000040d007b2800000002024bd100004001a0aa5820010007c0000000008
:0d447f004298f02a580001200002896000d8
:20448c004000000000000000000000000000000000000000000000000000000000000000d0
:2044ac00000000000000000000000000000000000000000000000000080072291400000039
:2044cc00067e5e0000087807fbd5000014406ca08004108000023c0000241e0641008000dc
:0d44ec00221803225a0000e7e78c996a00ad
:2044f9000000000000000000000000000000000000000000000000000000000000000000a3
:204519000000000000000000000000000000000000000000000000002700b23943500000dd
:2045390039d95400000000834140210806433de00010000000003c010040003e49ff004214
:0d455900b008f03a58100a097740d96040c8
:20456600000400000000000000000000000000000000000000000000000000000000000031
:20458600000000000000000000000000000000000000000000000380000800000000001c6e
:2045a60001caac023800f0017bd5410000003eba730400080cf2e80010009e3d489680001c
:0d45c60000b81023c0000020000c99680010
:2045d300802800000000000000000000000000000000000000000000000000000000000020
:2045f300000000000000000000000000000000000000000000000000001000000000003e5a
:2046130002d09c0000385803c2800200e9c25dc9b000004b10b26800000100342f96100042
:0d46330008b8e003c00000000380d960005b
:2046400040000000000000000000000000000000000000000000000000000000000000001a
:20466000000000000000000000000000000000000000000000000000000000000001000039
:204680007a7f5e00300000e162810000fc0781ac00204025803f604000000020689680001d
:0d46a000940003fc80801408000489680069
:2046ad000c00000000000000000000000000000000000000000000000000000000000000e1
:2046cd0000000000000000000000000000000000000000000000000000000000000080004d
:2046ed003f5f54003008000703d4c0000002410c0000000000579080000000002f96010168
:0d470d0002d00f29c00002040000896000e6
:20471a0000010000000000000000000000000000000000000000000000000000000000007e
:20473a00000000000000000000000000000000000000000000000000000e00000000000150
:20475a003dcaac0200388009aa944008620046ec0000832000fb6940000ea000e9968001ba
:0d477a000278000000000600007e93300071
:20478700000000000000000000000000000000000000000000000000000000000000000012
:2047a7000000000000000000000000000000000000000000000000000000000000000000f2
:2047c7007ff09c000000b00542a8040001c3ceec0000005000b7000000015c38089600422a
:0d47e7008400000000000a00039ebcc0001a
:2047f4000000000000000000000000000000000000000000000000000000000000000000a5
:2048140000000000000000000000000000000000000000000000000020000000000040061e
:20483400214cd10b4002f8006f88400001c384ca5000008009f7a9400084000168968101da
:0d485400011803e484401013c3800000002d
:20486100000000000000000000000000000000000000000000000000000000000000000037
:20488100000000000000000000000000000000000000000000000000000c0000000000000b
:2048a1007820d1110001b80d2344000000041c90000020001c101548204e7c00299600004e
:0d48c10006b809b388001209e000000000ed
:2048ce000000000000000000000000000000000000000000000000000000000000000000ca
:2048ee000000000000000000000000000000000000000000000000000000dbf74000000098
:20490e0002d8002200000001f2800100005026e55100000108000000000a1c28e996810016
:0d492e000070e0000000008006458a0000d7
:20493b0000000000000000000000000000000000000000000000000000000000000000005c
:20495b000000000000000000000000000000000000000e00000000000000fe6ec000000002
:20497b0003600200000000e04280000003e0340550000000990000000000366c2c960000ac
:0d499b003878000000000000066f9a02004e
:2049a8000000000000000000000000000000000000000000000000000000000000000000ef
:2049c800000000000000000000000000000000000000000000000000081c00000001001e8c
:2049e800340000000000f9c83a8000100660000000001b97003b280000011c28e896810031
:0d4a08000278e12bd4001000000000000037
:204a1500000000000000000000000000000000000000000000000000000000000000000081
:204a350000000000000000000000000000000000000000000000000001100000000000024e
:204a550028000000000038010140800003c0000000003817800428004000006c2c960000f3
:0d4a750001010302800000040000000000a9
:204a8200000000000000000000000000000000000000000000000000000000000000000014
:204aa2000000000000000000000000000000000000000000000000000000000000000004f0
:204ac2006c000000000139d1fa80000001c225c400000029003aa800000e8001c9968109b4
:0d4ae200020001e38808000a0380000000c4
:204aef000000000000000000000000000000000000000000000000000000000000000000a7
:204b0f00000000000000000000000000000000000000000000000000000c0000000000007a
:204b2f007c0000000007f9f002800100164414d4a080005b00082800000140000a960002a7
:0d4b4f0084b0004388000012c40000000084
:204b5c00000000000000000000000000000000000000000000000000000000000000000039
:204b7c00000000000000000000000000000000000000000000000000070870402000000436
:204b9c00621aa000011281a86a80800000001610080011000c3840200002060148968002eb
:0d4bbc0080808d7bcc000008e6ad934000aa
:204bc9000002000000000000000000000000000000000000000000000000000000000000ca
:204be9000000000000000000000000000000000000000000000000000000028000008000aa
:204c090000405008001870e301400000000282e00000299000030000000002002e9605005c
:0d4c290030700b2d100400042427e2000061
:204c360000000000000000000000000000000000000000000000000000000000000000005e
:204c560000000000000000000000000000000000000000000000000008005783e000001e5e
:204c760068cfa020001881e10294400005600e8968000000007a65a000008070c996800025
:0d4c96000050000000000002026feb9000d3
:204ca3000000000000000000000000000000000000000000000000000000000000000000f1
:204cc30000000000000000000000000000000000000000000000000009000643c0000216a7
:204ce30041f8a0000005f00900000002094002d961000000000be580200140402996010082
:0d4d03002008000000000803c7cf83400017
:204d1000000000000000000000000000000000000000000000000000000000000000000083
:204d3000000000000000000000000000000000000000000000000000018010002000004171
:204d5000007aa02000100081a280400008069e9968003b60003a25a00000dc00c896800510
:0d4d70009a01d3aa800002040034e18020e3
:204d7d00000000000000000000000000000000000000000000000000000000000000000016
:204d9d000000000000000000000000000000000000000000000000000000034000000000b3
:204dbd000020a0000000010fee8000007400008960041070000be580000280302a960101d3
:0d4ddd003070e0c28040040043640af00022
:204dea000000000000000000000000000000000000000000000000000000000000000000a9
:204e0a000000000000000000000000000000000000000000000000000f9838402000001435
:204e2a00037ff5304102800b2280000002004489680000280a5a25a000002000e9968001a9
:0d4e4a000078a36bd4200a000007eac02402
:204e570000000000000000000000000000000000000000000000000000000000000000003b
:204e77000000000000000000000000000000000000000000000000000d0802c000000174cf
:204e97003dcbf7080284b007e5400008014382f9600400c70f0be58000002c000f9601024d
:0d4eb7008008094280050400003409c20093
:204ec4000000000000000000000000000000000000000000000000000000000000000000ce
:204ee400000000000000000000000000000000000000000000000000050038002000400011
:204f040075eec002008000002280000002030689681000c01e3265a000006028e89680019e
:0d4f24000280e7b2800008a803c5ca0000a3
:204f3100000000000000000000000000000000000000000000000000000000000000000060
:204f5100000000000000000000000000000000000000000000000000000f03c0000000006e
:204f710036f0c020010000eb4140000805c400c96000008f0e0b658000005c6c0c9600407c
:0d4f9100185000428020000407c20a0008ea
:204f9e004c0000000000000000000000000000001000000000000000000000000000000097
:204fbe000000000000000000000000000000000000000000000000404388184020000080d0
:204fde0073d8bb00002400033a80000408001499681000151b7a25a000001402e8330101f9
:0d4ffe00b200f97c8400000140400000007a
:20500b000c0000000000000000000000000000000800000000000000000000000000000071
:20502b0000000000000000000000000000000000000000000000000027900340000000006b
:20504b0042c8dd080002b000c2800000134242a96000007b0e026580200c362d68cc00028d
:0d506b000400b17f880100002380000000d8
:20507800000000000000000000000000000000000000000000000000000000000000000018
:205098000000000000000000000000000000000000000000000000000f0e36f7600000242a
:2050b80038c8a010000201c00000001000029e89680001a0185a25a0004014200000000870
:0d50d800020007e280000006002e8a500052
:2050e500980000000000000000000000000000000000000000000000000000000000000013
:205105000000000000000000000000000000000000000000000000008f9073aec200001e6a
:205125006030a000000001c00000000006c6c2f9600400401f0b6580000c024000000004ed
:0d51450000000002802000afc02dd000103f
:205152004004000000000000000000000000000000000000000000000000000000000000f9
:20517200000000000000000000000000000000000000000000000000570e5bc3e000001c9e
:205192000000000000000001ba04000010c00e8969000007ca3265a000400021eea0000077
:0d51b2002080fdfc08001a01e7df921000cc
:2051bf00002c000000000000000000000000000000000000000000000000000000000000a4
:2051df0000000000000000000000000000000000000000000000000020900a83c000001c97
:2051ff00240000000000d00f660480000262c0e9600000000a02a58000ae007c30a000000b
:0d521f0000b1f1768480100003a5fd100899
:20522c004000000000000000000000000000000040000000000000000000000000000000e2
:20524c000000000000000000000000000000000000000000000000000018184020004284ec
:20526c00000e991000b0000332808002c0001e9968000000005a25a01041540259a00800de
:0d528c000001e3a408000002006caa040861
:205299000002000000000000000000000000000000000000000000000000000000000000f3
:2052b900000000000000000000000000000000000000000000000000000b030001002000a6
:2052d9002dcf66000200000082800000000000e9614001ad000aa58100a08201dca0000048
:0d52f9000001076800020003c2550f50803d
:20530600000000000000000000000000000000000000000000000000000000000000000087
:20532600000000000000000000000000000000000000000000000020079938402000803c53
:20534600006804000001b80873140400020016996800280d001225a000000020cb1a000263
:0d536600828007b57820e001c734ef5508bc
:2053730080000000000000000000000000000000000000000000000000000000000000009a
:2053930000000000000000000000000000000000000000000000001000880b400000000413
:2053b3003cff18000002589b7b280004034000c96100380d8b03a58000000043ce1920013b
:0d53d30005f009f224000421e00f0a00009b
:2053e0004c0000000000000000000000000000000000000000000000000000000000000061
:20540000000000000000000000000000000000000000000000000000011e7000200040009d
:2054200028ce91030000380baa8000101002d689680010050a7a65a000001e0000000000d0
:0d54400004000b6e8001c060e776cf5600bf
:20544d000c0000000000000000000000000000000000000000000000000000000000000033
:20546d0000000000000000000000000000000000000000000000002280d00a400000000063
:20548d0003e0dc00002800f7f94000000807c2b960102800900ba580000e3c0000000000bc
:0d54ad000000cd3a8000400027dd0a01001c
:2054ba000001000000000000000000000000000000000000000000000000000000000000d1
:2054da00000000000000000000000000000000000000a0000000000000007a83e000003401
:2054fa0076faa000010180e5e694000015e2d68968000008015225a0020b40040000000171
:0d551a000778e00000002804400dcf558008
:20552700000000000000000000000000000000000000000000000000000000000000000064
:20554700000000000000000000000000000000000000400000000001870b0e43c000003e22
:205567007d68a000408f510db40000000007c2e9601000c50a0be5800000803800000002a3
:0d558700057800000000040a601c0a000006
:205594000000000000000000000000000000000000000000000000000100000000000000f6
:2055b400000000000000000000000000000000000000000000000000000138002000001c62
:2055d40079cdaf31000078c9ae8000000000008f00000800003a65a001c000005af520001c
:0d55f4000a5013a194000002e6678a04002b
:20560100000000000000000000000000000000000000000000000000000000000000000089
:20562100000000000000000000000000000000000000000000000000000f02800000880050
:205641004269ef08000a01096e80000003c0000f00001380000a2580010e2401d05000003d
:0d56610000b8d37f000400a2e7c50fa180b0
:20566e004c00000000000000000000000000000000000000000000000000000000000000d0
:20568e00000000000000000000000000000000000000000000000000111e784020000600ef
:2056ae0006ea8103010001d5ae9400041a402cea000000500e3a65a000082002fea0000076
:0d56ce001a1c03e394840e0ce0248f548812
:2056db000800000000000000000000000000000000000000000000000000000000000000a7
:2056fb000000000000000000000000000000000000000000000000002b9e02c00000000004
:20571b0035708100020000d7a800020217e03cb5008000790002258000001c37ea500000ae
:0d573b003db00d3f98e5046e403d0a0000b2
:20574800000000000000000000000000000000000000000000000000000000000000000041
:2057680000000000000000000000000000000000000000000000000003007ec3e0010006f6
:2057880023dba0000005b803ea80000000e021ea0000001800da4cc000001d025fa0000032
:0d57a8000551c722040c2602021dea040070
:2057b500802c00000000000000000000000000000000000000000000000000000000000028
:2057d500000000000000000000000000000000000000000000000002b08e0243c0000a2441
:2057f50067dba0200007b0008280000000e00d050000005f0e93f300008a023edea00000ac
:0d58150000b99f4204000e00c2960f530020
:205822004068000000000000000000000000000000000000000000000000000000000000be
:20584200000000000000000000000000000000000000000000000040538e33c3e0008600c9
:20586200786ba500069850007a80040410e04f8a000430055f00000000001604fea0000095
:0d5882000018e7b3d4400010e00000000063
:20588f000000000000000000000000000000000000000000000000000000000000000000f9
:2058af0000000000000000000000000000000000000000000000004021c00a43c0000000ab
:2058cf0041d80001042508030140000809e3c00a00003b808e000000000e1c3420a0000005
:0d58ef00800009c2808200c9434000000013
:2058fc0040000000000000000000000000000000000000000000000000000000000000004c
:20591c00000000000000000000000080000000000000000000000000001af2691001200441
:20593c007b6c1a00021079fb23d4000002000000000021a78c7be80008a08002f9000000f1
:0d595c008051ebe61400004006f5ca04007f
:20596900180200000000000000000000000000000000000000000000000000000000000004
:20598900000000000000000000000000000000000000000000000000001092b9411140020f
:2059a90041dd0000c00008874140000003c000000000028080df140000004000f98000007f
:0d59c90010089b797800000003440fa21025
:2059d60000000000000000000000000000000000100000000000000200000000000000009f
:2059f60000000000000000000000000000000000000000000000038000010000000000000d
:205a16000218cc123800f80fe11c280000403ffa000800280ed3e0400e08803fdcd11a7f4f
:0d5a36000001ebba8400e0a0070cef540063
:205a430080000000000000000000000000000000280000000000000000000000000000009b
:205a6300000000000000000000000000000000000000000000000000004d00000000014095
:205a830025d0cc000000b0078204c000e82005aa0000001710fba040002f0020d0f5104127
:0d5aa30002010d2688000001c41f0a0084c6
:205ab0004c700000000000000000000000000000000000000000000000000000000000001a
:205ad0000000000000000000000000000000000000000000000000400000b72e0000003e53
:205af000784f200031117c09839d080223e0000000000050083728000c8020000000003226
:0d5b10000281812b88084a01e01d8d1500df
:205b1d000c400000000000000000000000000000000000000000000000000000000000001c
:205b3d000000000000000000000000000000000000000000000000000000ff6e0000400497
:205b5d007d6b0008508000030108000443e000000000000010002802048044000000003003
:0d5b7d0099100003880044004001ed100461
:205b8a000001000000000000000000000000000000000000000000000000000000000000fa
:205baa0000000000000400000000000000000000000001000000000007007f194000802057
:205bca00396be5000900800823440010140785a810000000003ae800014a0063dcd1000451
:0d5bea0002f81da11c49001bc217cf540872
:205bf70000000000000000000000000000000000000000000000000000000000000000008e
:205c17000000000000080000000000000000000000000080000000000000f270001040042f
:205c3700436d4000020470f57b880010ea441dd420000000001fe80001200000daf5200485
:0d5c57000430e541084100c1440d0a00047d
:205c6400000000000000000000000000000000000000000000000000000000000000000020
:205c84000000000000000000000000000000000000000000000000000808000000000140af
:205ca4007c5c50020008380178600802040394ea000000058017a80010a00e07595a000052
:0d5cc400000405bec40002094385aa0500c6
:205cd1000000000000000000000000000000000000000000000000000000000000000000b3
:205cf10000000000000000000000000000000000000000000000000003190000000009402e
:205d110063408100000000f7417c0004000014e500102b87000c28000000023ddc52010039
:0d5d31000000096bcc810021c38e0f5008cb
:205d3e004800000000000000000000000000000000000000000000000000000000000000fd
:205d5e000000000000000000000000000000000000000000000000000b8e00000000005636
:205d7e0038def7030100000f2af0080000022fa810001007019aa800000c1c71fc8b02401e
:0d5d9e000070002b450a1a814017cf5404f5
:205dab000800000000000000000000000000000000000000000000000000000000000000d0
:205dcb000000000000000000000000000000000000000000000000000b000000000000802d
:205deb0002e0f308808010dd0260000000067fd42000280f8ff6680000401c74d0470002e6
:0d5e0b00b81887438802140062be0a000028
:205e180000000000000000000000000000000000000000000000000000000000000000006a
:205e3800000000000000000000000000004000000000000000000000080e3b2a8001aa84e0
:205e5800035eb3008408101f6a940000004795ca00081907411fd94000000e07eea500006e
:0d5e78008039f87020000a00478dea05000f
:205e850080000000000000000000000000000000000000000000000000000000000000007d
:205ea500000000000000000000000000000000000000000000000000011ef7294000001e40
:205ec500024e9820040078bb815400000260010a000001000ede30000000023f50aa0001e3
:0d5ee5000090873810400403d6160fa0105f
:205ef2004068000000000000000000000000000000000000000000000000000000000000e8
:205f1200000000000000000000000000000000000000000000000040075c000000000014b8
:205f3200000000000000b0900000000000e704ea0000400701b7a0400040240200a540010f
:0d5f520002380f7800020006000000010078
:205f5f00000000000000000000000000000000000000000000000000000000000000000022
:205f7f000000000000000000000000000000000000000000000000000080000000000c1462
:205f9f00000000000000f0800000000200261dd50000400f0d33204200201e01c05a00020c
:0d5fbf000000030028000031400000000039
:205fcc00400000000000000000000000000000000000000000000000000000000000000075
:205fec00000000000000000000000000000000000000000000000280001953c04000002087
:20600c0001d9a0000000100d7978000001c04000000000050e175108004044637ef540804e
:0d602c000000fd3f0c000240006f8a0600de
:20603900000200000000000000000000000000000000000000000000000000000000000045
:20605900000000000000000000000000000000000000000000000010004e7281c0000abc50
:20607900214ea001000000a5355000000003000000000100805b3cc00080007de050004085
:0d6099000000bf3b4400002402440fa000a3
:2060a6000000000000000000000000000000000000000000000000000000000000000000da
:2060c600000000000000000000000000000000000001000000000380000102b144a000346a
:2060e60000f933010000801562b0080a1807afc83108085000ba95440e2e3c02fea040386a
:0d6106000201e0794800e06b67a1cb1500b5
:206113008000000000000000000000000000000000000000000000000000000000000000ec
:206133000000000000000000000000000000000000010000000000000008f4328004003c5d
:206153002efeff00000070ffc1b0000404002d80200000200030154000002602d0fa004075
:0d61730005f1096a840000014024a7200006
:206180004400000000000000000000000000000000000000000000000000000000000000bb
:2061a000000000000000000000000002000000000000000000000100000e13e8400144044a
:2061c000021e66100000d8857d780000000060ea00100011800000000c007e7beef549318a
:0d61e0002c0189a28400c0f043f4aa5600ef
:2061ed0008000000000000000000000000000000000000000000000000000000000000008a
:20620d0000000000000000000000000000000000000000000000010009007b288001000043
:20622d00024f99000000f809395000008003f505000000808000000004001c78f0a0001028
:0d624d00807001e688005003c71605500060
:20625a00000100000000000000000000000000000000000000000000000000000000000023
:20627a0000000000000000000000000180000000000000000000004001801ba9400000209e
:20629a0001dc00008000300d62b008106047b6ea521080258037a9480000817dcaf54081ac
:0d62ba001d90073388080803e215cf54003b
:2062c7000000000000000000000000000000000000000000000000000000000000000000b7
:2062e700000000000000000000000000000000000000000000000040090f382a8000001449
:2063070026f0ff0000200803427000100020240aa0040240003015400001403d60a000023b
:0d6327000710000388000602400f0a0280e4
:20633400006c000000000000000000000000000000000000000000000000000000000000dd
:20635400000000000000000000000000000000000000000000000042d7093bb14080040057
:20637400277a3400040299f13388ca0a03e38ffc52002807801778000000000248f5410094
:0d6394002881ffb908080011666dea0408b1
:2063a1000028000000000000000000000000000000000000000000000000000000000000b4
:2063c100000000000000000000000000000000000000000000000040030e783000000000c3
:2063e100785820280408b0f00388220001c401ec50001007807750002000002450500044a3
:0d6401000010e5434482000007de0f51004b
:20640e0044000000000000000000000000000000000000000000000000000000000000002a
:20642e00000000000000000000000000000000000000000000000000001cb7400000a00e8d
:20644e0000d8a000410030036000080085f384c0a280500b8f000000000024204af5480047
:0d646e00080005afd40000585056ad1408ca
:20647b000800000000000000000000000000000000000000000000000000000000000000f9
:20649b00000000000000000000000000000000000000040000000000071f768080004002ff
:2064bb003c30a0000288080b0008000a29664ed08000605b1c00000000202e4370a000025f
:0d64db0000000f7b448400ce6282fd1000a3
:2064e800000000000000000000000000000000000000000000000000000000000000000094
:20650800000000002000000000000000000000000000000000000028010936a854004100ae
:2065280024f8a0010000000000000000254020aa0008004100000000000040387de27002d5
:0d6548008498036b45080004101faa04008e
:206555008000000000000000000000000000000000000000000000000000000000000000a6
:206575000000000000000000000000000000000000000001000000000998bfc400002604b7
:206595003800a0000008008000000000e00335050000002080000000000a007c0be2000056
:0d65b5002af090834404100002260fa00479
:2065c200400000000000000000000000000000000000000000000000000000000000000079
:2065e2000000000000000000000000000000000000000141000000000800f3200040400eae
:206602000069a0004030380000000008c04016ea0008332100beaa840000b67c00ff0080c6
:0d662200ad38807820400402e04000000008
:20662f0000000000000000000000000000000000000000000000000000000000000000004b
:20664f000000000000000000000000000000000000000080000000000f00df740000a02683
:20666f002bffa000000090000000000c0002420a000038508ff02a80000f547800ff0000cc
:0d668f001a100968100008624300000000a6
:20669c000000000000000000000000000000000000000000000000000000000000000000de
:2066bc000000000000000000000000000000000000000000000000201789376ac001200676
:2066dc003c0000000002700f7f0020000006fd85e002a80018fa178000008003df5d0002c6
:0d66fc009a188b7d78000801c39fca040026
:20670900000000000000000000000000000000000000000000000000000000000000000070
:20672900000000000000000000000000000000000000000000000000500c5a41c001000098
:20674900380000000010180df70000000007bc95400011000017820000000030d80e000173
:0d676900000001755000060040040f5100b3
:20677600000000000000000000000000000000000000000000000000000000000000000003
:2067960000000000000000000000000000000000000000000000000000011794c48000a053
:2067b600040de200000000100000000005e01ecac0239188089a9d029040003a4cac0201b1
:0d67d60018f80fbab008e00a075eaf548053
:2067e300000000000000000000000000000000000000000000000000000000000000000096
:2068030000000000000000000000000000000000000000000000000000080c14c210045c1b
:206823003a4bd100000070a0000000020242e409c000200110f00f0450217c42609c00029b
:0d68430080f0cb8270000006c674050000d6
:20685000000000000000000000000000000000000000000000000000000000000000000028
:206870000000000004000000000000000000000000000000000000005f00023000800000f3
:206890007beccf0800800005fc842000e00020cc50030847003ea8000081002bfe1f000068
:0d68b0000300eb7d7800c0f44701db15000c
:2068bd000000000000000000000000000000000000000000000000000000000000000000bb
:2068dd00000000000800000000000000000000000000000000000000018004300800400096
:2068fd0001cb4e0002020001fb44000040003d9ca013100080f83d4000018000db2a0000c6
:0d691d003900056550004a0023bde72080c9
:20692a0000000000000000000000000000000000000000000000000000000000000000004d
:20694a0000000000000000000000000000000000000000000000000003807f8280000140e8
:20696a00044ef500000038f000000010000226dea000200800ff000480402003ccac020060
:0d698a0000100d3ab0080000020f8f5700fa
:206997000000000000000000000000000000000000000000000000000000000000000000e0
:2069b70000000000000000000000000000000000000000000000000000800402800040007a
:2069d7002e60a0000000588000000000000676e4a000080f0090004000205400e09c0000c3
:0d69f7000008018270000088003f0a0000c7
:206a040000000000000000000000000000000000280000000000000000000000000000004a
:206a2400000000000000000000000000000000000000000000000028201af7a94000a0343c
:206a440002e8a500000000a87a80000c02620dca31302001807ba80441000600ece222c199
:0d6a64003038112314cb0020c0658f540082
:206a7100000000000000000000000000000000000000000000000000000000000000000005
:206a9100000000000000000000000000000000000000800000000002000954154000002c85
:206ab100027055000120000f4140020081c4010a318829800f0c280860001c3820e2180080
:0d6ad1008008d04314a002e023850a0004d1
:206ade00000000000000000000000000000000000000000000000000000000000000000098
:206afe00000000000000000000000000000000000000000000000000019ed3828080001470
:206b1e0071f88a0200030009e084010015e727aa302043d81833f9c421ae8473ec000201fc
:0d6b3e000000eb380008002c63d6af548037
:206b4b0000000000000000000000000000000000000000000000000000000000000000002a
:206b6b000000000000000000000000000000000000000000000000200010b42f40000e02a7
:206b8b000060da09000500e57788000008200d003004002f009bb880010d2541700210025b
:0d6bab00000187c008800014634f0a00102d
:206bb80000000000000000000000000000000000000040000000000000000000000000007d
:206bd800000000000000000000000000000000000000000000000002080877a940004004e7
:206bf800701c4702c00000f93abc020400000000000040010e832800200020780000000041
:0d6c18000070e000000000e007a4ea0400a6
:206c250010000000000000000000000000000000000000000000000000000000000000003f
:206c4500000000000000000000000000000000000000000000000000831ebc1540000082fb
:206c650003408b00002874b53fbc240803c0000000000380dff0140000001c000000000084
:0d6c85001800000000000a00438e0fa1005f
:206c92000000040000000000000000000000000000000000000000000000000000000000de
:206cb200000000000000000000000000000000000000000000000003c59e17ab00000a1e72
:206cd200280ec002000578807b00880005e78000000038090b8029500024807000000000e5
:0d6cf200018090000000009fc00000000025
:206cff00000004000000000000000000000000000000000000000000000000000000000071
:206d1f0000000000000000000000000000000000000000000000000020081eab0010002e25
:206d3f000010c008000201b043000000004000000000380b8d5016800041243800000000d3
:0d6d5f000270d0000000100a40000000008b
:206d6c004000000000000000000000000000000000000000000000000000000000000000c7
:206d8c000000000000000000000000000000000000000000000000002b0b96ecc001001658
:206dac006e4ca500000001f5a86c000030023795d00240081a33281020005c617f6e0000f7
:0d6dcc000281e56578008002079da8140093
:206dd900100200000000000000000000000000000000000000000000000000000000000088
:206df900000000000000000000000000000000000000000000000000df889f260001a44267
:206e19007b6055000000118d745c0000280015c0d0000221000828000000b600581c000071
:0d6e39002191073aa0000000c3dcd8210021
:206e460000000000000000000000000000000000000000000000000000000000000000002c
:206e6600000000000000000000000000000000000000014000000000090116a8c48000209f
:206e86003a7c5d020018001932b00800e347b4ebc02390000996a94000081e004cbc0203c5
:0d6ea6008050196ab008ea00004cfa16048a
:206eb30090000000000000000000000000000000000000000000000000000000000000002f
:206ed300000000000000000000000000000000000000008000000003878d0828c0000034e4
:206ef30043c00d00000000f3c270000062441406400002801eb42a80000a36005098000222
:0d6f13000008af427000460003dea201043a
:206f200044000000000000000000000000000000000000000000000000000000000000000d
:206f4000000000000000000000000000000000000000400000000000001eb6d900004340c1
:206f6000045aa500000001937a9400000a401c8a302300400ebbb1408100a0045cb10a02f1
:0d6f8000803805e17800c46be036ca50008f
:206f8d000c00000000000000000000000000000000000000000000000000000000000000d8
:206fad0000000000000000000000000000000000000020000000000000009f1cc000a60083
:206fcd00225055000200f0ef82a8000097c0030a3001100010d4300801807c3420b100000f
:0d6fed0000f8072aa000ca16c02e055100aa
:206ffa00000100000000000000000000000000004000000000000000000000000000000036
:20701a000000000000000000000000000000000000000000000000080181805080000e1e50
:20703a0078000000028081a1b3d40000086027c472b00050081f80c0a0008001fd10000237
:0d705a00aa80afbaf00800a400148f510006
:207067000000000000000000000000000000000040000000000000000000000000000000c9
:20708700000000000000000000000000000000000000000000000000000f33604000000007
:2070a7003c000000010010058280000077c3c5042080282010fc28c000413c3dfb180000c9
:0d70c7000531bdc190000a89c28d0a00008c
:2070d40000000000000000000000000000000000000000000000000000000000000000009c
:2070f40000000000000000000000000000000000000000000000004800187e400040001e00
:207114002a7aa500040110fb2a940000004057fe200068010f33280030401e077eaf0000fa
:0d713400001803b3888b00006065f64680ec
:2071410000000000000000000000000000000000000000000000000000000000000000002e
:207161000000000000000000000000000000000000000000000000000000dbe00010400003
:207181002ef05500050099fb01540000000302ee200068009d08280000060237e0ff08011e
:0d71a1000000000388200000033e9bc20494
:2071ae00447400000000000000000000000000000000000000000000000000000000000009
:2071ce0000000000000000000000000000000000000000000000000009087e1c0080002e48
:2071ee0005d88a0a003018993bd4000063c05c1a50000b078c72ed4000085606581f00031c
:0d720e0081781be0400000084040000000b7
:20721b000c78000000000000000000000000000000000000000000000000000000000000cf
:20723b000000000000000000000000000000000000000000000000030b80001c02000e1e5b
:20725b003740da00000001e7028000001463ceb66000005000f6694000a080204b1500036b
:0d727b000208c3e4000002f423000000003c
:207288000000000000000000000000000000000000000000000000000000000000000000e6
:2072a800000000000000000000000000000000000000000000000003801c172a802001063f
